:020000040000FA
:2010000000000420958D0000BD8D0000BF8D0000C18D0000C38D0000C58D00000000000004
:20102000000000000000000000000000C78D0000C98D000000000000CB8D0000CD8D000054
:2010400075AD000075A30000ED260100CF8D0000CF8D0000CF8D000011AA0000CF8D000017
:20106000F1FC0000CF8D0000CF8D000085AE0000CF8D000085AD0000CF8D0000CF8D000052
:2010800091CE0000CF8D0000CF8D0000CF8D0000CF8D0000CF8D0000CF8D0000CF8D00006D
:2010A000CF8D0000CF8D0000CF8D0000CF8D0000CF8D0000CF8D0000000000000000000008
:2010C000CF8D0000CF8D0000CF8D0000CF8D0000CF8D0000CF8D0000CF8D000075C6000051
:2010E000CF8D0000CF8D0000CF8D00000000000000000000CF8D000000000000CF8D000024
:201100000000000000000000000000000000000000000000000000000000000000000000CF
:201120000000000000000000000000000000000000000000000000000000000000000000AF
:2011400000000000000000000000000000000000000000000000000000000000000000008F
:2011600000000000000000000000000000000000000000000000000000000000000000006F
:2011800000000000000000000000000000000000000000000000000000000000000000004F
:2011A00000000000000000000000000000000000000000000000000000000000000000002F
:2011C00000000000000000000000000000000000000000000000000000000000000000000F
:2011E0000000000000000000000000000000000000000000000000000000000000000000EF
:2012000001F0FF01102A2BDB10F0070F08D010F8013B013A8B422DD010F0070F42B3F6D194
:20122000F0B441EA012141EA014122F007047FF000070023F0E80256083C85EA010586EA41
:20124000010685FA47F5A3FA87F586FA47F6A5FA87F68EB9EED1F0BC01F0FF0102F007023C
:2012600032B110F8013B013A83EA010313B1F8D10020704701387047002D06BF354603389F
:20128000073815F0010F07D1013015F4807F02BF013015F4C03F0130F0BC0138704700BF63
:2012A000002956D02DE9F047D1F8008092B00C46B8F1000F30D0D1E90196331D4B45054681
:2012C0002ED808EB0607A6493846042216F019FD002840D0731D994505D3A249052238464B
:2012E00016F00FFD38B3A0493846042216F009FD38B34E4510D218F80630222B00F0F980FC
:201300002D2B31D0A3F13002092A2DD95B2B00F004817B2B00F08280002012B0BDE8F087E4
:20132000731D9945E5D38F49052208EB060016F0E8FC0028DDD10120E860A3680533A36020
:20134000EBE702230120EB606861A3680433A360E3E7002070470423EB60A36801200433A6
:20136000A36012B0BDE8F087731E002102AFA9EB06069844019138464FF02E0C18F8012FE4
:20138000452A15D82A2A15D9A2F12B031A2B11D8DFE803F04210423810424242424242425C
:2013A00042424210101010101010101010104200652A31D012AB0B44002601A9384603F890
:2013C000406C13F0C9FDDDF804A0BA4559EC108BA2D085ED060B60A3D3E9002310EE100A51
:2013E000494616F0D1F9002800F08B806FF000436B610823EB60A368AAEB07071F44A7606F
:2014000001208AE780F800C001313F2900F10100D0D0B142B2D1CDE70270F5E7E368B3F56B
:201420007A7FBFF479AF0133E36018F806307B2B7FF472AF0136A660204603F0B1FED4E9DF
:201440000123934280F0BD802268D25C7D2A00F0DE800026013BA3603746B0463EE01860CB
:201460004360D4E901230133934280F0B080A360204603F095FE224606F1100106F10C00DD
:2014800003F044FF002800F0A280204603F088FE33693362C6F81080D4E90123934280F058
:2014A00096802268D25C3A2A40F091800133A360204603F075FE21463046FFF7F1FE0028CC
:2014C00000F08580204603F06BFED4E9012393427DD22268D35C2C2B40F09180206904F082
:2014E00033F83346064600286ED0002FB7D10746B7E7224605F1100105F10C0003F006FF8B
:201500000BE71A4B00224046494616F033F9002851D04FF000436B616BE7E368B3F57A7F36
:20152000BFF4FAAE0133E36018F806305B2B7FF4F3AE0136A660204603F032FED4E9012352
:2015400093423ED22268D25C5D2A53D0013B0026A360374625E000BF0000C0FFFFFFDF41C1
:20156000BC880100C4880100CC8801000000E0C118604360A3680133A360204603F010FE1F
:2015800021463046FFF78CFE03462046FBB103F007FED4E90123934219D22268D35C2C2BEA
:2015A0001AD1206903F0D0FF3346064660B1002FDED10746DEE74046494616F00FF9686143
:2015C00017E7013BA360A7E6002F3FF4A5AE384604F092FB0020A0E65D2BF8D1E368013B0F
:2015E000E3607E602023C5E90273A3680133A360012092E6E368013BE3600027F2E77D2B17
:20160000E5D1E368013BE3607E604023EBE7E368013BE3600027F8E7D0B5194B186857ECBB
:20162000106B03F091FF044670B10823C360C0E9066711A3D3E900233046394616F0A4F8B3
:2016400020B16FF0004363612046D0BD0D4B00223046394616F08EF820B14FF0004363614E
:201660002046D0BD3046394616F0B8F860612046D0BD00BFAFF300800000C0FFFFFFDF415A
:20168000780000200000E0C1D0B5038804463BB15C2B0DD188290FD082290DD00120D0BDA0
:2016A00080211D4807F02EF85C2323800120D0BD002303800320D0BD05F0CAFBE8B905F091
:2016C000ABFB02460B4652EA030116D010A7D7E90067D90141EA5261D0018F4208BF8642DE
:2016E0000FD3002908BFB0F57A7F0DD34FF47A72002316F0BBF80146D3E708480BF03EFF06
:20170000D2E74FF4F051CCE70121CAE7AFF30080E733750000000000700D0020C0000020D8
:201720002DE9F04FA3B01F4600231E93A44B19921B68079304461846884616F0DAFA4FF082
:20174000000A05464FF0000BCDF874801D9B1A782B2A4CD039D80D2A32D8082A32D8002ABE
:201760003CD000230E931D9E3378302B40F0B480737803F0DF03582B6CD10E9B01931EABEE
:20178000029700938F4A1FAB1DA9204613F0D6FC10F00707054605D0062F2AD101360023C1
:2017A0001D960E93199B002B40F096850E9BDBB152460BF1004343EC102B23B0BDE8F08F3E
:2017C000202ACED101331D93C0E72D2AC9D101220E925A1C1D925B78002BC4D1199BCDF8B0
:2017E0007480002B40F0768552465B46E3E70022EEE71E9A3AB1352120A816F08CFC1E999F
:20180000204613F03FFF013F052F07D8DFE807F00E0B181D0E034FF0000BDA462807C1D582
:201820004BF0004BBEE7DDE920ABF7E7DDE920A31F9A23F4801302F2334243EA025BEDE75B
:20184000DFF884B14FF0000AE8E76FF0004B4FF0FF3AE3E71D9B5A1C1D925B78302BF9D0A4
:20186000002B9FD001234FF0000904931D9B0A93CDF824904F460A221D980678A6F130033F
:20188000D9B209292AD907992A4616F03AFA98B3002033463D4607900246652B01D0452B27
:2018A00018D11DB9049B034398D00025DDF8748008F101031D9398F801302B2B75D02D2BCD
:2018C0007BD04FF0000CA3F13001092940F28280CDF8748000269DE00023C4E7082FD8BF4F
:2018E000099900F10100DABF02FB0133099302FB093901371D90BFE71D9B5A191D925B5D92
:20190000002F37D007903D46A3F13002092A12D90122C2E71D9B5A1C1D925B780130302B8B
:20192000F8D0A3F13102082A00F2DB841D9A079000200A920546303B00F1010214D007995D
:20194000114407912A4600EB050E0A21724513D12A18082A05F1010505441CDC09990A22E7
:2019600002FB0133099300221D9B591C1D915B781046C9E73846D2E7082A04DC099E4E4343
:2019800009960132E2E702F1010CBCF1100FD8BF01FB09F9F5E7102DDCBF0A2202FB09392C
:2019A000E1E70023079301227CE74FF0000C08F102031D9398F8023085E74FF0010CF6E7CC
:2019C000A49601007C9601000000F07F1D9B591C1D915B78302BF9D0A3F1310108293FF64C
:2019E00079AFA3F1300E1D9B08931D9B591C1D915B78A3F13006092E37D9089E891B082960
:201A000044F61F6602DC7645A8BF7646BCF1000F00D07642002D4FD1049901437FF4C2AEF6
:201A2000002A7FF4DBAE692B27D024DC492B24D04E2B7FF4D3AE9E491DA816F00BFA002841
:201A40003FF4CCAE1D9B1B78282B2DD1994920AA1DA816F013FA052826D1219BDDF880A0E4
:201A600043F0FF4B4BF4E00B9CE60A2101FB0E3EAEF1300EB9E76E2BDBE78F491DA816F04F
:201A8000E9F900283FF4AAAE1D9B8C49013B1DA81D9316F0DFF910B91D9B01331D93DFF859
:201AA0002CB24FF0000A7DE6854800F045FC8DED040BDDE904AB75E6079B0998F31A002FC6
:201AC00008BF2F46102D0893A846A8BF4FF0100815F05AFB092D82468B4613DD794B03EB7B
:201AE000C80353E9122315F0C9FB824648468B4615F04AFB02460B465046594615F008FA9B
:201B000082468B460F2D38DC089B002B3FF44AAE24DD162B0BDC6B4D05EBC305D5E900018B
:201B200052465B4615F0AAFB82468B463AE6089AC5F12503934220DB624CC5F10F0504EB52
:201B4000C50152465B46D1E9000115F097FB089B5D1B04EBC504D4E90023E3E7089B1633CB
:201B60000BDB079B574A9E1B02EBC606D6E900235046594615F0ACFCD6E7089BA5EB080806
:201B80009844B8F1000F71DD18F00F030AD04D4901EBC30152465B46D1E9000115F06EFBC7
:201BA00082468B4638F00F084DD0B8F59A7F22DD00252E46099507952223DFF810B1236038
:201BC0004FF0000A099B002B3FF4ECAD1E99204613F058FD0799204613F054FD3146204675
:201BE00013F050FD0999204613F04CFD2946204613F048FDD6E500234FEA28185046594698
:201C00009946B8F1010F21DC0BB182468B462E4BABF1547B03EBC90952465B46D9E900013A
:201C200015F02CFB294B0A460B4029498B428246BED8A1F580118B4286BFDFF898B04FF035
:201C4000FF3A02F1547B0023049381E018F0010F07D01D4B03EBC903D3E9002315F00EFB70
:201C6000012309F101094FEA6808CAE7EBD0C8F1000818F00F020AD0124B03EBC2035046CD
:201C80005946D3E9002315F023FC82468B465FEA2818D8D0B8F11F0F1EDD00252E460995CF
:201CA000079522234FF0000A4FF0000B236089E7C598010090960100BC980100BF9801008B
:201CC0000399010080860100588601000000F07F0000A07CFFFFEF7F18F0100318BF6A230B
:201CE000DFF8B493049350465946002318F0010F04D0D9E9002315F0C1FA01235FEA680869
:201D000009F10809F2D10BB182468B46049BBBB1CBF30A53C3F16B03002B594610DD1F2B57
:201D200040F32881342BDEBF203B4FF0FF3202FA03F34FF0000ACCBF4FF05C7B03EA010B2B
:201D4000002200235046594615F000FD0028A4D1099B00930A992B463A46204613F0FEFC3C
:201D6000099000283FF424AF079B9E1B089B002BB4BF334600231093089B002523EAE37396
:201D800018932E46099B2046596813F03BFC079000283FF411AF099B1A69023203F10C0111
:201DA00092000C3015F026FF4BEC10AB20AA1FA92046CDE90AAB13F0A1FF1E9000283FF42A
:201DC000FBAE0121204613F013FD064600283FF4F3AE1F9B0499002BABBF109A189A189F78
:201DE000DDF84090ACBF03EB0209D71A209AA3EB01089044A34B08F1FF389845C2F13602DE
:201E000080F2CC80A3EB08031F2BA2EB03024FF0010100F3B68001FA03F3119300230C93CE
:201E200009EB0208049BC14517441F444B46A8BF4346BB42A8BF3B46002BC2BFA8EB030891
:201E4000FF1AA9EB0309109B002B17DD31461A46204613F089FD064600283FF4ADAE0146F0
:201E60001E9A204613F0DAFC0F9000283FF4A4AE1E99204613F006FC0F9B1E93B8F1000FEA
:201E800000F39180089B002B08DD189A0799204613F06AFD079000283FF48EAE002F08DD27
:201EA00007993A46204613F0B9FD079000283FF483AEB9F1000F08DD31464A46204613F0B2
:201EC000ADFD064600283FF477AE079A1E99204613F010FE054600283FF46EAEC3680F932E
:201EE0000023C360314616F0C7F8002865DA0F9B53EA0A0340F08780CBF31303002B40F09F
:201F000082802BF000431B0D1B05B3F1D66F7AD96B6913B92B69012B75DD29460122204633
:201F200013F07CFD3146054616F0A6F800286ADD0499554A5B46002900F0858002EA0B015D
:201F4000B1F1D66F7FDCB1F15C7F7FF7AAAE4F4A0023CDE916325046DDE91623594615F001
:201F60008DF90B46034308BF222382468B4608BF23602BE64FF0FF3202FA03F303EA0A0AE1
:201F8000DEE6C8F17F4808F57F0808F57B4808F1E20801FA08F30C93119141E700230C93B5
:201FA000012311933CE71E994246204613F036FD1E9000287FF466AFFEE55F466ED10F9A8D
:201FC000CBF3130342B3324A934228D1049B5046EBB12D4A3A40B2F1D46F4FF0FF3119D8E6
:201FE000120DC2F16B0301FA03F3984217D1294B9F4202D101303FF4DFAD234B3B4003F5F5
:20200000801B4FF0000A049B002BA0D1DEE54FF0FF33EAE70B46E8E753EA0A0388D00C9B33
:20202000DBB13B42EFD00F9B049A50465946C3B115F079FE02460B46DDE90A0114F068FF96
:2020400082468B46DFE71340A3F580136FEA135B6FEA0B5B4FF0FF3AD5E7119B13EA0A0F27
:20206000E0E715F060FE02460B46DDE90A0114F04DFF0022002382468B4615F067FB00280F
:20208000C1D00EE602FCFFFF0000F07F00005039FFFF0F00FFFFEF7F3086010031462846B2
:2020A00016F006F859EC108B10EE100A00224FF08043494615F05EFB00287CD00F9B002BCA
:2020C0004CD0954B0022CDE90C23DFF84C924FF00008924B3B401193119A914B9A4240F072
:2020E000B280DDE90A23DDE90C01A7F1547B4BEC10ABCDE91623CDE90C0113F083FDDDE994
:202100000C0153EC102B15F0B9F852465B4614F0FFFE0B468149834A1940914282465ED935
:202120000B9B02F15472934203D10A9B01333FF443ADDFF8FCB14FF0FF3A1E99204613F07F
:20214000A1FA0799204613F09DFA3146204613F099FA2946204613F095FA13E6BAF1000FB7
:202160001BD1CBF31303F3B96B4B00224046494615F0F6FAD0B9404649466B4B002215F096
:202180007DF88046894609F10043CDF868801B93DDE91A23CDE90C239BE7BAF1010F02D1A5
:2021A000002F3FF47EAD614B00228CE7DFF878914FF00008E7E75C4B40464946002215F079
:2021C0005DF80F9B8046894633B901F1004312901393DDE91223DDE7CDE91289F9E703F11E
:2021E000547B049B002BA8D12BF00043119A1B0D1B059A42A1D14046494615F04FFB15F0C5
:202200000FF802460B464046494614F07FFE0F9ACBF3130343EA0A0313438046894653D0C3
:2022200035A3D3E9002315F09BFA00287FF4CEAC33A3D3E900234046494615F0AFFA002898
:202240003FF47BAFC2E4049B33B3119BB3F1D46F22D82DA3D3E900234046494615F08AFA1C
:20226000A0B14946404615F0E1FA012838BF012014F08AFF0F9B8046894613BB01F1004308
:2022800014901593DDE91423CDE90C230D9B119A03F1D6639B1A0D93DDE90C019DED0A0BC9
:2022A000CDE90C0113F0AEFCDDE90C0153EC102B14F0E4FFDDE90A2314F02AFE82468B46C2
:2022C0008FE7CDE91489DDE711A3D3E9002315F047FAB4E700230E93199A1D9B1360FFF765
:2022E00065BA652B3FF45DAB452B3FF45AAB0122FFF792BBAFF300809535A094FFFFDF3FAA
:2023000035E5AF350000E03F0000C0FFFFFFDF419535A094FFFFCF3F0000F03F0000F07F1B
:202320000000E07FFFFF9F7C0000E03F0000F0BFFFFFEF7F000000009FED010B704700BFDD
:20234000000000000000F87F10B5054C237833B9044B13B10448AFF300800123237010BD64
:202360002809002000000000709A010008B5034B1BB103490348AFF3008008BD00000000AC
:202380002C090020709A0100A3F5803A704700BF174B002B08BF134B9D46FFF7F5FF002175
:2023A0008B460F461348144A121A15F04BFC0E4B002B00D098470D4B002B00D09847002041
:2023C000002104000D000D48002802D00C48AFF3008012F031FC2000290005F061FC12F03A
:2023E00017FC00BF00000800000000000000000000000420E0040020203600200000000065
:202400000000000000B585B00346002101AA44F20100CDE90111039300F004F805B05DF832
:2024200004FB00BF72B6094B1B68DB0700D500BEBFF34F8F0649074BCA6802F4E062134379
:20244000CB60BFF34F8F00BFFDE700BFF0ED00E000ED00E00400FA050378052B02D0094B01
:202460001B681847084BD3F88424D3F8803413F0FF0FF4D1054BD2B2052A08BF1846014BEB
:202480001B681847440900200070024060870100014B02481B681847440900206487010082
:2024A000012803D0022809D020B17047054B06481B681847034B05481B681847014B044800
:2024C0001B6818474409002058870100548701005C8701002DE9F04F87B0002504460F46BD
:2024E00090469946029500E001356268012356682146002202A8B0470028F5D18DF806002B
:20250000049065B3824683460AE09DF806306668023B7668B0479DF806309B445D451ED9A6
:2025200062680123566821460DF1060204A8B04762680123566821460DF1070204A8B04722
:202540009DF80730BB424FF00002214604A8DCD1D04508D00AF1010A5FFA8AFAD5E7052000
:2025600007B0BDE8F08F109A9DF80630136089F8003089F801706168023B4D6809F102023C
:202580002146A847002007B0BDE8F08FF0B5054683B03B4809F09AFB044610B1204603B092
:2025A000F0BD384A3849394B14700C604822214637481C6015F046FB36482146482215F091
:2025C00041FB002D54D095E80700334B83E80700002847D0002007F0C7FF08B1852844D163
:2025E0002E4D2B7A002B49D0013BDBB205F10C024FF0030E6E68274FDFF894C01EFB032E99
:2026000005F109046378EBB1A278611C1144013B51FA83F1224408E003F00F0307EBC3034E
:2026200091421D60306858600CD012F8013B1806F2D503F00F030CEBC30391421D60306849
:202640005860F2D103347445DCD10B238DF804301248336801A99847044600289ED009F024
:2026600077FB9BE70E4A1A60B4E7FFF7CBFEB7E7094B0B4A5D601D721A60ABE76E68E4E7FA
:20268000592400008D2B0020E0090020E40900205009002098090020440900209087010010
:2026A000692A000010B509F06DFC68B109F072FC044648B9064807F06BFF034628B1FFF7CE
:2026C000A1FE2346184610BD0823184610BD00BF5087010009F046BB0AF044BA4FF08043E6
:2026E00003E0D3F83824D10707D5D3F838249207F7D5024B02481B681847704744090020F3
:202700006887010000B5054B83B082221B688DF8042001A8984703B05DF804FB44090020C5
:202720002DE9F043057A83B0002D5ED005F1FF3E5FFA8EF300F10C024FF0030E00F10901EC
:20274000334FDFF8D4C01EFB032E0C4666780022964204EB020319D094F8028013F9089089
:2027600013F80830B9F1000F0BDB03F00F0307EBC3031B680132002BEAD0112003B0BDE896
:20278000F08303F00F030CEBC303F2E70334A645DCD100261E4FDFF880C0324602EB420209
:2027A0000A445378EBB1002423460CE003F00F0307EBC303186045682D685D6055780134B5
:2027C000E3B29D420CD99578134413F905E05B5DBEF1000FEADA03F00F030CEBC303E9E77F
:2027E000057A0136F2B29542D8D80A4A13681BB11A681368002BFBD1106043680B228DF89C
:2028000004201B6801A9984703B0BDE8F08300BF98090020E009002050090020024B1878DE
:20282000003818BF012070478C2B0020030710B5044604D52046BDE810400AF02BB809F0B7
:2028400043FD20460AF07EF82046BDE810400AF021B800BF0AF064BA014B1868704700BF1B
:20286000E0090020F0B40E4B1F688FB13E7A96B100231C463A4602E0DCB2A6420BD9557A7C
:20288000854203F1010302F10302F5D101B10C703846F0BC70473B681F68002FE6D1F7E7BE
:2028A000E0090020436811461B68184700F00F03082B0AD802064CBF054A064A02EBC303AF
:2028C000186810B143681B6818471020704700BF500900209809002038B5094B1C6864B170
:2028E000054602E023681C683CB1636829461B68204698470628F5D038BD062038BD00BFEB
:20290000E009002038B50D46044609F0AFFB18B1054B1B78022B01D0082038BD29462046E5
:20292000BDE8384009F0B2BB8D2B002038B50D46044609F09BFB18B1054B1B78022B01D079
:20294000082038BD29462046BDE8384009F030BC8D2B0020F8B543689B6805460C46164657
:202960001BB19847062800D0F8BDEEB92B7AA3421CD9093504EB44042C44677897B133464E
:202980003A469A420BD9A378A2190136D05CFFF74DFFF3B2BB4205D262789A42F3D800235F
:2029A0001B78FFDE0020F8BD0720F8BD7378FFDE70B54368DB6805460C4603B198472B7A46
:2029C000A3421AD9093504EB44042C4466789EB100252B46324693420BD2A3786219013581
:2029E000D05C0AF09DF9EBB29E4205D962789342F3D300231B78FFDE70BD00235B78FFDEB8
:202A000043681B6903B118471846704770B50A4B1D687DB12E7A4EB10024214601340022A9
:202A20002846FFF797FFE1B2B142F7D32B681D68002DEFD170BD00BFE009002070B5094BD9
:202A40001D6875B12E7A46B10024214601342846FFF7AEFFE1B2B142F8D32B681D68002DC5
:202A6000F0D170BDE009002070B503780446852B00F2BF80DFE813F00002B201BE003A021B
:202A80006602E300EA00BD00040117012A01BD00BD00BD00BD003D01BD00BD00BD00BD00D6
:202AA000BD00BD00BD00BD00BD00BD00BD00BD00BD00BD00BD00BD00BD00BD00BD00BD0046
:202AC000BD00BD00BD00BD00BD00BD00BD00BD00BD00BD00BD00BD00BD00BD00BD00BD0026
:202AE000BD00BD00BD00BD00BD00BD00BD00BD00BD00BD00BD00BD00BD00BD00BD00BD0006
:202B0000BD00BD00BD00BD00BD00BD00BD00BD00BD00BD00BD00BD00BD00BD00BD00BD00E5
:202B2000BD00BD00BD00BD00BD00BD00BD00BD00BD00BD00BD00BD00BD00BD00BD00BD00C5
:202B4000BD00BD00BD00BD00BD00BD00BD00BD00BD00BD00BD00BD00BD00BD00BD00BD00A5
:202B6000BD00BD00BD00BD00BD00BD00BD00BD00BD00BD00BD00BD005101860060011C0222
:202B8000E301E3008C4B8D49D3E9000290478C4B1C684CB1894D636820461B6829469847FC
:202BA00023681C68002CF6D1864C63680BB10D209847FFF743FF01F075FB834B1B68002B99
:202BC00000F0FD810120814D09F0AAF92A78931EDBB2062B00F215827D49CB5C13B107F0BA
:202BE000A9FC2A78022A40F00C8209F015FA01232B7070BD754D2A78931EDBB2062B00F2EB
:202C0000CD817349CB5C13B107F094FC2A78022A40F0C48109F000FA6A4B5B6803222A70CB
:202C20000BB102209847664B1D6845B16B6828461B68214698472B681D68002DF6D15E4BEC
:202C40002146D3E90002BDE87040104790F902308278002BB4BF5F4B574B02F00F0203EB13
:202C6000C203D3E90002214690470028C1D0A0780207BED00307BCD4BDE8704009F0F6BA93
:202C8000504B5B680BB1082098474D4B1D68002DAFD06B6828461B68214698472B681D6828
:202CA000002DF6D1A5E7474B5B680BB109209847434B1D68002D9CD06B6828461B682146A4
:202CC00098472B681D68002DF6D192E73D4B5B680BB10A2098473A4B1D68002D89D06B681D
:202CE00028461B68214698472B681D68002DF6D17FE7344B5B680BB10F209847304B1D681F
:202D0000002D3FF476AF6B6828461B68214698472B681D68002DF6D16BE72C4C2378062B82
:202D200000F04F8103F0FD03052B7FF462AF09F07DF90223237070BD244DFFF77FFE09F0FB
:202D400005FF2A78931EDBB2062B31D82049CB5C13B107F0EFFB2A78022A29D109F05CF90A
:202D6000174B1C6800232B704CB11B4E636820461B683146984723681C68002CF6D10E4BE4
:202D80001549D3E9000290470E4B5B680BB10E2098472B78023BDBB2062B3FF62AAF0C4A59
:202DA000D35C002B3FF425AFBDE8704007F0C2BB082AD5D1D2E700BF980900206C870100E4
:202DC000E009002044090020E40900208D2B00204887010050090020708701009C4DFFF778
:202DE0002DFE01F055FA2A78931EDBB2062B00F2D9809849CB5C002B00F0D480022A03D096
:202E0000082A01D009F012F9934B5B6802222A700BB101209847914B2146D3E900029047B8
:202E20008F4B1D68002D3FF4E4AE6B6828461B68214698472B681D68002DF6D170BD844D2D
:202E40002B78032B00F0C68009F0AEF800283FF4D0AE2A78931EDBB2062B40F2EB8081487C
:202E600007F03AFB2A78022A01D0082A01D109F0D3F806232B7070BD754B1B78032B00F05D
:202E8000A580082B00F0A280734B5B680BB100209847754B1D68002D3FF4ABAE6B6828464D
:202EA0001B68214698472B685D68002DF6D170BD674D2B78032B7FF49CAE09F083FE0028EC
:202EC0003FF497AE2A78931EDBB2062B00F2BB806049CB5C13B107F02DFB2A78022A40F08B
:202EE000B28009F099F804232B7070BD584D2A78082A5CD0931EDBB2062B00F2868055497D
:202F0000CB5C002B00F08180022A00F0878005232B70514B5B680BB1032098474F4B21466A
:202F2000D3E9000290474E4B1D68002D3FF461AE6B6828461B68214698472B681D68002D20
:202F4000F6D170BD444B5B680BB103209847434B4649D3E900029047414B1C684CB1434D1E
:202F6000636820461B682946984723681C68002CF6D1374D2B78062B1ED0082B0BD09A1E41
:202F8000D2B2062A4DD833498A5C002A49D0022B01D009F04BF802232B7070BD082A7FF4E7
:202FA0003BAE37E62F4807F097FA2A7826E702232B7009F045F8ACE707232B7070BD207A48
:202FC00001E609F033F80823237070BD2848FFF74BFD59E709F0F6FD00283FF435AF2A7840
:202FE000931EDBB2062B2BD81A49CB5C13B107F0A1FA2A78022A23D109F00EF804232B70FC
:2030000022E7082A7FF4F3ADEFE5164807F064FA2B78022B02D0082B7FF479AF08F0FCFF78
:2030200075E7104807F058FA2B78022BB3D0082BB1D0AEE70749CB5C002B7FF414AF0EE72A
:20304000082ADBD1D8E7082A7FF44DAF49E700BF8D2B00204887010044090020980900206D
:20306000E009002008000020E409002078870100748701004360CA699A4205D38A69026037
:203080000B67CB610020704701F1280202608B6700207047F0B504680E7A002C00F07284C9
:2030A000A4F212347C2C00F2C1827C2C00F2BE82DFE814F074020003DE02CF02C7022A0392
:2030C00007032303BC02BC02BC02BC02BC02BC026702D702BC02BC02BC02BC02CC010F0333
:2030E000E602BC02BC02BC02F401EE038C03BC02BC02BC02BC02FF00CB034803BC02BC02AD
:20310000BC02BC02BC02BC026402BC02BC02BC02BC0219019B039303AC035703BC02BC0286
:20312000C3038403B40339035F03BC02BC024103DB015003ED00BC02BC023203DB00F5038D
:20314000BD00BC03BC02BC02BC02BC02BC02BC02BC02BC02BC02BC02BC02BC02BC02BC028F
:20316000BC02BC02BC02BC02BC02C900D303BC02BC02BC026703BC02BC02BC02BC02AC00B2
:20318000BC02BC02BC02BC02AC00BC02BC02BC02BC02BC02BC027D00C002BC02BC02BC029E
:2031A000BC02B800BC02BC02BC02BC02B80001240025002A00F0CD8307795755A3424FF0E5
:2031C0000005057140F27C83171901343D70B04D0F7D2D682D78AF4200F0B0838F7DAF425D
:2031E00009D10025A342057140F24D85254601340AB107795755DFF8A0C2A64F9CF80050D8
:203200003F780135EDB28CF800507BE1012500240AB1077917554024AB42047140F28983FD
:203220006C1CC6E701240025002AE2D1E3E701240025002A40F031848D7D0571A34240F278
:2032400062830134FFE001250024002A00F03D8307791755AB424FF00504047140F27E8388
:20326000274602EB050C6C1CFDE201250024002A40F011840624AB42047140F23F8301358D
:203280000C7D0471AB4240F291836C1CD4E701250024002A40F003840524AB42047140F2D2
:2032A00028836C1C2425A342057140F27583651CE0E701240025002A00F0FA8307795755B8
:2032C0004FF0000CA34280F804C040F29084651C0027AB4202F804C0077140F2F38354195C
:2032E00001352770F3E001250024002A00F0EF8307791755AB424FF02404047140F2C1832D
:20330000274605F1010C002463455755047140F2A98325460CF101071024BB4202F80C50FB
:20332000047140F29083254607F1010C01246345D555047140F2788325460CEB0407052434
:20334000BB4202F80C50047140F25D83254607F1010C24246345D555047140F24A8325462A
:203360000CF101070124BB4202F80C50047140F23683254607EB040C03246345D555047195
:2033800040F228830CF1010702F80C40BB4291F816C080F804C040F218837C1C0425A342FA
:2033A00002F807C0057140F20B8302EB040C2F4601342425A3428CF80070057140F2FB8228
:2033C0002F46651C1755AB424FF00204047140F29F82274602EB050C6C1C0225A3428CF80E
:2033E0000070057140F2DD822F46651C1755AB424FF00504047140F27C82274602EB050CAF
:203400006C1C2425A3428CF80070057140F2C4822F46651C1755AB424FF00604047140F2D5
:203420006D82571901353C700F7D0771AB4240F2BD826C1C5755A3428D7D057140F2638239
:20344000171901343D70124D2D6851E001270024002A00F04082057915559F424FF0000401
:20346000047180F0F5827D1C39E101250024002A40F017830224AB42047140F249826C1CF2
:203480000225A342057140F28C82651C04E700BFE80900208E2B0020902B00200124002530
:2034A000002A00F09883077957559C424FF00205057180F05883671C1555BB424C7E04719D
:2034C00040F2E48202EB070C7D1C8CF800400024AB42047140F221826C1C0AB1077957552D
:2034E000C64D91F814C02D682F78BC4500F01A82DFF810E3DFF810C36F788EF8007000251D
:203500008CF80050BD423FD3BD4F3D780135EDB23D70AE4240F2CA810925A342057140F25B
:203520005583651C002A00F0128307791755AB424FF00404047140F2B682274602EB050C19
:203540006C1C8CF800700F7AAD4D2D78AF4240F2AC8305EB450501F10907DFF8A0C217F8F1
:2035600005E080F804E03D449C42CCF8005080F07E82671C002A7FF46EAFACE10124002513
:20358000ABE701250024CDE70725A342057140F29281651C002A7FF45BAE96E1002A00F017
:2035A000EB8204791470012B4FF00B04047140F2238302250127D455AB420F7D077140F23B
:2035C0005B8205F1010C022463455755047140F2448225460CF101070224BB4202F80C503B
:2035E000047140F22B82254607F1010C02246345D555047140F213820CF1010702F80C4088
:20360000BB4291F819C080F804C040F2F7817C1C0025A34202F807C0057140F2E5811719C4
:2036200001343D70764F00253D7072E7002303601846F0BD002A00F0F28205791746012499
:20364000C4E5002A00F0F28205794FF0010C0027CCE7002A00F0EC82057901274FF0000C16
:20366000BAE7002A00F0FF8207799446012468E7002A00F0D78207794FF0010C0025A2E753
:203680005E4C002A00F0E68207792468944601258CF8007024780F7DA74200F0B9818F7DB7
:2036A000A7427FF414AF0A249D42047180F0F5826C1C00E6002A00F0D282047901250027DC
:2036C00079E7002A00F0B08290F804C0012400279EE7002A00F0C182047901250027DFF823
:2036E0001CC1D455DCF80040AB426778077140F2A08102EB050C0135CAE7002A00F0B182E7
:203700000579174601248CE7002A00F08482047901274FF0000C71E7002A00F0A78207790B
:20372000944601246DE6002A00F08E82047901274FF0000C28E6002A00F0A1820779944678
:20374000012436E6002A00F000821446077927700125BCE6002A00F08E82077994460124AA
:203760003BE6002A00F07282057901274FF0000CE5E5002A00F0608290F804C001240027CB
:203780000CE61E4C0125276800241AB190F804C002F804C03C780F7DA74200F0E9808F7D91
:2037A000A7427FF438AD0224AB42047140F270822C460135002A7FF42CAD2CE5002A00F0D3
:2037C0004782057901274FF0000CCBE5002A00F0BC8104799446012577E6002A00F016829C
:2037E000057901274FF0000C96E5002A00F0458207794FF0010C002585E500BFE809002051
:203800008F2B00208E2B0020902B0020002A00F0308205794FF0010C002787E5002A00F0D7
:203820000F8205794FF0010C0027A5E5002A00F0F48105791746012404E6002A00F0218246
:2038400005794FF0010C002783E5002A00F0F68190F804C0012500243AE5002A00F0EA8144
:203860000779944601248CF80070C14FC14D3F682D7897F801C0AC4540F2148297F802C011
:203880003D44A34215F80C5005716CD9651C7CE7002A00F0D7810579012700240CE6002A62
:2038A00000F0B681047917460125BCE540F2993303600120F0BD40F26D3303600120F0BD0E
:2038C0004FF4617303600120F0BD0524AB42047144D96C1CC9E79F42027180F0B9807D1C2A
:2038E000A34C2468AB426778077140F2A2800135D0E640F2553303600120F0BD40F2573322
:2039000003600120F0BD40F2593303600120F0BD40F2513303600120F0BD4FF44F73036038
:203920000120F0BD0525A342057140F21781651CDBE440F2833303600120F0BD0D6AA342B5
:203940002D7805713FF652AC40F2893303600120F0BDA3420271B3D9013438E440F26E33F2
:2039600003600120F0BD40F2723303600120F0BD0324AB4204713FF61BAF40F27733036047
:203980000120F0BD08240471002B7FF407AE40F2123303600120F0BD40F25633036001207E
:2039A000F0BD40F2523303600120F0BD4FF4567303600120F0BD4FF4547303600120F0BDFA
:2039C00040F24F3303600120F0BD4FF4537303600120F0BD40F24B3303600120F0BD40F2B5
:2039E0004A3303600120F0BD40F2193303600120F0BD40F2493303600120F0BD4FF446738F
:203A000003600120F0BD4FF4527303600120F0BD02249D42047180F0F4806C1C40E540F2FF
:203A2000173303600120F0BD40F2453303600120F0BD4FF44A7303600120F0BD40F2163384
:203A400003600120F0BD4FF4517303600120F0BD40F2273303600120F0BD40F21533036063
:203A60000120F0BD40F2433303600120F0BD40F2263303600120F0BD4FF445730360012064
:203A8000F0BD40F2423303600120F0BD40F22E3303600120F0BD0779BCE40779CAE407790F
:203AA000A4E407798EE440F2213303600120F0BDA342027140F29B80013400259C42057182
:203AC000C0F0938040F2353303600120F0BD2424AB420471D5D96C1C00259C420571C1D26C
:203AE000013410259C420571ADD2013401259C42057199D22C4405259C42057183D20134F7
:203B000024259C420571BFF474AF013401259C420571BFF464AF2C4403259C420571BFF41E
:203B200059AF01348D7D05719C42BFF44EAF01340425A34205717FF643AF01342425A342B7
:203B400005717FF638AF651C94E40125BFE40424AB420471A7D90F7A6C1CF5E440F2413337
:203B600003600120F0BD40F22D3303600120F0BDE8090020902B00200B24012B04713BD981
:203B800002240D7D05719C42BFF476AF01340225A34205717FF661AF013402259C4205715D
:203BA000BFF44CAF01340225A34205717FF637AF01344D7E05719C42BFF420AF0134002515
:203BC0009C420571BFF410AF01342BE54FF4487303600120F0BD02259C420571C3D2013466
:203BE0004D7E05719C42BFF451AF651C6FE44FF44D7303600120F0BD40F2133303600120EF
:203C0000F0BD4FF44B7303600120F0BD012468E70125FFF735BB0124CBE7012413E401242D
:203C2000FFF7D5BA0124B2E70124C8E70124BAE70124B2E7012418E6012479E701243CE7F9
:203C4000012469E70124CBE701246BE7012452E701245BE7246801251CE5012540E60124B8
:203C60008FE70124DEE4374601246DE40124FFF719BB01243AE7012402E401242CE7012457
:203C80005CE701243CE740F28E3303600120F0BD4FF45F7303600120F0BD40F23333036034
:203CA0000120F0BD00231B78FFDE024A002313601B78FFDEE809002070B90B681A7B202AC5
:203CC00001D0062070471A4652F80E1F9961918892799A7799837047032070474360CA69AD
:203CE0009A4210D38A6910B40260C8690C6FC01A1C441A44C86100380C6718BF01205DF887
:203D0000044B8A61704701F12802026000208B67704700BF2DE9F0470B7888B00D46064605
:203D20000E2B14D8DFE803F008180808130D281313181308080808000024204608B0BDE8D4
:203D4000F0874B78DA0930D15B09012B4CD00624204608B0BDE8F0870368002403F134027C
:203D60002046C3E91E44C3E920445A671C845C62DC6208B0BDE8F087027A8B78002A00F0F5
:203D80006581817A0930002900F05E81F17A415C9942D1D01B061ED4EF7807F0FD03012BF0
:203DA000CAD0002F65D00324C7E713F0600FC3F3411200F09180012AC9D18B78212BC6D109
:203DC000B1F80720072AC2D10168681C183100F073FA0446B1E7EC78002C00F09D80032C0E
:203DE00014BF03240024A8E78B780768202B00F09B80222BABD1B1F80730002BA7D1B1F859
:203E0000035097F820303D8405F0010203F001039342154690D0C3691BB1C2F10301C9B206
:203E20009847002D88D1337A012B40F20B81737B06F10C04002B00F00381B37BE05C08F090
:203E4000EBFE337A012B40F2FD80737B012B40F2F780B37B23442C46587808F0DDFE07F18C
:203E60003403C7E91E55C7E920557D62FD627B6763E73568012A05F10C0140F2DF80727B10
:203E8000012A06F10C0340F2D7800691B27B704905911344AC6A93F80180002C60D1EA6F26
:203EA000EB6AAC67C5E91F42002B00F0B480296B1846002205F1240383E803004046EA62CB
:203EC00005A9FEF733FD0446F369002B3FF435AF30460021984730E703F01F03012B7FF4E6
:203EE00036AF8C78062C7FF432AF05A8039200F0D5FC03AA00920746EA78297930463B46C9
:203F0000FEF7E8FA05283FF418AF039A3946681C00F0D2F9044610E7F369002B3FF40CAF92
:203F200030460121984708E7B1F80720072A7FF40EAF3B73B1F80730DBB27B7300200E377C
:203F4000CDE90573079000F08BFF002005A9FEF7D9FC0446002867D0002000F089FFECE677
:203F6000D5F88490686A4C4528BF4C4605F1340A2246514613F03EFEE86FEA6AEF67A9EB7D
:203F800004030AEB04010444C5E91D13C5F88040002A43D005F12C0797E8030005F1240477
:203FA000002284E80300EA62002B3BD091461BE0696F686A13F01EFED5E91D32A96AC5F876
:203FC00080100B44521AC5E91D32F36913B1002130469847EB6A13B397E8030084E80300F7
:203FE000AB6FC5F82C90EBB1AA6A9342E0D2696F686A1A4613F0FEFDD5E90932A96FE9678E
:20400000521A0B44C5E9093253B1404605A9FEF78DFC044658E700236B6255E700236B62A1
:20402000002451E76B6AEFE70A4B049603A9039300F020FC04468FE73B78FFDE7B78FFDE1C
:204040002B78FFDE6B78FFDE0B78FFDE5378FFDEDD3C0000B93C000010B503681C8CE40747
:2040600084B015D50B46017A012916D9417B00F10C0481B1817B605C91060CBF01240024EB
:2040800001A9CDE901320394FEF73CFC04B010BD082004B010BD0B78FFDE00235B78FFDE6C
:2040A0000368D3F880007047F0B50468238CDB0783B022D50546002016460F4600F0D0FEED
:2040C000A26F42B9636AE3B11124002000F0D0FE204603B0F0BD964228BF1646616F324637
:2040E000384613F087FDD4E91D239B1B3244C4E91D23C4F880600024E7E70824204603B0D2
:20410000F0BDC4E909762A7A012A12D9697B012905F10C020FD9AB7B0849009113440C3473
:20412000587801946946FEF701FC041E08BF9224CBE75B78FFDE1B78FFDE00BF75300000A4
:20414000002070472DE9F04F4B6885B0CDE900020C46002B71D008F085F8E568019B9D4298
:2041600028BF1D468146002D7CD04FF0000A5646D3464FF00108D4E90113AB421F4628BF65
:204180002F46E9B13A4609EB060013F033FDD4E90223D21BDB1BC4E90223C4F804B0ED1B54
:2041A0003E442AB3002B08BF4FF00008002DE2D1009BC3F800905E60404605B0BDE8F08F84
:2041C000ABB120463B4650F8101B4A68D2F804A009EB0602D047D4E90223D21BDB1BC4E984
:2041E0000223ED1B3E445AB14FF0010ADAE7E368BAF1000F04D15BB99846002DBBD1D7E7B7
:2042000022681268126822604FF0010A002BF3D02168F1B1CDF808B003E0A3682168013313
:20422000A3604B6800225F6802A80123B8470028F3D12061002D9ED1BAE70B681B681B68EF
:20424000002B88D18B68002B85D1036043609846B2E76160002EABD0019BB34288BF4FF068
:204260000008A5E72E464FF00108A1E7054B0528187004D0044A137823F0020313700348CE
:20428000FEF7F2BB912B0020922B0020A087010008B50020FEF7CAFABDE808408020FEF783
:2042A000C5BA00BF08B50020FEF7D4FABDE808408020FEF7CFBA00BF70B5C38893421E46AD
:2042C00028BF1646934284B00D4612D8002400200394CDE9015600F0C3FD01A98020FEF77E
:2042E00011FB044688B1002000F0C2FD204604B070BD8020144607F0A9FEB4FBF0F202FBF3
:204300001044B4FA84F46409E1E708F085F880280BD1094A094B92E8030083E80300002043
:2043200000F0A6FD204604B070BD002000F0A0FD1024204604B070BDD8870100100A0020E1
:204340002DE9F04F0B780E2B89B018D8F3B1013B0D2B1BD8DFE803F01F0E281A354C1A1A3A
:204360001A1A0E666F07B24B1B78012B02D00120FFF77CFF0024204609B0BDE8F08F852BE8
:2043800004D1AB4B1B78032B00F040810624204609B0BDE8F08FA64B1B78032BF6D00320D8
:2043A000FFF764FF0624E6E7A24806F019F80028E0D0A14B01221A60BFF36F8FBFF34F8F1B
:2043C000D8E705230DF115008DF8143007F08CFF9DF81530994E002203F01F043260032CDE
:2043E00000F2B980DFE814F0E800B90099008D00C87803280D46C9D0904E3368002B00F015
:2044000003810022716832609847044600287ED13368002B00F00581AB78002BAAD107F0EF
:2044200085FFA8E7824B1B78002BA3D00020FFF71DFF00249FE74FF08043D3F8383413F053
:20444000010F7B4B1B7806D0022B93D00220FFF70DFF00248FE7012B89D18BE7BDF81B30D7
:20446000002B00F0D880092B28BF09239946FEF7F3F90546002800F0DB81BB464FF0090AB0
:20448000CDF80CB04FF0000801E008F101086A68012357682946002203A8B8470028F4D194
:2044A0002A682B7A15681C44C244E4B2002DE7D1634D644928464A4613F09CFB2C71A5F838
:2044C00002A0FEF7ABF918B1EB7943F02003EB71FEF7C2F95C4BBDF81B2018600020C3E937
:2044E0000159DA6000F0BCFC58498020FEF71EFA0446002800F09F81002000F0B9FC062CB9
:2045000005D105A8FEF7E8F90446002C73D007F079FF204609B0BDE8F08F9DF81900020720
:2045200007D005A9FEF7C2F906280446EDD19DF8153013F0600F0ED19DF816303C4A9DF8EF
:2045400019401278012B00F0B980032B00F0A680002B00F0C6800624D9E79DF8190003A93A
:20456000FEF780F90546002859D09DF80C1005AAFEF798F906280446C7D19DF8152012F06F
:20458000600FC4D12A4B9DF80C101B78D20940F014819DF816200B2AB9D1052B40F0B280A2
:2045A000BDF81730FF2B00F2FC809DF817202846FEF7D0F90446A8E713F0600FC3F3411716
:2045C0009FD1DB0948D19DF81630032B00F09C80092B00F0A880012B93D1BDF81730012B55
:2045E0008FD1FEF71BF9002800F0D980184A137823F00203137033686BB107F00DFF044655
:2046000000287FF4B7AE0AE70E2480E70420FFF72DFE0624AFE607F0EBFE0024ABE6102443
:2046200075E70C4B1B68082B33D007F0E1FEA2E6912B0020180A00205C700240100A00204A
:204640001C0A0020A4870100F8090020E0870100922B0020300100109DF81620062A00F056
:204660008780082A73D0002A7FF44BAF7B497C4B09781A80890744BF02221A7078490DF181
:2046800015000222FFF718FE0446062C7FF43DAF37E7744B1B68002BC7D16BE625073FF526
:2046A0005AAFBDF81730002B7FF455AF052A01D0200727D1204607F0D9FD9CE721073FF522
:2046C0004AAFBDF81730002B7FF445AF052A01D0230717D1204607F0F7FD204608F032F967
:2046E00089E7052A01D027070CD1204607F0CAFD5B49034602220DF115000B80FFF7DCFD9D
:20470000044602E7082402E7BDF81730012B7FF4F8AEFEF783F8002841D0504A137843F00F
:204720000203137067E7504C2378043B012BE9D89DF81730BBB3012B33D1FEF767F92378D6
:20474000052B3FF458AF0520FFF790FD53E7464A1278052A47D0042A7FF4D3AE404B1F7071
:204760003F490DF115000122FFF7A6FD04468CE79DF81830022B3FF471AE032B36D0012B69
:204780007FF4BFAEBDF81B30002B3FF444AF37490DF115001222FFF78FFD044675E70F24C6
:2047A000B5E60724B3E6FEF749F92378042B3FF422AF0420FFF75AFD1DE79DF816705FB3F3
:2047C0000A2F7FF4A4AE052B9CD128460192FEF717F92349019A03460B700DF11500FFF764
:2047E0006BFD044691E61E4A1370B9E7BDF81B30002B3FF410AFBDF819109DF8170000F06E
:204800001DFB014600283FF47CAE0A780DF11500FFF752FD044638E7052B7FF473AF104953
:204820000DF1150002220F80FFF746FD04466CE64FF0090A3CE607F0EFFD802808D10C4BAE
:2048400093E8030086E80300204600F011FBD2E6204600F00DFB102459E600BF922B0020E2
:204860001C0A002034010010912B0020C4870100D887010038B505460C4607F0CDFDA842F0
:2048800007D194E80300044A82E803000023184638BD1023184638BD100A002008B14023B4
:2048A00003600148704700BF1C0A0020F0B40D7A0DB101F109050468002C59D06FF4AB7662
:2048C0003444142C00F24A81142C00F24781DFE814F05400E700EE00F500FC000301090176
:2048E00010011701450145011E0125012C0145013B0033012700390115003F0101250024DC
:20490000002A40F0DB818A8AAB424FEA1222027140F2338140F26D1303600120F0BC704781
:2049200001250024002A40F0CD814A8AAB424FEA1222027140F226816C1C8A8A0271A34217
:2049400040F27B81651CDEE701250024002A40F0B7810A8AAB424FEA1222027140F21781DC
:204960006C1C4A8A0271A34240F26C81651CDCE709240471002B00F0F680002A00F0A481AE
:2049800004791470012B4FF00404047140F2F0800227012694559F422D78057180F08981DD
:2049A0007E1C0024B342D555047140F27D812546771C0024BB429555047140F27081254669
:2049C0007E1CFF24B342D555047140F263812546771C0124BB429555047140F2568125467D
:2049E0003E190124B342D555047140F249812546371900249F429555047180F03C812546F4
:204A00007E1C09249E42D555047180F02F812546771C21249F429555047180F0228126462E
:204A20007C1C09259C42D655057180F015811619013435700E7C0671A34240F20881651C00
:204A400016550E8A9D424FEA1626067180F09F8057196C1C3E708E7C06719C4280F0F28012
:204A6000651C16554E8A9D424FEA1626067180F0898057196C1C3E700E7D0671A34240F26F
:204A8000DC80651C1655898A9D424FEA1121017173D22A44117040F26D13036001203DE771
:204AA000002A00F0B38004790127002672E7002A00F0A58005790126002772E7002A00F007
:204AC000978005790127002673E7002A00F0898005790126002774E7002A5DD00579012752
:204AE000002676E7002A00F09E8005790126002777E7002A00F0958005790127002678E777
:204B0000002A00F08C8005790126002779E7002A00F083800579012700267AE7002A00F0DF
:204B20008A800679012400277BE7002A00F081800579164601247CE7002A78D00679174673
:204B4000012487E7002A70D006791746012492E7002A3FF4DFAE017911709CE700230360F0
:204B60001846F0BC704740F2571303600120F8E74FF4AC7303600120F3E740F26B130360A2
:204B80000120EEE740F2691303600120E9E740F2671303600120E4E701240122A342027182
:204BA00073D914440122A342027169D9144400229C4202715FD2013409229C42027155D2C0
:204BC000013421229C4202714BD2013409229C42027141D201340A8A0271A34237D9651C79
:204BE000B7E60124FF229C42027153D20134D4E701240022A342027151D90134F2E7012470
:204C00000022A34202714FD90134F2E701242A780271A3424DD90134F2E70124D1E701248F
:204C2000CAE70124C3E70124BCE7012485E6012497E60124CFE70124C8E74FF4B57303607D
:204C400001208EE74FF4B4730360012089E74FF4B3730360012084E74FF4B273036001201C
:204C60007FE740F26313036001207AE74FF4B1730360012075E740F25F130360012070E77B
:204C80004FF4AF73036001206BE740F25D130360012066E74FF4AE730360012061E740F204
:204CA0005B13036001205CE74FF4AD730360012057E740F259130360012052E70679E1E6F9
:204CC0000679BDE60679CCE60422012B02717FF64FAF02249BE700BF0B780E2B0BD8DFE87C
:204CE00003F0080808080A0C080A0A0A0A08080808000020704706207047F0B54B78DA093C
:204D000085B00C46064611D15B09012B02D0062005B0F0BD8C78002CF9D102681373036A9D
:204D2000002B3AD0214698472046F1E713F0600FC3F3411215D0012AE9D18B78072B07D069
:204D4000082BE4D1F268481CB169FFF7B5FADFE7B1F80720182ADAD1C169601CFFF7ACFA29
:204D6000D6E703F01F03012BD1D18D78062DCED103A80292FFF792FD02AA00920746E27813
:204D8000217930463B46FDF7A5FB0528BFD0029A3946601CFFF790FABAE71846B8E700BFBE
:204DA00070B54FF0805286B0D2F8A830D2F8A42000926FEA83436FEA93430B4A0B4E9BB27C
:204DC00002A80D210CF0C8FB02AD002404E015F8013B06F8013B013402A812F08AFF8442D2
:204DE000F5D306B070BD00BFFC870100B82B002038B5114B53F8204023780BB9A01C38BDBE
:204E00000020FFF74BFD217891B12246C4F101055319DCB2234620F8141012F8011F002944
:204E2000F6D101335B00DBB243F44073038038BD40F20233FAE700BF6488010040B105281B
:204E400008D8054A105C28B1044B53F820300BB1FFF7CEBF002070477C88010064880100EC
:204E600072B6024A13680133136070475C0A0020034A1368013B136003B962B6704700BF9E
:204E80005C0A002010B50446006830B1002108F0BDFA54F8040F0028F8D110BD2DE9F043FE
:204EA000038883B0044643B1B3F5867F0CD1822910D0012003B0BDE8F0834FF48673012098
:204EC000238003B0BDE8F08300230380032003B0BDE8F08304F00EF8BFF35F8F19491A4B6F
:204EE0000E6800220A601F781A70FFB2BFF35F8F164D04F003F828680028DED0DFF85090CF
:204F0000DFF8508003E055F8040F0028D5D090F84A3026FA03F3DA07F5D590F8493047FAD5
:204F200003F3DB07EFD503F0F5FA0028EBD02B68D9F80020009218464246022103F088FA7C
:204F4000E1E700BF700A0020932B002060000020F82C0020F54F000010B50C4A90F84B302C
:204F6000126882B001330092044680F84B30084A03468021203003F06BFA064B1978224654
:204F8000002002B0BDE8104008F0CABAF82C0020594F00000D36002010B4094A094C136898
:204FA0001943116021780346012202FA03F30B43DBB2237004485DF8044B08F0DFBA00BF7F
:204FC000700A0020932B00206800002010B5044690F84A1090F8490003F04EFF10B994F87A
:204FE000480010BD01280ABF94F84800002080F0010010BD70B582B0044603F08BFA08B99E
:2050000002B070BD04F12006304603F083FA05462046FFF7DBFF01280FD00028F0D1002D11
:20502000EED1304603F05CFA0D4B22462846197802B0BDE8704008F073BA002DE0D0094BD6
:20504000094A1B68009300253046234684F84B507E2103F0FDF9054B28462246E7E700BF91
:205060000C360020F82C0020594F00000E360020F8B508F0C3F9304B304C187008F0BEF9EF
:205080002F4B304F187008F0B9F92F4922682F4B08700025FF2139727B60FD60002A42D08D
:2050A0002B4E09E091F84A00F9683A72834054F8042F0B43FB60B2B392F84A3092F8491077
:2050C000526C03F01F0343EA41131F2BC6BF03F01F0331464FF0A04103F5E07342F08C02F6
:2050E00041F82350236893F84A1093F8490003F081FE226892F84A3092F8490003F01F03D8
:2051000043EA4010012105F0DDFB2168387A91F8492082424FF00103C4D0FF28C2D054F856
:20512000042F002AC8D10B48002108F06FF9BDE8F840044803F0B4BE0E3600206000002033
:205140000C360020600A00200D360020994F0000000300506800002070B4421EC11C0020BC
:2051600012F8013FA3F13004E5B2092DA3F1410604D8204491420AD00001F1E7052EA3F1E8
:205180006104A3F1370504D891422844F4D170BC7047052C02D8573B1844EBE70020F6E74F
:2051A000D8B10268D2B110B4D0E90143A3420CD2591E0A4403E001339C42836008D012F876
:2051C000011F2029F7D99C4202D05DF8044B7047013C84605DF8044B70477047104670474B
:2051E00050B138B50446006828B1A568284412F080FD2844A06038BD704700BF70B50446F8
:2052000000B30668CEB14368CBB900291ADBA268013111448B4218D223699BB9B1F1804F08
:2052200016D2236A4D00D3B1304629469847064618B3A368C4E900651E44304670BD826841
:205240009342E2D80026304670BD1644304670BD0029F7DB236A6FF00045002BE4D1A369E1
:2052600028469847064640B1A2682168013212F0C1FCE36920689847DBE7E36920689847F7
:20528000C4E90066D9E700BFF8B5002838D00E46002937D084682ABB14B3DFF86CC0226AF4
:2052A000DAB1B2421CD0013A771E00E0C0B117F8010F1CF8003003F00303012B12F8013F90
:2052C0001CF8035005F003050CBF00F120010146012D08BF20339942E8D02468002CDED104
:2052E0002046F8BD002CFBD0216A304629B112F0F6FC0028F4D02468F4E70C462046F8BD0D
:205300000446EDE70C46EBE7299701002DE9F04F16689368F45C9046222C03F1010281468A
:2053200083B006EB020506EB03001AD1D8F80470BA4216D28A462C46002203E00134A31B01
:20534000BB420ED22378222B15D05C2BF6D10134A31BBB4205D20134A31BBB4202F10102A8
:20536000F0D325B1D8F80000281AC8F80800002003B0BDE8F08F231AC2F101001844D8F8A6
:205380001030984707460028EBD0A54280F09980DFF890B13A4605E002F8013B0135A5427E
:2053A00080F090802B785C2BF6D1611B00291ADD6E78752E17D85B2E38D9A6F15C03192B94
:2053C00011D8DFE803F03710101010102D1010102710101010101010211010101B10150D11
:2053E000052901922BDCD8F8143038469847B9E7092302F8013B02231D44D0E70D2302F80B
:20540000013B02231D44CAE70A2302F8013B02231D44C4E70C2302F8013B02231D44BEE7F5
:20542000082302F8013B02231D44B8E7222E01D02F2ED8D1022302F8016B1D44AFE7A81C79
:20544000FFF78AFEA0F55C43B3F5806F0646CAD3A0F55843B3F5806F019A42D2AB1DE31ADF
:20546000052BC0DDAB795C2BBDD1EB79752BBAD105F10800FFF770FEA0F55C43B3F5806F6A
:20548000B1D20BEA8626C0F309003043019A00F580360C234FF0040E4FF0F00C0320104441
:2054A00006F03F0161F07F0100F8011990424FEA9616F5D14CEA0606F6B216701D447244CF
:2054C0006DE73A46102300211170C9F80030CAF80070D8F80030E31A0133C8F808300120B6
:2054E00046E77F2804D8C6B206234FF0010EE4E7B0F5006F06D206234FF0020E4FF0C00CD3
:205500000120CCE7B0F5803F06D206234FF0030E4FF0E00C0220C2E7B0F5881FBFF463AFFB
:205520000623B7E700FC0F0083683BB15B681BB119604B6083685960012070478160C1E908
:2055400000310120704700BF10B5034628209847044618B12822002112F074FB204610BD2C
:20556000002900F0BD802DE9F04706460846002E00F090803478002C00F098805B4D3246C0
:205580004FF0000901270FE0A4F10803DBB2072C07FA03F301D92B420AD11F2C98BF09F197
:2055A000050912F8014F4CB1222CEDD95C2CF8D112F8014F09F10109002CF5D1971B07EB2D
:2055C0000905E91CFFF71AFE804600285BD0B9F1000F00F087800446222304F8013B33786F
:2055E000A3B3DFF810A15C274FF0740909E0222B09D05C2B07D02370204616F8013F441C7A
:2056000023B31F2BF3D8204600F8017B3278222A3CD8072A32D9A2F108031A2B2ED8DFE8CF
:2056200003F02A27242D211E2D2D2D2D2D2D2D2D2D2D2D2D2D2D2D2D2D2D2D2D0E002223BF
:20564000637016F8013F441C002BDAD108EB0504222200236270A3700120BDE8F0877223D9
:205660006370CAE766236370C7E76E236370C4E784F80190C1E762236370BEE751460BF049
:2056800093FF601DB9E70020BDE8F0875C2AF5D16270B2E70321FFF7B1FD0028F3D0144B56
:2056A0001A889B78028083700120EDE70321FFF7A5FD80460028E6D0254602274FF001098E
:2056C0004046222400F8014B2A46314612F092FA002308F8094008F807300120BDE8F08765
:2056E0000020704707F101090237E9E737000004B0880100B48801002DE9F04D047B202CF9
:205700008EB080468A4625DC74B3631E1F2B2AD8DFE813F0770084002900950029002900EB
:2057200029009E002900290029002900290029002900EF002900290029002900290029009E
:205740002900290029002900290029002900290029002E00402C00F0F880802C03D10069ED
:20576000002840F0CE80002420460EB0BDE8F08D0029F8D001215046D8F80840FFF73EFD27
:205780000028F0D05B230370DAE9022301320133CAE90223002C00F0C6802C2620270025E9
:2057A0000AE001300570DAF808304344CAF808302468002C00F0B78051462046FFF79CFF61
:2057C00003465046002BCED0FFF70AFD23685046002B00F0A880DAF81430002B15BF032187
:2057E00002214FF002084FF00108FFF707FD0028B9D00670DAF81430002BD2D04770023008
:20580000D0E708460621FFF7F9FC03460028AAD0BB4A1068928818609A80A5E7084605215D
:20582000FFF7ECFC034600289DD0B64A106812791860012420461A710EB0BDE8F08D0846ED
:205840000521FFF7DBFC034600288CD0AE4AEDE7002300200021CDE90401CDE90733CDE9F7
:205860000A33D8E9064509930C93ADF83430BAF1000F3FF478AF22462B462046294611F0D8
:2058800097FFB0B925F00047A04B204639464FF0FF32264611F08CFF002840F0F7809B4BC0
:2058A0004FF0FF322046394611F064FF002840F0ED80954B93E80300042407908DF8201098
:2058C000611C5046FFF79AFC00283FF44CAF0DF11C0B02191BF8013B037001309042F9D104
:2058E00000230370DAF808301C44CAF8084001243AE70069FFF734FE044620460EB0BDE8B4
:20590000F08D12F0F6F9421C114650460092FFF775FC00283FF427AF009AD8F8101012F018
:2059200069F9012420E702215046FFF767FC00283FF419AF5D22002302704370DAF80C30CF
:20594000013BCAF80C3001240EE700293FF40BAF4B698468002B14BF03210221504614BF8F
:2059600002250125FFF74AFC00283FF4FCAE7B230370DAF80C20DAF814300132CAF80C2053
:20598000002B40F09680DAF808201544CAF80850002C00F00F8109253A262C27002B40F041
:2059A0009580206A5146FFF7DBFD00283FF4DBAE5046FFF715FCDAF81430002B14BF4FF00F
:2059C00002084FF0010841465046FFF717FC00283FF4C9AE0670DAF8143003B14570DAF8B6
:2059E00008304344CAF8083051462046FFF784FE00283FF4B8AE5046FFF7F2FB2368DAF8E2
:205A00001420003B18BF0123002A0CBF984603F1010808F101015046FFF7F0FB00283FF47F
:205A2000A2AE23680BB100F8017BDAF8143013B10A2300F8013B00230370DAF808304344F9
:205A4000CAF808302468DAF81430002CA6D1002B00F0B080DAF80C1001315046FFF7CEFB47
:205A600000283FF480AEDAF814306BB1DAF80C30012B09D00022092100F8011BDAF80C30EA
:205A80000132013B9A42F7D37D2254E7D8F81480404611F089FB02460B462046294611F039
:205AA00055FEB8B31A49424607A80BF07DFD044606E70A234370DAF80820DAF81430154499
:205AC000CAF80850002C7FF466AFC0E7DAF80C105046FFF793FB00283FF445AEDAF80C20FD
:205AE0003AB1002300F8015BDAF80C2001339342F8D3DAF808301A44CAF8082051E700BF29
:205B0000C4880100CC880100BC880100FFFFEF7FD48801000DF11C0B274922462B465846C9
:205B20000BF042FD2549804604AA58460FF0E8F9012829D19DED047B8DED027BDDE90212CE
:205B400022F0004300910193DDE900233046394611F006FE08B9CDE9006722462B46DDE96B
:205B6000020111F0D3F90B46064623F000470022134BDDE9000111F081FB02460B4630468B
:205B8000394611F0F7FD30B90E4922462B4658460BF00AFD80464446192C3FF6E4AD611C00
:205BA0005046FFF72BFB00283FF4DDAD002C3FF497AE8EE6022150E7D8880100E088010012
:205BC0000000B03CE4880100F0B5274C8BB00E4624220021054601A812F034F823684FF46E
:205BE00080709847034694E8070006960AAF4FF4807607E9070001930296CBB1ADB101A9D5
:205C00002846FFF779FD70B1019E56B3039D701912F06FF828440390A7686FB1411C30464E
:205C2000B847054628B9019B13B1626818469047002528460BB0F0BD2368013098470546F9
:205C40000028F0D0DDE9022301339A4228BF1A46019911F0CFFF039BEF540198636898478D
:205C6000E7E70398D8E700BF7800002030B5044683B080B112F03DF8084B421C1B68019214
:205C800010469847054618B1019A214611F0B2FF284603B030BD0546FAE700BF7800002076
:205CA00030B3F8B50F46B9B11446AAB19042054612D09BB1D36843F400769B0504D4206AAB
:205CC00010B10C4B5B6898472762E66021462846BDE8F840FFF728BC0020F8BD0846FFF796
:205CE000C5FF07460028F7D0E36823F40076E4E7002070477800002058B32DE9F041154FDC
:205D000005464FF000082C462D68E268D10516460ED4A06828B1FFF7EFFFE268D305164649
:205D200006D4206998B17B689847E668C4F8108016F4007604D1206A10B17B689847266271
:205D40007B6820469847002DDDD1BDE8F0811646EEE77047780000202DE9F0433D4E0027AF
:205D600089B0CDE90377C6E90077054650B10C46904661B9B8F1000F02D02B19C8F8003048
:205D8000C6E900540024204609B0BDE8F0839946314B019093E8070008AB029403E90700FB
:205DA000FFF7D2FB0446002833D0019888B1039B002B47D1029B042B35D90378EF2B32D186
:205DC0004378BB2B2FD18378BF2B2CD10323039301A8FFF7E5F901462046FBF761FAA8B1B4
:205DE000B9F1000F0BD1B8F1000FCCD0019B039A20461344C8F8003009B0BDE8F08301A85A
:205E0000FFF7CEF9DDE90223934216D32046FFF773FFDDE902349C42ACD3ABB15C1EB8F176
:205E2000000FAAD1ACE701A8FFF7BAF901462046FBF736FA0028D3D1E8E7019AD35C002B94
:205E4000D1D0E3E73846C4E71C46B8F1000F94D196E700BF740A00207800002068B170B57F
:205E60000D461646044611F044FF33462A46411C2046BDE87040FFF76FBF70470022114690
:205E8000FFF7ECBF0121FFF79FBE00BF0122FFF7FBB900BF30B583B005460191FBF7BCFB03
:205EA00004460199284622460023FFF7F9FE10B1204603B030BD05462046FFF71DFF2C461C
:205EC000204603B030BD00BF08B5044B1868FFF73BFB08B14023C36008BD00BF78000020EA
:205EE00028B1007BA0F11000B0FA80F04009704730B5174B83B000221A6004F0A3FA00BB31
:205F0000002004F0BBFA134B134A93E80300FF250090ADF80410062400231048ADF8005078
:205F200069468DF802408DF8043004F041FF58B901210A4804F090FF084804F081FF03B07F
:205F400030BDFCF75FFADBE7FCF75CFAF0E700BF7C0A0020EC8801008D5F0000F4880100E3
:205F6000014B1868704700BF7C0A002008B5064A13680133136002F0D9FB00B908BDBDE821
:205F8000084002F0B9BB00BF7C0A0020042800D07047FFF7EBBF00BF014B1868C009704790
:205FA0007C0A00204160806A07F0E8BAF0B5858C83B0044617461E464DB36A2D22D18229EE
:205FC0004AD14568002D62D00023009304F1180204F11401284601F017FED4E90431227EC5
:205FE000101E18BF0120994284F8200046D0637E0133DBB26376002A3AD0032B0ED9042303
:2060000084F820300023A384032003B0F0BD244B4560C0E904551B680583836201F018FADE
:206020003946308100F056FF2060F0B11D4BC36323681C64216991B921683046463101F0F6
:206040001DFA2368A3F84400206800F05DFF6A230120A38403B0F0BD012003B0F0BD4023D2
:206060000022304601F0E8FDE6E7A0840220CCE7032BC4D8022384F82030C3E7089B60681C
:2060800098472169227E637E01312161B3E7032380F820302846089B9847A5840220B4E704
:2060A000F82C0020A55F000010B5846882B01CB194F90830002B01DB02B010BD236A002BE5
:2060C000FAD01A68002AF7D00749097831B11B6A23B101909847236A01981A68002302B08A
:2060E000BDE8104000F084BE942B00202DE9F047124C82B02468DDF828A08CB106460F46B6
:2061000091469846656843464A463946304625B1CDF800A0A847054638B92468002CF1D10F
:206120000025284602B0BDE8F087B379012BF8D13A463146002000F06BFCF2E7800A0020EC
:206140002DE9F04F2DED028BA64CA74E8BB005462046029101F00CFBC4F8A0500346307050
:2061600008BBA279013A032A5AD9636823F07F4323F0FF03002B50D06379032B00F02D81FE
:20618000208900F029FF48B1D0E90F8900F020FFB8F1000F02D093494846C0476379012BE2
:2061A0006FD933784BB34FF00008C22B2BD0DFF85492404600F00CFF3278C32A6ED0BF2AC3
:2061C00084BFA022327002212389864801F048F9D9F800100391084611F08BFD0399024619
:2061E000804801F053FD02997E4801F047F9029982B2284601F008F8337818460BB0BDEC69
:20620000028BBDE8F08F404600F0E2FE337818460BB0BDEC028BBDE8F08FC3233370AFE73A
:2062200003902946208900F055FE8046002850D0039B62790893CDE906334023ADF8163011
:20624000002A3DD1238969484522022101F008F9A27A002A40F0BC8007AB009361480DF18F
:206260001603002206A901F0CFFCF8B9089B002B37DADFF890915E4BC9F80030822333700E
:2062800097E7E37CC3F380185B060BD55549284600F080FA3378002BAFD084E70022327098
:2062A000032191E73378002BA7D07EE7BDF81620079B0893402A28BF4022ADF81620D6E71D
:2062C00001F0C6F8452203460121484801F0C8F8BEE7DFF83091474BC9F80030A3233370D3
:2062E00067E7BDF8163041493E4808AF08F18402009708EE903A08EE102AFFF7F7FE034654
:2063000000284CD13748099309A901F04DFC3A4BD3F800908246B9F1000F76D0099B9B4605
:206320002B464D4699460AE006DD2A7AD30603D51BF800202F2A08D02D68002D64D06F6827
:20634000384611F0D6FC8245EED102465946384611F0D7FC0028EFD1A2794B46511EA9463B
:20636000012A1D464FF0010303FA01F300F0BE80990740F1A680D9F814A0BAF1000F00F007
:20638000A08008AB1748009318EE102A18EE903A1649D04799F80830580600F1BD803378B2
:2063A000002B7FF402AFA37D190756D5DFF83C9099F90630002B50DB99F816301A074CD44A
:2063C000DFF840900D4BC9F80030A1233370F0E60B49064801F0C2FB3EE72189284600F013
:2063E000F7FACDE6880A0020972B0020340B0020FC8801001C890100840A00200C89010097
:20640000930A0020EC0000204D465948842101F09FFB5748842101F09BFB3378002B7FF43B
:20642000C4AE534808F1460101F028F880B2A8F8440020B9C123DFF844913370B9E6337892
:20644000002B7FF4B2AE404600F05EFD337818460BB0BDEC028BBDE8F08F637D089AD911E3
:2064600015D1002ADDD0DFF80891013218BF01224846402301F0E0FBB9F8A420D9F8A81007
:20648000402A28BF4022484601F000FCC5E7079B9A4232D00132069944D0BDF81630DFF8EA
:2064A000D0900122324801F0C7FBBDF81620B9F8A4309342B1D9D9F8A8102D4801F0E6FB8D
:2064C000ABE75A0705D5D9F818A0BAF1000F7FF458AF1F0705D5D9F81CA0BAF1000F7FF478
:2064E00050AF8521224801F033FB92E7D9F810A0BAF1000F7FF445AF3AE7DFF87490B9F8A6
:20650000A400824219D382231A4989F8063048460F2201F0BBFB80E7154A1749484600F05E
:2065200077FA3CE7DFF84890BDF81630B9F8A4209A4294BF00220122B4E7BDF816300699FF
:20654000821A9A4294BF00220122484601F074FB0798B9F8A430BDF81620D9F8A8101B1A70
:206560009A42014428BF1A46484601F08FFB54E7340B0020FC880100880A0020EC000020CD
:2065800010B50446416001460C4802F0CFFE94F90830002B00DB10BD206A0028FBD0036A6F
:2065A000002BF8D00268002AF5D0054BC0E903340830BDE81040002300F01ABC840A00209B
:2065C000A960000038B50A4A137803B138BD094C094D236009490A482B6001241470FFF741
:2065E000CFFF00F00BFEBDE8384000F029BF00BF942B0020800A0020840A00202C89010033
:206600009C000020014B1868704700BF840A002000B10068704700BF70B50C4D064613461C
:206620000C4600223146284600F01AFF00F0E0FD0146284600F022FF054600F0D9FDAAB2F8
:2066400001462046BDE8704000F0DEBDB80C002000B583B001460190044802F0DDFF019955
:20666000034803B05DF804EB02F0ACBE84000020E00B002070B50B46C56A0446C1B18A7969
:20668000413A3E2A12D8CA7C520605D595B12B460022BDE870401847022215B11946204679
:2066A000A8472046BDE87040FFF7D2BF0322F4E70422F2E770BD00BF70B50A4B1C687CB193
:2066C00006460D4601E0246854B1237FAB42FAD12A46314604F11D0011F07EFA0028F2D1F2
:2066E000204670BDE00B00202DE9F041134B1C68FCB106460F464FF000083146201D00F09A
:20670000DBFC80B1A569BD42284607D011F0F1FA39460246284611F05FFA20B92046FFF76F
:2067200097FF08F101082468002CE6D14046BDE8F081A0464046BDE8F08100BFE00B00206A
:206740002DE9F0410F4619461D4616468046FFF7CBFF0E4802F044FF044698B1856141466E
:20676000043000F099FC39462677324604F11D0011F040FA069BE362079B0548A36221463E
:2067800002F0D4FD2046BDE8F08100BF84000020E00B002070B50C46897A82B009B902B02C
:2067A00070BD054604F10B00FFF786FF064628B36379DBB1F56A002DF1D0A379413B3E2B09
:2067C0001AD8E37C5B060BD501A9204601F00AFA019B326B9A42E2D0F56A3363012200E063
:2067E000022221463046A84702B070BD228929460220FFF711FFDDE70322F2E722892946AC
:206800000320FFF709FFCAE72DE9F047AEB00E4605469046994600F01BFE01220346002111
:2068200003A800F01DFE204F314603A801F0C6F9002103A801F0E0F93C78BDF81400013419
:20684000E4B229464FF0010A3C708DF817408DF816A000F03FFB0446D0B12846CDE9008984
:20686000334652463946FFF76BFF0546A8B10F4B2064E36304F1460103A800F0FFFDA4F8F1
:206880004400204600F040FB28462EB0BDE8F087054628462EB0BDE8F087204600F098FB1F
:2068A00028462EB0BDE8F087952B00207566000000B583B001460190044802F0ADFE019972
:2068C000034803B05DF804EB02F07CBD90000020640D002070B50D4B1C68A4B10546002643
:2068E00001E024686CB1294604F1180000F0E4FB0028F6D02046FFF7DBFF24680136002CB0
:20690000F1D1304670BD2646304670BD640D00202DE9F041164B1C682CB305460F4616466B
:206920004FF0000801E02468D4B1294604F1180000F0C2FB0028F6D094F82C30B342F2D167
:206940003246394604F12D0011F046F90028EAD12046FFF7ADFF246808F10108002CE4D184
:206960004046BDE8F081A0464046BDE8F08100BF640D00202DE9F041144B1C680CB3064674
:206980000F464FF00008251D314604F1180016B100F092FB78B1BD42284607D011F0A9F941
:2069A00039460246284611F017F920B92046FFF77FFF08F101082468002CE4D14046BDE844
:2069C000F081A0464046BDE8F08100BF640D0020F8B50E4B1C68ACB105460E460027294658
:2069E00004F1180000F068FB10B1E38EB34204D02468002CF3D13846F8BD2046FFF758FFDA
:206A00000137F5E727463846F8BD00BF640D00208B79012B00D070472DE9F04792F90630AD
:206A2000002B82B0154650DBCB7C5B060C464CD5D1F8A070002F48D04B6E4BB1012B44D142
:206A40008A7A38460B3102B0BDE8F047FFF760BF096E0191384694F80AA0D4F85C80FFF77A
:206A600089FF204802F0BCFD064688B3B8F1120FC146C4BF4FF01308C146B1444246019928
:206A80004FF00008043011F0B5F8394606F1180089F8048000F000FB524604F10B0186F838
:206AA0002CA006F12D0011F0A5F80F48A6F83680314602F03BFCB16B4B1CB363284601F005
:206AC0009BF8B36B23F07F43B36302B0BDE8F0870649A32328461022AB7102B0BDE8F047ED
:206AE00001F0D4B890000020640D0020408901002DE9F04F2DED028B83B008EE101ADDF8EA
:206B0000389001929846FFF77DFD002800F0B6800025D9F800B006462C46A34508D84545C8
:206B200012D2019B4FF03C025A55D9F800B00135631C5B4508D3454506D2019B4FF02F028A
:206B40005A55D9F800B00135D6F804A0504611F0D0F8023427185F4558D801D145456DD319
:206B6000D6F80CB07C1CBBF1000F17D09BF80030A3B1D9F800A0A24509D8454507D2019A03
:206B80003B235355D6F80CB0D9F800A00135584611F0AFF802373C18544512D8454504D901
:206BA000D9F80030621B9A4271D83046FFF730FD0646002847D0DCB9D9F800B0A345B7D881
:206BC000ADE70198384AAAEB070308F10101002BACBF5B440BF10003491B28440AF0BCFCB6
:206BE0000544454553D83046FFF712FD0646B8B3D9F800B0A34507D8454505D2019A2C23D2
:206C00005355D9F800B00135013486E70198264AABEB040B08F10101BBF1000FACBF0AEBAF
:206C20000B030AF10003491B28440AF095FC0544454508D2D9F800309F4291D3019A3E23FE
:206C4000535501358CE715BB5CB9BEB1D9F800304344C9F8003003B0BDEC028BBDE8F08F09
:206C6000ADB9822118EE100A00F072FF18EE100A0E490F2201F00AF8002EE7D14FF0FF3398
:206C8000C9F8003003B0BDEC028BBDE8F08F019918EE100A2A4600F0F9FF18EE100A28217B
:206CA00000F068FFD1E700BF54890100FC880100014806F063BC00BFC00000202DE9304818
:206CC000FFF74EF90E4B1A68821A04D10D4BD3E90001BDE830880B4C18604FF47A71A2FB1F
:206CE00001BCD4E900254FEADB1040EA4C6080184FEADC1145EB0101C4E90001BDE8308800
:206D00006C0D0020000600200148002106F07EBBC0000020074B0848084A1B6810B40021DF
:206D200001240470116013B15DF8044B18475DF8044B704774890100962B0020800D00209B
:206D40002DE9F0471E4B1B7882B0054643B3DFF874A029465046DAF8007002F033FBDAF853
:206D6000001019B3D5E90489002603E00C680E46F4B12146D1E90423994508BF9045F5D2ED
:206D80002A461048314602F041FBDAF80050AF4209D00D4B9B68019302B0BDE8F0471847BE
:206DA000FFF7B8FFD3E702B0BDE8F087002DEED02A46044802F02AFBDAF80050E7E700BF31
:206DC000962B0020800D002074890100064B10B55B6804469847C4E9040121460348BDE81C
:206DE000104002F0EFBA00BF74890100800D0020084970B5496805461E4614468847241803
:206E000046EB0101C5E904412846BDE87040FFF797BF00BF7489010038B50B4B1C687CB18C
:206E20000A4B5B689847D4E90445A94208BFA04202D30020014638BD201A65EB010138BD0F
:206E40004EF66020002138BD800D002074890100F8B5134F134E7C68A04735683DB102469F
:206E60000B46D5E904018B4208BF824201D20020F8BD2946304602F0A5FA6B680BB128468B
:206E80009847BB6898473368002BF0D0D3E90467A047B94208BFB0422CBF01200020F8BDE8
:206EA00074890100800D002000B583B0014608300191FFF78BFF0199044802F083FA0199BF
:206EC000034803B05DF804EB02F0A6BB840D0020D000002070B5064609480D4602F080FBFA
:206EE000044658B10023868080F824302946263000F0D2F80348214602F018FA204670BD82
:206F0000D0000020840D00202DE9F04190F8463013F0300F0446C3F3011526D190F8243060
:206F2000042B13D8B0F8442000F14601263000F06BF994F8243023B3226A5200226204F13C
:206F400008000023BDE8F041FFF752BFD0E90F672630FFF7BFFC2046FFF7A6FF46B329468A
:206F600038463346BDE8F0411847B0F8442000F14601263000F048F92046BDE8F041FFF7E8
:206F800093BF0C4BC4E9033406F080FB0A4BA3FB00239B0A40F2DD5202FB130202F6B832E3
:206FA000226204F108000023BDE8F041FFF720BFBDE8F081BD6F0000B76FA5AE806830B1FE
:206FC00090F82430013380F82430FFF79DBF704708B1FFF769BF7047044B02E09A88824227
:206FE00002D01B68002BF9D118467047840D0020F8B50288044662B140F2B9139A4217D12B
:207000001D4B1B788B4217D040F2B91323800120F8BD114610460BF0BBF9184B186038B328
:2070200043F21633038240F2B91323800120EFE7002303800320F8BD114B1B789B07E3D5EE
:20704000104E114F114DB7F800C0114F96E80F00203685E80F003CF806C00E4E3A88316835
:20706000A5F810C000232846AB74FFF769F8CBE720800220F8BD00BF13360020A00D00207E
:20708000F4340020FC2F00208A2B00208C0D0020E42F0020FC3400208B684A6830B40C684F
:2070A000CD68C5600460426083600B8A03828B7C837430BC704700BF38B5102205460C4657
:2070C00010F08AFD58B92A8A238A9A4200D038BDA87CA37CC01AB0FA80F0400938BD002081
:2070E00038BD00BF2DE9F0470C1E8AB08046174636DD0346002502E00135AC4230D09946A2
:2071000013F8012B5B2AF7D1AC4229DD08EB05032E46B2460136B44222D013F8012F5D2AAF
:20712000F7D131490622404610F0EBFDB0FA80F04009AE42B8741CDD484639460DF082F87B
:20714000B8B10AF1020A08EB0A0018F80A303A2B2CD0BB7C1BB343F216433B8201200BE0BB
:2071600021490622404610F0CCFDB0FA80F35B09BB74272C03D900200AB0BDE8F0874146D2
:207180002246684610F036FD0AAB1C4468460023394604F8283C0DF055F80028ECD043F27E
:2071A000163301203B820AB0BDE8F087023CA61BCFD00022114604E001318E4203EB4C0299
:2071C00009D010F8013F303BDDB2092D02EB820CF2D90029BDD0054BC2F3072103EA022323
:2071E0000B433B820120C7E78089010000FFFF00014B1868704700BFFC34002001480021B1
:2072000006F004B9DC00002070B582B0B8B11446028848F2FE039A420E46054603D00A4B3D
:207220005B6A984758B1094A2B8A10680093314622462B460CF0E0FA204602B070BD4FF0E4
:20724000FF34204602B070BD288F0100A00D00200C2830B440D9B0F5867F94BF6FF02F0471
:207260006FF01F040C2935D9B1F5867F94BF0D230E232343B0F5867F137016D96FF486750A
:2072800043191B0A0D385370907002230320B1F5867F15D96FF486740C19D518240A0D39A1
:2072A0001454A970D81C30BC70470C280FD90D38B1F5867F50704FF001034FF00200E9D8A5
:2072C0000C29F0D90D39115430BC0130704701200023DCE74BB2CCE703015CB2C2E700BF00
:2072E0002DE9F0411E0C13F07F474FEA06461C4615460B4614BF01210021CEB1013124F0E6
:20730000FF080231C01A2A46FFF7A2FFCFB1230E2B54421C1EB3230CAB540230B8F1000FDB
:2073200002D0230A2B5401302C540130BDE8F08134F0FF08E5D14CB9BDE8F041C01AFFF74B
:2073400087BF6EB1230C2B540130EAE70131C01AFFF77EFF002FDAD1002CE7D0E4E71046BB
:20736000B8F1000FDDD1002CE0D0DDE7F8B50E689DF818700C461D4616B902602360F8BDA9
:2073800003689F550B6801330B600068114618442A4610F03DFC23682B442360F8BD00BFC7
:2073A000F8B5069D401A29461F46FFF751FF3946044610182A4610F01DFC2819F8BD00BFDA
:2073C0002DE9F04F83B092460C9A9DF83440019401320024984683469946009227462546C2
:2073E0008E4604E0009B01349C42274623D818F807C0019B08EB0706A6EB09069C450AEBD6
:207400000502ABEB0E00314602D00C9BBB42E9D1FFF71EFF054449460AEB0500324610F0BD
:20742000E9FB0134009B08EB040901349C423544DE462746DBD9284603B0BDE8F08F00BFC3
:2074400008B506F023F9014B188008BD7C2B0020024B1888013080B2188070477C2B002087
:20746000F8B504460F4616461D46AC22002110F0E9FB6771A6712581F8BD00BFF0B501225D
:207480000023016002710B7002680F461378017943EA811313700268437911781B0103F0B4
:2074A00030030B4313700268837A117803F00F030B431370036882795A70038902681B0AB7
:2074C000937003680289DA70837983B00446002B00F040810368827A1D1D62B16FF00301FD
:2074E000C91A00F10B0313F8012B05F8012BA67A6A189642F7D8E37C9807C3F340010CD52B
:2075000094F86A3000932A4604F16B0300210120FFF746FFE37C054401211A0709D5236C0A
:207520000093636C2A460320FFF73AFFE37C05440321DE060BD594F8243000932A4604F1BF
:2075400025030420FFF72CFFE37C05440421980607D500232A460520FFF7C2FEE37C054461
:2075600005215A0607D5636E2A460620FFF7B8FEE37C05440621DB0907D02A46B4F8503070
:207580000720FFF7ADFE07210544237DDE070BD5A36C2F22CDE900320820E36C2A46FFF728
:2075A0000FFF237D0544082118070BD5E36D2F22CDE900320B20236E2A46FFF701FF237D61
:2075C00005440B21DA0607D5A38B2A460C20FFF787FE237D05440C215E0607D5236A2A46E2
:2075E0000E20FFF77DFE237D05440E21DB090CD0D4F894302622CDE900320F202A46D4F8E9
:207600009830FFF7DDFE0F210544637D980708D5B4F868302A461120FFF762FE637D054498
:207620001121DA060BD5636D2622CDE900321420A36D2A46FFF7C4FE637D05441421DB09AA
:207640001AD0636F94F878201B01002A40F08580B4F87A2000201209461C52088446B0B266
:20766000FAD118B10CF00F0C43EA0C032A461720FFF736FE17210544A37D1E071BD5D4F8D0
:20768000803094F884201B01002A69D1B4F8862000201209461C52088446B0B2FAD118B181
:2076A0000CF00F0C43EA0C032A461B20FFF718FEA37D05441B21D80607D52A46D4F88C3069
:2076C0001C20FFF70DFE1C210544E37D1A0709D5236B0093636B2A462320FFF761FEE37D31
:2076E00005442321DB0908D0A36B00932A46E36B2720FFF755FE27210544A37EDB0611D4DA
:207700002368EB1A3E2B18DCB4F8A420E2B9D4F8A810284610F07CFAB4F8A400ED1B284445
:2077200003B0F0BDD4F890302A463C20FFF7D8FD23680544EB1A3E2BE6DD0B4B0B4A0020F6
:2077400020601A6003B0F0BDFF2305F8013BB4F8A420DCE7042003B0F0BD43F0080377E721
:2077600043F0080392E700BFEC00002094890100032A40F2CC802DE9F04704460D4682B0A2
:20778000002191460430A82210F05CFA256095F800804FEA981884F804802B78C3F30113B5
:2077A00063712A7802F00F02A2726B78A371A978EB78B8F1010F43EA012323817CD1082A94
:2077C00000F2AC80291D8E1805EB090A564576D804F10B0010F00EFA00275645C4F81370AA
:2077E000C4F8177080F0A580337803F0F002F02A00F08781711C8A454FEA131003F00F0352
:207800005DD90D285FD00E2868D00D2B62D00E2B70D0CE18B24552D307443C2F4FD804EBAF
:20782000D70C07F007029CF8130008FA02F20243781E8CF8132002463B2A74D8DFE812F074
:207840007B0073008600890094009700A400B30073007300BD00C7007300D500E2007300A2
:20786000EC0073007300FB00730073000501730073007300240145017300730073007300BF
:207880007300730069007300730073006900730073007300730073007300730073007300CC
:2078A000730073007300730073007300730073007300730073005301A04BA14A1A60802093
:2078C00002B0BDE8F0877078B11C0D308A45F6D90D2B9CD111F8013B0D339AE77078B21CE9
:2078E00092454FEA0020EAD9B27802F20D121044F11CEBE70E4616F8013BB2454FEA032331
:20790000DDD94A7802F20D121344023181E7802070478A4B8B4A1A60A520D1E7874B8A4A4C
