:020000040000FA
:20100000000004203D7E0000657E0000677E0000697E00006B7E00006D7E0000000000006E
:201020000000000000000000000000006F7E0000717E000000000000737E0000757E0000F0
:201040001D9E00001D94000095190100777E0000777E0000777E0000B99A0000777E00004E
:20106000C1EC0000777E0000777E00002D9F0000777E00002D9E0000777E0000777E000063
:2010800039BF0000777E0000777E0000777E0000777E0000777E0000777E0000777E0000A5
:2010A000777E0000777E0000777E0000777E0000777E0000777E0000000000000000000072
:2010C000777E0000777E0000777E0000777E0000777E0000777E0000777E00001DB7000089
:2010E000777E0000777E0000777E00000000000000000000777E000000000000777E000027
:201100000000000000000000000000000000000000000000000000000000000000000000CF
:201120000000000000000000000000000000000000000000000000000000000000000000AF
:2011400000000000000000000000000000000000000000000000000000000000000000008F
:2011600000000000000000000000000000000000000000000000000000000000000000006F
:2011800000000000000000000000000000000000000000000000000000000000000000004F
:2011A00000000000000000000000000000000000000000000000000000000000000000002F
:2011C00000000000000000000000000000000000000000000000000000000000000000000F
:2011E0000000000000000000000000000000000000000000000000000000000000000000EF
:2012000001F0FF01102A2BDB10F0070F08D010F8013B013A8B422DD010F0070F42B3F6D194
:20122000F0B441EA012141EA014122F007047FF000070023F0E80256083C85EA010586EA41
:20124000010685FA47F5A3FA87F586FA47F6A5FA87F68EB9EED1F0BC01F0FF0102F007023C
:2012600032B110F8013B013A83EA010313B1F8D10020704701387047002D06BF354603389F
:20128000073815F0010F07D1013015F4807F02BF013015F4C03F0130F0BC0138704700BF63
:2012A000D0B5194B186857EC106B03F0E1F9044670B10823C360C0E9066711A3D3E90023D8
:2012C0003046394614F0F2FA20B16FF0004363612046D0BD0D4B00223046394614F0DCFAB6
:2012E00020B14FF0004363612046D0BD3046394614F006FB60612046D0BD00BFAFF3008055
:201300000000C0FFFFFFDF41780000200000E0C1D0B5038804463BB15C2B0DD188290FD07C
:2013200082290DD00120D0BD80211D4806F03EFA5C2323800120D0BD002303800320D0BD1D
:2013400004F0ECFDE8B904F0CDFD02460B4652EA030116D010A7D7E90067D90141EA5261FC
:20136000D0018F4208BF86420FD3002908BFB0F57A7F0DD34FF47A72002314F0E9FA01466C
:20138000D3E708480BF04EF9D2E74FF4F051CCE70121CAE7AFF30080E7337500000000008D
:2013A0005C0B0020B40000202DE9F8433048066888461746994606B1013E03F0CBFD054695
:2013C00003F0BCFD2B4B03EB06160446706813F08FFF41EC100BFFF763FF0146204603F0EE
:2013E00053FDB06813F084FF41EC100BFFF758FF0146204603F048FDF06813F079FF41EC85
:20140000100BFFF74DFF0146204603F03DFD22461949284603F040FD9FED130B17492846B5
:2014200003F03EFD284603F02BFD044690B103464946134A38460FF06FF939460246404603
:2014400005F078FC284603F0EBFC2046BDE8F84312F0E4BA4046A02105F0E0FB2846BDE8CB
:20146000F84303F0DDBC00BF0000000000002440C41C0020F82C0020686B01000C690100F4
:2014800014640100000000002DE9F04104460088A22882B00D4600F0AA8022D9A82800F096
:2014A000D680BB283FD1964B93ED027A954BFFEE007AB4EE677AF1EE10FA3AD01A68012A9C
:2014C00037D0914DEB68002B00F0F2808F4DEB68002B00F0E680BB230120238002B0BDE89E
:2014E000F081002800F0A8807D281CD1884B1B788B4203D0012002B0BDE8F081022006F0A2
:2015000081FD844A8448152104F052FE834B1E68834B1B68022B00DCBEB1012E00F0A180DC
:2015200080480BF08FF800230320238002B0BDE8F08101227C481A600BF084F87B480AF01B
:20154000DBFF002323800220D5E7022006F086FD304606F02BFD334602227548314604F019
:20156000E5FF7449724805F07DFB03F0F3FC0746002800F0A680704A704903F0C5FC03F01C
:20158000DDFC80466E4803F0A5FC0146404603F07BFC6C4803F09EFC0146404603F074FCBA
:2015A000694803F097FC0146404603F06DFC42466649384603F070FC9FED4F0B64493846A6
:2015C00003F06EFC384603F05BFC8046002800F0838014F0BCFB41460246554805F0AAFB44
:2015E0005C480BF02FF85C4AA223968423805B4B0093484A4E4B5848294603F015FD01285C
:201600002DD9464B1E68002E82D1454D544A554955480AF0ABFE2968544803220AF0A6FE2E
:201620002B683A4801334FF420712B6006F0BEF8A823238001205EE70BF082F8022006F0F5
:20164000B5FC7D230120238002B0BDE8F0812F4BDB68002B7FF44EAF304B1E6858E70020F5
:2016600049E7022006F034FD002006F0CBFC40480AF0E8FF3F49404803F0C0FF3F494048D9
:2016800003F0BCFF3F49404803F0B8FF1F484FF4807106F08BF81C484FF4807106F086F8C2
:2016A00019E7354B1B6A9847284606F089F812E70DF06CFB324B1B6A9847284606F080F847
:2016C00004E7274A314928480AF050FE30480AF0B9FF268002200EE7214A2C4922480AF051
:2016E00045FE2C480AF0AEFF384603F099FB2680022000E7AFF30080000000000000004076
:20170000F82C0020DC1C0020F01B0020001C00203A350020C81C0020E4690100101C0020D9
:20172000141C0020186B0100FC6A010068020020181C0020FC690100306A0100A468010082
:20174000DC6A01003C6A0100406A0100686B01000C690100686A0100C01B0020FDEC0000EF
:201760007C6901001065010018650100946A0100B86A0100D46A0100AC010020E46A010012
:2017800088010020F06A0100D00100208C660100106A0100486A010010B5054C237833B996
:2017A000044B13B10448AFF300800123237010BDF0070020000000002CC7030008B5034B0C
:2017C0001BB103490348AFF3008008BD00000000F40700202CC70300A3F5803A704700BFE6
:2017E000174B002B08BF134B9D46FFF7F5FF00218B460F461348144A121A14F05BFA0E4B8C
:20180000002B00D098470D4B002B00D098470020002104000D000D48002802D00C48AFF325
:20182000008012F0CFF82000290005F08DFA12F0B5F800BF00000800000000000000000024
:2018400000000420A80300204C350020000000000000000000B585B00346002101AA44F2C3
:201860000100CDE90111039300F004F805B05DF804FB00BF72B6094B1B68DB0700D500BEE1
:20188000BFF34F8F0649074BCA6802F4E0621343CB60BFF34F8F00BFFDE700BFF0ED00E07D
:2018A00000ED00E00400FA050378052B02D0094B1B681847084BD3F88424D3F8803413F05D
:2018C000FF0FF4D1054BD2B2052A08BF1846014B1B6818470C080020007002402062010076
:2018E000014B02481B6818470C08002024620100012803D0022809D020B17047054B064890
:201900001B681847034B05481B681847014B04481B6818470C0800201862010014620100C8
:201920001C6201002DE9F04F87B0002504460F4690469946029500E00135626801235668CA
:201940002146002202A8B0470028F5D18DF80600049065B3824683460AE09DF80630666824
:20196000023B7668B0479DF806309B445D451ED962680123566821460DF1060204A8B04756
:2019800062680123566821460DF1070204A8B0479DF80730BB424FF00002214604A8DCD1C0
:2019A000D04508D00AF1010A5FFA8AFAD5E7052007B0BDE8F08F109A9DF80630136089F832
:2019C000003089F801706168023B4D6809F102022146A847002007B0BDE8F08FF0B50546EB
:2019E00083B03B4809F0C6F9044610B1204603B0F0BD384A3849394B14700C604822214660
:201A000037481C6014F056F936482146482214F051F9002D54D095E80700334B83E8070016
:201A2000002847D0002007F0F3FD08B1852844D12E4D2B7A002B49D0013BDBB205F10C02B4
:201A40004FF0030E6E68274FDFF894C01EFB032E05F109046378EBB1A278611C1144013BD3
:201A600051FA83F1224408E003F00F0307EBC30391421D60306858600CD012F8013B1806BC
:201A8000F2D503F00F030CEBC30391421D6030685860F2D103347445DCD10B238DF80430D6
:201AA0001248336801A99847044600289ED009F0A3F99BE70E4A1A60B4E7FFF7CBFEB7E7E7
:201AC000094B0B4A5D601D721A60ABE76E68E4E7A91800001D2A0020A8080020AC08002098
:201AE00018080020600800200C08002050620100B91E000010B509F099FA68B109F09EFA65
:201B0000044648B9064807F097FD034628B1FFF7A1FE2346184610BD0823184610BD00BF41
:201B20001062010009F072B90AF070B84FF0804303E0D3F83824D10707D5D3F8382492076C
:201B4000F7D5024B02481B68184770470C0800202862010000B5054B83B082221B688DF8E6
:201B6000042001A8984703B05DF804FB0C0800202DE9F043057A83B0002D5ED005F1FF3EF5
:201B80005FFA8EF300F10C024FF0030E00F10901334FDFF8D4C01EFB032E0C466678002298
:201BA000964204EB020319D094F8028013F9089013F80830B9F1000F0BDB03F00F0307EBE5
:201BC000C3031B680132002BEAD0112003B0BDE8F08303F00F030CEBC303F2E70334A645EB
:201BE000DCD100261E4FDFF880C0324602EB42020A445378EBB1002423460CE003F00F03B2
:201C000007EBC303186045682D685D6055780134E3B29D420CD99578134413F905E05B5D2D
:201C2000BEF1000FEADA03F00F030CEBC303E9E7057A0136F2B29542D8D80A4A13681BB114
:201C40001A681368002BFBD1106043680B228DF804201B6801A9984703B0BDE8F08300BF09
:201C600060080020A808002018080020024B1878003818BF012070471C2A0020030710B5D3
:201C8000044604D52046BDE8104009F057BE09F06FFB204609F0AAFE2046BDE8104009F0FA
:201CA0004DBE00BF0AF090B8014B1868704700BFA8080020F0B40E4B1F688FB13E7A96B143
:201CC00000231C463A4602E0DCB2A6420BD9557A854203F1010302F10302F5D101B10C7049
:201CE0003846F0BC70473B681F68002FE6D1F7E7A8080020436811461B68184700F00F035F
:201D0000082B0AD802064CBF054A064A02EBC303186810B143681B6818471020704700BFD5
:201D2000180800206008002038B5094B1C6864B1054602E023681C683CB1636829461B681B
:201D4000204698470628F5D038BD062038BD00BFA808002038B50D46044609F0DBF918B18C
:201D6000054B1B78022B01D0082038BD29462046BDE8384009F0DEB91D2A002038B50D463C
:201D8000044609F0C7F918B1054B1B78022B01D0082038BD29462046BDE8384009F05CBA78
:201DA0001D2A0020F8B543689B6805460C4616461BB19847062800D0F8BDEEB92B7AA342D9
:201DC0001CD9093504EB44042C44677897B133463A469A420BD9A378A2190136D05CFFF71A
:201DE0004DFFF3B2BB4205D262789A42F3D800231B78FFDE0020F8BD0720F8BD7378FFDE91
:201E000070B54368DB6805460C4603B198472B7AA3421AD9093504EB44042C4466789EB1F0
:201E200000252B46324693420BD2A37862190135D05C09F0C9FFEBB29E4205D9627893421F
:201E4000F3D300231B78FFDE70BD00235B78FFDE43681B6903B118471846704770B50A4B58
:201E60001D687DB12E7A4EB100242146013400222846FFF797FFE1B2B142F7D32B681D68C4
:201E8000002DEFD170BD00BFA808002070B5094B1D6875B12E7A46B10024214601342846A8
:201EA000FFF7AEFFE1B2B142F8D32B681D68002DF0D170BDA808002070B503780446852B91
:201EC00000F2BF80DFE813F00002B201BE003A026602E300EA00BD00040117012A01BD0061
:201EE000BD00BD00BD003D01BD00BD00BD00BD00BD00BD00BD00BD00BD00BD00BD00BD0091
:201F0000BD00BD00BD00BD00BD00BD00BD00BD00BD00BD00BD00BD00BD00BD00BD00BD00F1
:201F2000BD00BD00BD00BD00BD00BD00BD00BD00BD00BD00BD00BD00BD00BD00BD00BD00D1
:201F4000BD00BD00BD00BD00BD00BD00BD00BD00BD00BD00BD00BD00BD00BD00BD00BD00B1
:201F6000BD00BD00BD00BD00BD00BD00BD00BD00BD00BD00BD00BD00BD00BD00BD00BD0091
:201F8000BD00BD00BD00BD00BD00BD00BD00BD00BD00BD00BD00BD00BD00BD00BD00BD0071
:201FA000BD00BD00BD00BD00BD00BD00BD00BD00BD00BD00BD00BD00BD00BD00BD00BD0051
:201FC000BD00BD00BD00BD005101860060011C02E301E3008C4B8D49D3E9000290478C4BD6
:201FE0001C684CB1894D636820461B682946984723681C68002CF6D1864C63680BB10D2000
:202000009847FFF743FF01F075FB834B1B68002B00F0FD810120814D08F0D6FF2A78931E4F
:20202000DBB2062B00F215827D49CB5C13B107F0D5FA2A78022A40F00C8209F041F8012300
:202040002B7070BD754D2A78931EDBB2062B00F2CD817349CB5C13B107F0C0FA2A78022A7F
:2020600040F0C48109F02CF86A4B5B6803222A700BB102209847664B1D6845B16B6828466D
:202080001B68214698472B681D68002DF6D15E4B2146D3E90002BDE87040104790F9023036
:2020A0008278002BB4BF5F4B574B02F00F0203EBC203D3E90002214690470028C1D0A078B9
:2020C0000207BED00307BCD4BDE8704009F022B9504B5B680BB1082098474D4B1D68002D3B
:2020E000AFD06B6828461B68214698472B681D68002DF6D1A5E7474B5B680BB109209847A6
:20210000434B1D68002D9CD06B6828461B68214698472B681D68002DF6D192E73D4B5B6839
:202120000BB10A2098473A4B1D68002D89D06B6828461B68214698472B681D68002DF6D134
:202140007FE7344B5B680BB10F209847304B1D68002D3FF476AF6B6828461B68214698477E
:202160002B681D68002DF6D16BE72C4C2378062B00F04F8103F0FD03052B7FF462AF08F05E
:20218000A9FF0223237070BD244DFFF77FFE09F031FD2A78931EDBB2062B31D82049CB5CFD
:2021A00013B107F01BFA2A78022A29D108F088FF174B1C6800232B704CB11B4E63682046CD
:2021C0001B683146984723681C68002CF6D10E4B1549D3E9000290470E4B5B680BB10E20D2
:2021E00098472B78023BDBB2062B3FF62AAF0C4AD35C002B3FF425AFBDE8704007F0EEB9AA
:20220000082AD5D1D2E700BF600800202C620100A80800200C080020AC0800201D2A002018
:202220000862010018080020306201009C4DFFF72DFE01F055FA2A78931EDBB2062B00F213
:20224000D9809849CB5C002B00F0D480022A03D0082A01D008F03EFF934B5B6802222A7018
:202260000BB101209847914B2146D3E9000290478F4B1D68002D3FF4E4AE6B6828461B68B5
:20228000214698472B681D68002DF6D170BD844D2B78032B00F0C68008F0DAFE00283FF4BC
:2022A000D0AE2A78931EDBB2062B40F2EB80814807F066F92A78022A01D0082A01D108F038
:2022C000FFFE06232B7070BD754B1B78032B00F0A580082B00F0A280734B5B680BB10020D8
:2022E0009847754B1D68002D3FF4ABAE6B6828461B68214698472B685D68002DF6D170BD7E
:20230000674D2B78032B7FF49CAE09F0AFFC00283FF497AE2A78931EDBB2062B00F2BB80F9
:202320006049CB5C13B107F059F92A78022A40F0B28008F0C5FE04232B7070BD584D2A789F
:20234000082A5CD0931EDBB2062B00F286805549CB5C002B00F08180022A00F0878005238C
:202360002B70514B5B680BB1032098474F4B2146D3E9000290474E4B1D68002D3FF461AE82
:202380006B6828461B68214698472B681D68002DF6D170BD444B5B680BB103209847434B5C
:2023A0004649D3E900029047414B1C684CB1434D636820461B682946984723681C68002C1F
:2023C000F6D1374D2B78062B1ED0082B0BD09A1ED2B2062A4DD833498A5C002A49D0022B7F
:2023E00001D008F077FE02232B7070BD082A7FF43BAE37E62F4807F0C3F82A7826E702230A
:202400002B7008F071FEACE707232B7070BD207A01E608F05FFE0823237070BD2848FFF70E
:202420004BFD59E709F022FC00283FF435AF2A78931EDBB2062B2BD81A49CB5C13B107F065
:20244000CDF82A78022A23D108F03AFE04232B7022E7082A7FF4F3ADEFE5164807F090F804
:202460002B78022B02D0082B7FF479AF08F028FE75E7104807F084F82B78022BB3D0082B21
:20248000B1D0AEE70749CB5C002B7FF414AF0EE7082ADBD1D8E7082A7FF44DAF49E700BF2C
:2024A0001D2A0020086201000C08002060080020A808002008000020AC0800203862010027
:2024C000346201004360CA699A4205D38A6902600B67CB610020704701F1280202608B67A1
:2024E00000207047F0B504680E7A002C00F07284A4F212347C2C00F2C1827C2C00F2BE82C7
:20250000DFE814F074020003DE02CF02C7022A0307032303BC02BC02BC02BC02BC02BC022C
:202520006702D702BC02BC02BC02BC02CC010F03E602BC02BC02BC02F401EE038C03BC022D
:20254000BC02BC02BC02FF00CB034803BC02BC02BC02BC02BC02BC026402BC02BC02BC0215
:20256000BC0219019B039303AC035703BC02BC02C3038403B40339035F03BC02BC02410368
:20258000DB015003ED00BC02BC023203DB00F503BD00BC03BC02BC02BC02BC02BC02BC02AB
:2025A000BC02BC02BC02BC02BC02BC02BC02BC02BC02BC02BC02BC02BC02C900D303BC0218
:2025C000BC02BC026703BC02BC02BC02BC02AC00BC02BC02BC02BC02AC00BC02BC02BC0293
:2025E000BC02BC02BC027D00C002BC02BC02BC02BC02B800BC02BC02BC02BC02B8000124DD
:202600000025002A00F0CD8307795755A3424FF00005057140F27C83171901343D70B04D20
:202620000F7D2D682D78AF4200F0B0838F7DAF4209D10025A342057140F24D8525460134C5
:202640000AB107795755DFF8A0C2A64F9CF800503F780135EDB28CF800507BE1012500247B
:202660000AB1077917554024AB42047140F289836C1CC6E701240025002AE2D1E3E7012464
:202680000025002A40F031848D7D0571A34240F262830134FFE001250024002A00F03D8352
:2026A00007791755AB424FF00504047140F27E83274602EB050C6C1CFDE201250024002A0B
:2026C00040F011840624AB42047140F23F8301350C7D0471AB4240F291836C1CD4E70125E5
:2026E0000024002A40F003840524AB42047140F228836C1C2425A342057140F27583651C96
:20270000E0E701240025002A00F0FA83077957554FF0000CA34280F804C040F29084651CB2
:202720000027AB4202F804C0077140F2F383541901352770F3E001250024002A00F0EF83C4
:2027400007791755AB424FF02404047140F2C183274605F1010C002463455755047140F2BF
:20276000A98325460CF101071024BB4202F80C50047140F29083254607F1010C012463453F
:20278000D555047140F2788325460CEB04070524BB4202F80C50047140F25D83254607F19A
:2027A000010C24246345D555047140F24A8325460CF101070124BB4202F80C50047140F2EF
:2027C0003683254607EB040C03246345D555047140F228830CF1010702F80C40BB4291F8B7
:2027E00016C080F804C040F218837C1C0425A34202F807C0057140F20B8302EB040C2F46EB
:2028000001342425A3428CF80070057140F2FB822F46651C1755AB424FF00204047140F201
:202820009F82274602EB050C6C1C0225A3428CF80070057140F2DD822F46651C1755AB422E
:202840004FF00504047140F27C82274602EB050C6C1C2425A3428CF80070057140F2C48288
:202860002F46651C1755AB424FF00604047140F26D82571901353C700F7D0771AB4240F2B5
:20288000BD826C1C5755A3428D7D057140F26382171901343D70124D2D6851E001270024C6
:2028A000002A00F04082057915559F424FF00004047180F0F5827D1C39E101250024002AAD
:2028C00040F017830224AB42047140F249826C1C0225A342057140F28C82651C04E700BF34
:2028E000B00800201E2A0020202A002001240025002A00F09883077957559C424FF002055F
:20290000057180F05883671C1555BB424C7E047140F2E48202EB070C7D1C8CF800400024B4
:20292000AB42047140F221826C1C0AB107795755C64D91F814C02D682F78BC4500F01A82B8
:20294000DFF810E3DFF810C36F788EF8007000258CF80050BD423FD3BD4F3D780135EDB286
:202960003D70AE4240F2CA810925A342057140F25583651C002A00F0128307791755AB42A1
:202980004FF00404047140F2B682274602EB050C6C1C8CF800700F7AAD4D2D78AF4240F2DF
:2029A000AC8305EB450501F10907DFF8A0C217F805E080F804E03D449C42CCF8005080F040
:2029C0007E82671C002A7FF46EAFACE101240025ABE701250024CDE70725A342057140F29A
:2029E0009281651C002A7FF45BAE96E1002A00F0EB8204791470012B4FF00B04047140F27D
:202A0000238302250127D455AB420F7D077140F25B8205F1010C022463455755047140F274
:202A2000448225460CF101070224BB4202F80C50047140F22B82254607F1010C0224634555
:202A4000D555047140F213820CF1010702F80C40BB4291F819C080F804C040F2F7817C1CE8
:202A60000025A34202F807C0057140F2E581171901343D70764F00253D7072E700230360F5
:202A80001846F0BD002A00F0F282057917460124C4E5002A00F0F28205794FF0010C002775
:202AA000CCE7002A00F0EC82057901274FF0000CBAE7002A00F0FF8207799446012468E7E0
:202AC000002A00F0D78207794FF0010C0025A2E75E4C002A00F0E6820779246894460125D1
:202AE0008CF8007024780F7DA74200F0B9818F7DA7427FF414AF0A249D42047180F0F58213
:202B00006C1C00E6002A00F0D28204790125002779E7002A00F0B08290F804C001240027CB
:202B20009EE7002A00F0C182047901250027DFF81CC1D455DCF80040AB426778077140F282
:202B4000A08102EB050C0135CAE7002A00F0B1820579174601248CE7002A00F08482047912
:202B600001274FF0000C71E7002A00F0A7820779944601246DE6002A00F08E8204790127A6
:202B80004FF0000C28E6002A00F0A18207799446012436E6002A00F00082144607792770F7
:202BA0000125BCE6002A00F08E820779944601243BE6002A00F07282057901274FF0000C84
:202BC000E5E5002A00F0608290F804C0012400270CE61E4C0125276800241AB190F804C04B
:202BE00002F804C03C780F7DA74200F0E9808F7DA7427FF438AD0224AB42047140F270829C
:202C00002C460135002A7FF42CAD2CE5002A00F04782057901274FF0000CCBE5002A00F0E7
:202C2000BC8104799446012577E6002A00F01682057901274FF0000C96E5002A00F045827E
:202C400007794FF0010C002585E500BFB00800201F2A00201E2A0020202A0020002A00F02D
:202C6000308205794FF0010C002787E5002A00F00F8205794FF0010C0027A5E5002A00F005
:202C8000F48105791746012404E6002A00F0218205794FF0010C002783E5002A00F0F6812E
:202CA00090F804C0012500243AE5002A00F0EA810779944601248CF80070C14FC14D3F68A2
:202CC0002D7897F801C0AC4540F2148297F802C03D44A34215F80C5005716CD9651C7CE787
:202CE000002A00F0D7810579012700240CE6002A00F0B681047917460125BCE540F29933B6
:202D000003600120F0BD40F26D3303600120F0BD4FF4617303600120F0BD0524AB420471AC
:202D200044D96C1CC9E79F42027180F0B9807D1CA34C2468AB426778077140F2A28001355F
:202D4000D0E640F2553303600120F0BD40F2573303600120F0BD40F2593303600120F0BDF6
:202D600040F2513303600120F0BD4FF44F7303600120F0BD0525A342057140F21781651C66
:202D8000DBE440F2833303600120F0BD0D6AA3422D7805713FF652AC40F28933036001203F
:202DA000F0BDA3420271B3D9013438E440F26E3303600120F0BD40F2723303600120F0BD25
:202DC0000324AB4204713FF61BAF40F2773303600120F0BD08240471002B7FF407AE40F238
:202DE000123303600120F0BD40F2563303600120F0BD40F2523303600120F0BD4FF456737D
:202E000003600120F0BD4FF4547303600120F0BD40F24F3303600120F0BD4FF453730360F5
:202E20000120F0BD40F24B3303600120F0BD40F24A3303600120F0BD40F219330360012001
:202E4000F0BD40F2493303600120F0BD4FF4467303600120F0BD4FF4527303600120F0BD80
:202E600002249D42047180F0F4806C1C40E540F2173303600120F0BD40F24533036001206C
:202E8000F0BD4FF44A7303600120F0BD40F2163303600120F0BD4FF4517303600120F0BD70
:202EA00040F2273303600120F0BD40F2153303600120F0BD40F2433303600120F0BD40F29F
:202EC000263303600120F0BD4FF4457303600120F0BD40F2423303600120F0BD40F22E33D1
:202EE00003600120F0BD0779BCE40779CAE40779A4E407798EE440F2213303600120F0BDA2
:202F0000A342027140F29B80013400259C420571C0F0938040F2353303600120F0BD242488
:202F2000AB420471D5D96C1C00259C420571C1D2013410259C420571ADD2013401259C4277
:202F4000057199D22C4405259C42057183D2013424259C420571BFF474AF013401259C426C
:202F60000571BFF464AF2C4403259C420571BFF459AF01348D7D05719C42BFF44EAF0134F6
:202F80000425A34205717FF643AF01342425A34205717FF638AF651C94E40125BFE4042427
:202FA000AB420471A7D90F7A6C1CF5E440F2413303600120F0BD40F22D3303600120F0BDAB
:202FC000B0080020202A00200B24012B04713BD902240D7D05719C42BFF476AF0134022593
:202FE000A34205717FF661AF013402259C420571BFF44CAF01340225A34205717FF637AF81
:2030000001344D7E05719C42BFF420AF013400259C420571BFF410AF01342BE54FF4487377
:2030200003600120F0BD02259C420571C3D201344D7E05719C42BFF451AF651C6FE44FF431
:203040004D7303600120F0BD40F2133303600120F0BD4FF44B7303600120F0BD012468E730
:203060000125FFF735BB0124CBE7012413E40124FFF7D5BA0124B2E70124C8E70124BAE74F
:203080000124B2E7012418E6012479E701243CE7012469E70124CBE701246BE7012452E761
:2030A00001245BE7246801251CE5012540E601248FE70124DEE4374601246DE40124FFF71A
:2030C00019BB01243AE7012402E401242CE701245CE701243CE740F28E3303600120F0BDBF
:2030E0004FF45F7303600120F0BD40F2333303600120F0BD00231B78FFDE024A002313604C
:203100001B78FFDEB008002070B90B681A7B202A01D0062070471A4652F80E1F9961918854
:2031200092799A7799837047032070474360CA699A4210D38A6910B40260C8690C6FC01A92
:203140001C441A44C86100380C6718BF01205DF8044B8A61704701F12802026000208B670F
:20316000704700BF2DE9F0470B7888B00D4606460E2B14D8DFE803F008180808130D2813C8
:2031800013181308080808000024204608B0BDE8F0874B78DA0930D15B09012B4CD00624F6
:2031A000204608B0BDE8F0870368002403F134022046C3E91E44C3E920445A671C845C6279
:2031C000DC6208B0BDE8F087027A8B78002A00F06581817A0930002900F05E81F17A415C2A
:2031E0009942D1D01B061ED4EF7807F0FD03012BCAD0002F65D00324C7E713F0600FC3F3BB
:20320000411200F09180012AC9D18B78212BC6D1B1F80720072AC2D10168681C183100F0F5
:2032200073FA0446B1E7EC78002C00F09D80032C14BF03240024A8E78B780768202B00F019
:203240009B80222BABD1B1F80730002BA7D1B1F8035097F820303D8405F0010203F001037C
:203260009342154690D0C3691BB1C2F10301C9B29847002D88D1337A012B40F20B81737BAA
:2032800006F10C04002B00F00381B37BE05C08F017FD337A012B40F2FD80737B012B40F23E
:2032A000F780B37B23442C46587808F009FD07F13403C7E91E55C7E920557D62FD627B672B
:2032C00063E73568012A05F10C0140F2DF80727B012A06F10C0340F2D7800691B27B704924
:2032E00005911344AC6A93F80180002C60D1EA6FEB6AAC67C5E91F42002B00F0B480296BAF
:203300001846002205F1240383E803004046EA6205A9FEF733FD0446F369002B3FF435AF15
:2033200030460021984730E703F01F03012B7FF436AF8C78062C7FF432AF05A8039200F0AB
:20334000D5FC03AA00920746EA78297930463B46FEF7E8FA05283FF418AF039A3946681C77
:2033600000F0D2F9044610E7F369002B3FF40CAF30460121984708E7B1F80720072A7FF402
:203380000EAF3B73B1F80730DBB27B7300200E37CDE90573079000F08BFF002005A9FEF700
:2033A000D9FC0446002867D0002000F089FFECE6D5F88490686A4C4528BF4C4605F1340A34
:2033C0002246514612F04EFCE86FEA6AEF67A9EB04030AEB04010444C5E91D13C5F8804069
:2033E000002A43D005F12C0797E8030005F12404002284E80300EA62002B3BD091461BE0E2
:20340000696F686A12F02EFCD5E91D32A96AC5F880100B44521AC5E91D32F36913B1002170
:2034200030469847EB6A13B397E8030084E80300AB6FC5F82C90EBB1AA6A9342E0D2696F89
:20344000686A1A4612F00EFCD5E90932A96FE967521A0B44C5E9093253B1404605A9FEF7FC
:203460008DFC044658E700236B6255E700236B62002451E76B6AEFE70A4B049603A90393E6
:2034800000F020FC04468FE73B78FFDE7B78FFDE2B78FFDE6B78FFDE0B78FFDE5378FFDEB8
:2034A0002D3100000931000010B503681C8CE40784B015D50B46017A012916D9417B00F101
:2034C0000C0481B1817B605C91060CBF0124002401A9CDE901320394FEF73CFC04B010BD6F
:2034E000082004B010BD0B78FFDE00235B78FFDE0368D3F880007047F0B50468238CDB07E1
:2035000083B022D50546002016460F4600F0D0FEA26F42B9636AE3B11124002000F0D0FE27
:20352000204603B0F0BD964228BF1646616F3246384612F097FBD4E91D239B1B3244C4E97A
:203540001D23C4F880600024E7E70824204603B0F0BDC4E909762A7A012A12D9697B0129B7
:2035600005F10C020FD9AB7B0849009113440C34587801946946FEF701FC041E08BF92241B
:20358000CBE75B78FFDE1B78FFDE00BFC5240000002070472DE9F04F4B6885B0CDE90002E5
:2035A0000C46002B71D007F0B1FEE568019B9D4228BF1D468146002D7CD04FF0000A564670
:2035C000D3464FF00108D4E90113AB421F4628BF2F46E9B13A4609EB060012F043FBD4E9FA
:2035E0000223D21BDB1BC4E90223C4F804B0ED1B3E442AB3002B08BF4FF00008002DE2D101
:20360000009BC3F800905E60404605B0BDE8F08FABB120463B4650F8101B4A68D2F804A0D1
:2036200009EB0602D047D4E90223D21BDB1BC4E90223ED1B3E445AB14FF0010ADAE7E368F5
:20364000BAF1000F04D15BB99846002DBBD1D7E722681268126822604FF0010A002BF3D03A
:203660002168F1B1CDF808B003E0A36821680133A3604B6800225F6802A80123B847002863
:20368000F3D12061002D9ED1BAE70B681B681B68002B88D18B68002B85D103604360984653
:2036A000B2E76160002EABD0019BB34288BF4FF00008A5E72E464FF00108A1E7054B05289B
:2036C000187004D0044A137823F0020313700348FEF7F2BB212A0020222A00206062010093
:2036E00008B50020FEF7CAFABDE808408020FEF7C5BA00BF08B50020FEF7D4FABDE80840E7
:203700008020FEF7CFBA00BF70B5C38893421E4628BF1646934284B00D4612D80024002056
:203720000394CDE9015600F0C3FD01A98020FEF711FB044688B1002000F0C2FD204604B07E
:2037400070BD8020144607F0D5FCB4FBF0F202FB1044B4FA84F46409E1E707F0B1FE8028EF
:203760000BD1094A094B92E8030083E80300002000F0A6FD204604B070BD002000F0A0FD34
:203780001024204604B070BD98620100D80800202DE9F04F0B780E2B89B018D8F3B1013B99
:2037A0000D2B1BD8DFE803F01F0E281A354C1A1A1A1A0E666F07B24B1B78012B02D0012033
:2037C000FFF77CFF0024204609B0BDE8F08F852B04D1AB4B1B78032B00F040810624204694
:2037E00009B0BDE8F08FA64B1B78032BF6D00320FFF764FF0624E6E7A24805F045FE0028B7
:20380000E0D0A14B01221A60BFF36F8FBFF34F8FD8E705230DF115008DF8143007F0B8FDC0
:203820009DF81530994E002203F01F043260032C00F2B980DFE814F0E800B90099008D0011
:20384000C87803280D46C9D0904E3368002B00F003810022716832609847044600287ED1CC
:203860003368002B00F00581AB78002BAAD107F0B1FDA8E7824B1B78002BA3D00020FFF7FB
:203880001DFF00249FE74FF08043D3F8383413F0010F7B4B1B7806D0022B93D00220FFF73F
:2038A0000DFF00248FE7012B89D18BE7BDF81B30002B00F0D880092B28BF09239946FEF7DC
:2038C000F3F90546002800F0DB81BB464FF0090ACDF80CB04FF0000801E008F101086A686D
:2038E000012357682946002203A8B8470028F4D12A682B7A15681C44C244E4B2002DE7D128
:20390000634D644928464A4612F0ACF92C71A5F802A0FEF7ABF918B1EB7943F02003EB7151
:20392000FEF7C2F95C4BBDF81B2018600020C3E90159DA6000F0BCFC58498020FEF71EFA72
:203940000446002800F09F81002000F0B9FC062C05D105A8FEF7E8F90446002C73D007F0E5
:20396000A5FD204609B0BDE8F08F9DF81900020707D005A9FEF7C2F906280446EDD19DF8AB
:20398000153013F0600F0ED19DF816303C4A9DF819401278012B00F0B980032B00F0A6801F
:2039A000002B00F0C6800624D9E79DF8190003A9FEF780F90546002859D09DF80C1005AAF8
:2039C000FEF798F906280446C7D19DF8152012F0600FC4D12A4B9DF80C101B78D20940F0BD
:2039E00014819DF816200B2AB9D1052B40F0B280BDF81730FF2B00F2FC809DF81720284648
:203A0000FEF7D0F90446A8E713F0600FC3F341179FD1DB0948D19DF81630032B00F09C800D
:203A2000092B00F0A880012B93D1BDF81730012B8FD1FEF71BF9002800F0D980184A1378BB
:203A400023F00203137033686BB107F039FD044600287FF4B7AE0AE70E2480E70420FFF7F9
:203A60002DFE0624AFE607F017FD0024ABE6102475E70C4B1B68082B33D007F00DFDA2E673
:203A8000212A0020E00800205C700240D8080020E408002064620100C0080020A0620100E7
:203AA000222A0020300100109DF81620062A00F08780082A73D0002A7FF44BAF7B497C4BD0
:203AC00009781A80890744BF02221A7078490DF115000222FFF718FE0446062C7FF43DAFAB
:203AE00037E7744B1B68002BC7D16BE625073FF55AAFBDF81730002B7FF455AF052A01D04B
:203B0000200727D1204607F005FC9CE721073FF54AAFBDF81730002B7FF445AF052A01D0C2
:203B2000230717D1204607F023FC204607F05EFF89E7052A01D027070CD1204607F0F6FB74
:203B40005B49034602220DF115000B80FFF7DCFD044602E7082402E7BDF81730012B7FF404
:203B6000F8AEFEF783F8002841D0504A137843F00203137067E7504C2378043B012BE9D865
:203B80009DF81730BBB3012B33D1FEF767F92378052B3FF458AF0520FFF790FD53E7464ADF
:203BA0001278052A47D0042A7FF4D3AE404B1F703F490DF115000122FFF7A6FD04468CE7E5
:203BC0009DF81830022B3FF471AE032B36D0012B7FF4BFAEBDF81B30002B3FF444AF374978
:203BE0000DF115001222FFF78FFD044675E70F24B5E60724B3E6FEF749F92378042B3FF490
:203C000022AF0420FFF75AFD1DE79DF816705FB30A2F7FF4A4AE052B9CD128460192FEF7A0
:203C200017F92349019A03460B700DF11500FFF76BFD044691E61E4A1370B9E7BDF81B30EC
:203C4000002B3FF410AFBDF819109DF8170000F01DFB014600283FF47CAE0A780DF1150054
:203C6000FFF752FD044638E7052B7FF473AF10490DF1150002220F80FFF746FD04466CE6DD
:203C80004FF0090A3CE607F01BFC802808D10C4B93E8030086E80300204600F011FBD2E6C1
:203CA000204600F00DFB102459E600BF222A0020E408002034010010212A00208462010065
:203CC0009862010038B505460C4607F0F9FBA84207D194E80300044A82E8030000231846F7
:203CE00038BD1023184638BDD808002008B1402303600148704700BFE4080020F0B40D7AD4
:203D00000DB101F109050468002C59D06FF4AB763444142C00F24A81142C00F24781DFE86A
:203D200014F05400E700EE00F500FC000301090110011701450145011E0125012C014501EA
:203D40003B0033012700390115003F0101250024002A40F0DB818A8AAB424FEA122202715D
:203D600040F2338140F26D1303600120F0BC704701250024002A40F0CD814A8AAB424FEAD8
:203D80001222027140F226816C1C8A8A0271A34240F27B81651CDEE701250024002A40F097
:203DA000B7810A8AAB424FEA1222027140F217816C1C4A8A0271A34240F26C81651CDCE789
:203DC00009240471002B00F0F680002A00F0A48104791470012B4FF00404047140F2F080E6
:203DE0000227012694559F422D78057180F089817E1C0024B342D555047140F27D81254627
:203E0000771C0024BB429555047140F2708125467E1CFF24B342D555047140F2638125462F
:203E2000771C0124BB429555047140F2568125463E190124B342D555047140F24981254683
:203E4000371900249F429555047180F03C8125467E1C09249E42D555047180F02F81254645
:203E6000771C21249F429555047180F0228126467C1C09259C42D655057180F01581161931
:203E8000013435700E7C0671A34240F20881651C16550E8A9D424FEA1626067180F09F80C9
:203EA00057196C1C3E708E7C06719C4280F0F280651C16554E8A9D424FEA1626067180F01C
:203EC000898057196C1C3E700E7D0671A34240F2DC80651C1655898A9D424FEA1121017103
:203EE00073D22A44117040F26D13036001203DE7002A00F0B38004790127002672E7002A99
:203F000000F0A58005790126002772E7002A00F0978005790127002673E7002A00F08980ED
:203F200005790126002774E7002A5DD005790127002676E7002A00F09E80057901260027D6
:203F400077E7002A00F0958005790127002678E7002A00F08C8005790126002779E7002A2D
:203F600000F083800579012700267AE7002A00F08A800679012400277BE7002A00F08180B5
:203F80000579164601247CE7002A78D006791746012487E7002A70D006791746012492E7FA
:203FA000002A3FF4DFAE017911709CE7002303601846F0BC704740F2571303600120F8E753
:203FC0004FF4AC7303600120F3E740F26B1303600120EEE740F2691303600120E9E740F2E4
:203FE000671303600120E4E701240122A342027173D914440122A342027169D9144400227D
:204000009C4202715FD2013409229C42027155D2013421229C4202714BD2013409229C4222
:20402000027141D201340A8A0271A34237D9651CB7E60124FF229C42027153D20134D4E7FF
:2040400001240022A342027151D90134F2E701240022A34202714FD90134F2E701242A78ED
:204060000271A3424DD90134F2E70124D1E70124CAE70124C3E70124BCE7012485E60124B5
:2040800097E60124CFE70124C8E74FF4B573036001208EE74FF4B4730360012089E74FF4EF
:2040A000B3730360012084E74FF4B273036001207FE740F26313036001207AE74FF4B173A5
:2040C0000360012075E740F25F130360012070E74FF4AF73036001206BE740F25D13036041
:2040E000012066E74FF4AE730360012061E740F25B13036001205CE74FF4AD7303600120D4
:2041000057E740F259130360012052E70679E1E60679BDE60679CCE60422012B02717FF633
:204120004FAF02249BE700BF0B780E2B0BD8DFE803F0080808080A0C080A0A0A0A08080843
:2041400008000020704706207047F0B54B78DA0985B00C46064611D15B09012B02D006201B
:2041600005B0F0BD8C78002CF9D102681373036A002B3AD0214698472046F1E713F0600F5B
:20418000C3F3411215D0012AE9D18B78072B07D0082BE4D1F268481CB169FFF7B5FADFE715
:2041A000B1F80720182ADAD1C169601CFFF7ACFAD6E703F01F03012BD1D18D78062DCED189
:2041C00003A80292FFF792FD02AA00920746E278217930463B46FDF7A5FB0528BFD0029AB9
:2041E0003946601CFFF790FABAE71846B8E700BF70B54FF0805286B0D2F8A830D2F8A4204B
:2042000000926FEA83436FEA93430B4A0B4E9BB202A80D210CF080FA02AD002404E015F8B1
:20422000013B06F8013B013402A811F090FD8442F5D306B070BD00BFBC620100442A0020BE
:2042400038B5114B53F8204023780BB9A01C38BD0020FFF74BFD217891B12246C4F10105FE
:204260005319DCB2234620F8141012F8011F0029F6D101335B00DBB243F44073038038BD07
:2042800040F20233FAE700BF2463010040B1052808D8054A105C28B1044B53F820300BB157
:2042A000FFF7CEBF002070473C6301002463010072B6024A136801331360704724090020E2
:2042C000034A1368013B136003B962B6704700BF2409002010B50446006830B1002108F05F
:2042E000E9F854F8040F0028F8D110BD2DE9F043038883B0044643B1B3F5867F0CD1822946
:2043000010D0012003B0BDE8F0834FF486730120238003B0BDE8F08300230380032003B08A
:20432000BDE8F08303F03AFEBFF35F8F19491A4B0E6800220A601F781A70FFB2BFF35F8F5F
:20434000164D03F02FFE28680028DED0DFF85090DFF8508003E055F8040F0028D5D090F87E
:204360004A3026FA03F3DA07F5D590F8493047FA03F3DB07EFD503F021F90028EBD02B68A1
:20438000D9F80020009218464246022103F0B4F8E1E700BF38090020232A0020600000201D
:2043A000842B00204544000010B50C4A90F84B30126882B001330092044680F84B30084A86
:2043C00003468021203003F097F8064B19782246002002B0BDE8104008F0F6B8842B00209B
:2043E000A94300003935002010B4094A094C13681943116021780346012202FA03F30B434A
:20440000DBB2237004485DF8044B08F00BB900BF38090020232A00206800002010B50446AC
:2044200090F84A1090F8490003F07AFD10B994F8480010BD01280ABF94F84800002080F09F
:20444000010010BD70B582B0044603F0B7F808B902B070BD04F12006304603F0AFF8054635
:204460002046FFF7DBFF01280FD00028F0D1002DEED1304603F088F80D4B22462846197881
:2044800002B0BDE8704008F09FB8002DE0D0094B094A1B68009300253046234684F84B5011
:2044A0007E2103F029F8054B28462246E7E700BF38350020842B0020A94300003A350020BF
:2044C000F8B507F0EFFF304B304C187007F0EAFF2F4B304F187007F0E5FF2F4922682F4B13
:2044E00008700025FF2139727B60FD60002A42D02B4E09E091F84A00F9683A72834054F88F
:20450000042F0B43FB60B2B392F84A3092F84910526C03F01F0343EA41131F2BC6BF03F05D
:204520001F0331464FF0A04103F5E07342F08C0241F82350236893F84A1093F8490003F0D4
:20454000ADFC226892F84A3092F8490003F01F0343EA4010012105F009FA2168387A91F8E1
:20456000492082424FF00103C4D0FF28C2D054F8042F002AC8D10B48002107F09BFFBDE892
:20458000F840044803F0E0BC3A35002060000020383500202809002039350020E943000061
:2045A000000300506800002050B138B50446006828B1A568284411F0CAFB2844A06038BD07
:2045C000704700BF70B5044600B30668CEB14368CBB900291ADBA268013111448B4218D2C1
:2045E00023699BB9B1F1804F16D2236A4D00D3B1304629469847064618B3A368C4E900652C
:204600001E44304670BD82689342E2D80026304670BD1644304670BD0029F7DB236A6FF06F
:204620000045002BE4D1A36928469847064640B1A2682168013211F015FBE3692068984735
:20464000DBE7E36920689847C4E90066D9E700BF83683BB15B681BB119604B608368596025
:20466000012070478160C1E900310120704700BF10B5034628209847044618B1282200215C
:2046800011F018FB204610BD002900F0BD802DE9F04706460846002E00F090803478002C90
:2046A00000F098805B4D32464FF0000901270FE0A4F10803DBB2072C07FA03F301D92B42D5
:2046C0000AD11F2C98BF09F1050912F8014F4CB1222CEDD95C2CF8D112F8014F09F101093B
:2046E000002CF5D1971B07EB0905E91CFFF76AFF804600285BD0B9F1000F00F0878004469F
:20470000222304F8013B3378A3B3DFF810A15C274FF0740909E0222B09D05C2B07D0237054
:20472000204616F8013F441C23B31F2BF3D8204600F8017B3278222A3CD8072A32D9A2F1C7
:2047400008031A2B2ED8DFE803F02A27242D211E2D2D2D2D2D2D2D2D2D2D2D2D2D2D2D2D98
:204760002D2D2D2D0E002223637016F8013F441C002BDAD108EB0504222200236270A37093
:204780000120BDE8F08772236370CAE766236370C7E76E236370C4E784F80190C1E7622370
:2047A0006370BEE751460BF0DFFF601DB9E70020BDE8F0875C2AF5D16270B2E70321FFF7E7
:2047C00001FF0028F3D0144B1A889B78028083700120EDE70321FFF7F5FE80460028E6D0BF
:2047E000254602274FF001094046222400F8014B2A46314611F036FA002308F8094008F848
:2048000007300120BDE8F0870020704707F101090237E9E73700000470630100746301005B
:204820002DE9F04D047B202C8EB080468A4625DC74B3631E1F2B2AD8DFE813F077008400CC
:20484000290095002900290029009E002900290029002900290029002900EF002900290021
:2048600029002900290029002900290029002900290029002900290029002E00402C00F099
:20488000F880802C03D10069002840F0CE80002420460EB0BDE8F08D0029F8D001215046FE
:2048A000D8F80840FFF78EFE0028F0D05B230370DAE9022301320133CAE90223002C00F042
:2048C000C6802C26202700250AE001300570DAF808304344CAF808302468002C00F0B780DA
:2048E00051462046FFF79CFF03465046002BCED0FFF75AFE23685046002B00F0A880DAF8FE
:204900001430002B15BF032102214FF002084FF00108FFF757FE0028B9D00670DAF81430F4
:20492000002BD2D047700230D0E708460621FFF749FE03460028AAD0BB4A1068928818605E
:204940009A80A5E708460521FFF73CFE034600289DD0B64A106812791860012420461A719E
:204960000EB0BDE8F08D08460521FFF72BFE034600288CD0AE4AEDE7002300200021CDE911
:204980000401CDE90733CDE90A33D8E9064509930C93ADF83430BAF1000F3FF478AF224663
:2049A0002B462046294610F095FFB0B925F00047A04B204639464FF0FF32264610F08AFF23
:2049C000002840F0F7809B4B4FF0FF322046394610F062FF002840F0ED80954B93E8030049
:2049E000042407908DF82010611C5046FFF7EAFD00283FF44CAF0DF11C0B02191BF8013B6E
:204A0000037001309042F9D100230370DAF808301C44CAF8084001243AE70069FFF734FE75
:204A2000044620460EB0BDE8F08D11F090F9421C114650460092FFF7C5FD00283FF427AF96
:204A4000009AD8F8101011F00DF9012420E702215046FFF7B7FD00283FF419AF5D22002371
:204A600002704370DAF80C30013BCAF80C3001240EE700293FF40BAF4B698468002B14BFFB
:204A800003210221504614BF02250125FFF79AFD00283FF4FCAE7B230370DAF80C20DAF8A6
:204AA00014300132CAF80C20002B40F09680DAF808201544CAF80850002C00F00F810925D9
:204AC0003A262C27002B40F09580206A5146FFF7DBFD00283FF4DBAE5046FFF765FDDAF820
:204AE0001430002B14BF4FF002084FF0010841465046FFF767FD00283FF4C9AE0670DAF852
:204B0000143003B14570DAF808304344CAF8083051462046FFF784FE00283FF4B8AE504691
:204B2000FFF742FD2368DAF81420003B18BF0123002A0CBF984603F1010808F10101504618
:204B4000FFF740FD00283FF4A2AE23680BB100F8017BDAF8143013B10A2300F8013B00235E
:204B60000370DAF808304344CAF808302468DAF81430002CA6D1002B00F0B080DAF80C10B9
:204B800001315046FFF71EFD00283FF480AEDAF814306BB1DAF80C30012B09D00022092122
:204BA00000F8011BDAF80C300132013B9A42F7D37D2254E7D8F81480404610F087FB024630
:204BC0000B462046294610F053FEB8B31A49424607A80BF0C9FD044606E70A234370DAF8AF
:204BE0000820DAF814301544CAF80850002C7FF466AFC0E7DAF80C105046FFF7E3FC002828
:204C00003FF445AEDAF80C203AB1002300F8015BDAF80C2001339342F8D3DAF808301A44D4
:204C2000CAF8082051E700BF846301008C6301007C630100FFFFEF7F946301000DF11C0B52
:204C4000274922462B4658460BF08EFD2549804604AA58460FF01AF8012829D19DED047B2A
:204C60008DED027BDDE9021222F0004300910193DDE900233046394610F004FE08B9CDE992
:204C8000006722462B46DDE9020110F0D1F90B46064623F000470022134BDDE9000110F003
:204CA0007FFB02460B463046394610F0F5FD30B90E4922462B4658460BF056FD80464446A5
:204CC000192C3FF6E4AD611C5046FFF77BFC00283FF4DDAD002C3FF497AE8EE6022150E7F2
:204CE00098630100A06301000000B03CA4630100F0B5274C8BB00E4624220021054601A8BE
:204D000010F0D8FF23684FF480709847034694E8070006960AAF4FF4807607E9070001933A
:204D20000296CBB1ADB101A92846FFF779FD70B1019E56B3039D701911F009F8284403908A
:204D4000A7686FB1411C3046B847054628B9019B13B1626818469047002528460BB0F0BDCC
:204D600023680130984705460028F0D0DDE9022301339A4228BF1A46019910F073FF039B79
:204D8000EF54019863689847E7E70398D8E700BF7800002030B5044683B080B110F0D7FFA5
:204DA000084B421C1B68019210469847054618B1019A214610F056FF284603B030BD054633
:204DC000FAE700BF7800002030B3F8B50F46B9B11446AAB19042054612D09BB1D36843F4DA
:204DE00000769B0504D4206A10B10C4B5B6898472762E66021462846BDE8F840FFF728BC26
:204E00000020F8BD0846FFF7C5FF07460028F7D0E36823F40076E4E7002070477800002067
:204E200058B32DE9F041154F05464FF000082C462D68E268D10516460ED4A06828B1FFF7EE
:204E4000EFFFE268D305164606D4206998B17B689847E668C4F8108016F4007604D1206AFF
:204E600010B17B68984726627B6820469847002DDDD1BDE8F0811646EEE77047780000208E
:204E80000021FFF735BF00BF21B118B1884201D0FFF7DEBB002070470023FFF795BF00BF80
:204EA00030B583B005460191FCF7FAF904460199284622460023FFF787FF10B1204603B0E4
:204EC00030BD05462046FFF7ABFF2C46204603B030BD00BF38B50B4A05461068FFF7C8FB9F
:204EE000044638B110232846E360FFF753FF0546206108B1204638BD2046FFF791FF2C4615
:204F0000F8E700BF7800002030B583B0054610460191FFF7DFFF044601992846224600235F
:204F2000FFF752FF10B1204603B030BD05462046FFF776FF2C46204603B030BD08B5044BC3
:204F40001868FFF795FB08B12023C36008BD00BF7800002008B5044B1868FFF789FB08B151
:204F60004023C36008BD00BF7800002030B5174B83B000221A6004F0B9FA00BB002004F003
:204F8000D1FA134B134A93E80300FF250090ADF80410062400231048ADF8005069468DF8D2
:204FA00002408DF8043004F057FF58B901210A4804F0A6FF084804F097FF03B030BDFCF721
:204FC00049FCDBE7FCF746FCF0E700BF3C090020AC63010009500000B4630100014B18684D
:204FE000704700BF3C09002008B5064A13680133136002F0EFFB00B908BDBDE8084002F06E
:20500000CFBB00BF3C090020042800D07047FFF7EBBF00BF014B1868C00970473C0900201F
:205020004160806A07F0FEBAF0B5858C83B0044617461E464DB36A2D22D182294AD1456845
:20504000002D62D00023009304F1180204F11401284601F02DFED4E90431227E101E18BF01
:205060000120994284F8200046D0637E0133DBB26376002A3AD0032B0ED9042384F82030CB
:205080000023A384032003B0F0BD244B4560C0E904551B680583836201F040FA39463081E2
:2050A00000F07EFF2060F0B11D4BC36323681C64216991B921683046463101F045FA2368C4
:2050C000A3F84400206800F085FF6A230120A38403B0F0BD012003B0F0BD40230022304644
:2050E00001F0FEFDE6E7A0840220CCE7032BC4D8022384F82030C3E7089B606898472169C5
:20510000227E637E01312161B3E7032380F820302846089B9847A5840220B4E7842B00202D
:205120002150000010B5846882B01CB194F90830002B01DB02B010BD236A002BFAD01A68FF
:20514000002AF7D00749097831B11B6A23B101909847236A01981A68002302B0BDE8104070
:2051600000F0ACBE242A00202DE9F047124C82B02468DDF828A08CB106460F4691469846CE
:20518000656843464A463946304625B1CDF800A0A847054638B92468002CF1D100252846C1
:2051A00002B0BDE8F087B379012BF8D13A463146002000F093FCF2E7400900202DE9F04FD3
:2051C0002DED028BA64CA74E8BB005462046029101F034FBC4F8A0500346307008BBA2792F
:2051E000013A032A5AD9636823F07F4323F0FF03002B50D06379032B00F02D81208900F0D3
:2052000051FF48B1D0E90F8900F048FFB8F1000F02D093494846C0476379012B6FD93378C7
:205220004BB34FF00008C22B2BD0DFF85492404600F034FF3278C32A6ED0BF2A84BFA02218
:20524000327002212389864801F070F9D9F800100391084610F07BFD03990246804801F0DD
:2052600069FD02997E4801F06FF9029982B2284601F030F8337818460BB0BDEC028BBDE819
:20528000F08F404600F00AFF337818460BB0BDEC028BBDE8F08FC3233370AFE703902946D1
:2052A000208900F07DFE8046002850D0039B62790893CDE906334023ADF81630002A3DD143
:2052C000238969484522022101F030F9A27A002A40F0BC8007AB009361480DF116030022F4
:2052E00006A901F0E5FCF8B9089B002B37DADFF890915E4BC9F800308223337097E7E37CE6
:20530000C3F380185B060BD55549284600F0F6F93378002BAFD084E700223270032191E7F3
:205320003378002BA7D07EE7BDF81620079B0893402A28BF4022ADF81620D6E701F0EEF871
:20534000452203460121484801F0F0F8BEE7DFF83091474BC9F80030A323337067E7BDF8E6
:20536000163041493E4808AF08F18402009708EE903A08EE102AFFF7F7FE034600284CD1A1
:205380003748099309A901F063FC3A4BD3F800908246B9F1000F76D0099B9B462B464D46C0
:2053A00099460AE006DD2A7AD30603D51BF800202F2A08D02D68002D64D06F68384610F03D
:2053C000C6FC8245EED102465946384610F0C7FC0028EFD1A2794B46511EA946012A1D46DD
:2053E0004FF0010303FA01F300F0BE80990740F1A680D9F814A0BAF1000F00F0A08008AB52
:205400001748009318EE102A18EE903A1649D04799F80830580600F1BD803378002B7FF476
:2054200002AFA37D190756D5DFF83C9099F90630002B50DB99F816301A074CD4DFF84090D0
:205440000D4BC9F80030A1233370F0E60B49064801F0EAFB3EE72189284600F019FACDE65B
:2054600048090020262A0020F4090020BC630100DC63010044090020CC63010053090020B5
:20548000E00000204D465948842101F0C7FB5748842101F0C3FB3378002B7FF4C4AE534837
:2054A00008F1460101F050F880B2A8F8440020B9C123DFF844913370B9E63378002B7FF469
:2054C000B2AE404600F086FD337818460BB0BDEC028BBDE8F08F637D089AD91115D1002AD9
:2054E000DDD0DFF80891013218BF01224846402301F0F6FBB9F8A420D9F8A810402A28BF40
:205500004022484601F016FCC5E7079B9A4232D00132069944D0BDF81630DFF8D090012231
:20552000324801F0DDFBBDF81620B9F8A4309342B1D9D9F8A8102D4801F0FCFBABE75A0780
:2055400005D5D9F818A0BAF1000F7FF458AF1F0705D5D9F81CA0BAF1000F7FF450AF852155
:20556000224801F05BFB92E7D9F810A0BAF1000F7FF445AF3AE7DFF87490B9F8A40082424A
:2055800019D382231A4989F8063048460F2201F0D1FB80E7154A1749484600F09FFA3CE784
:2055A000DFF84890BDF81630B9F8A4209A4294BF00220122B4E7BDF816300699821A9A42AB
:2055C00094BF00220122484601F08AFB0798B9F8A430BDF81620D9F8A8101B1A9A42014441
:2055E00028BF1A46484601F0A5FB54E7F4090020BC63010048090020E000002010B504464D
:20560000416001460C4802F0E5FE94F90830002B00DB10BD206A0028FBD0036A002BF8D004
:205620000268002AF5D0054BC0E903340830BDE81040002300F042BC4409002025510000C0
:2056400038B50A4A137803B138BD094C094D236009490A482B6001241470FFF7CFFF00F01B
:2056600033FEBDE8384000F051BF00BF242A00204009002044090020EC63010090000020D9
:20568000014B1868704700BF4409002000B10068704700BF70B50C4D064613460C46002235
:2056A0003146284600F042FF00F008FE0146284600F04AFF054600F001FEAAB201462046AD
:2056C000BDE8704000F006BEA40A002070B50A4B1C687CB106460D4601E0246854B1237F15
:2056E000AB42FAD12A46314604F11D0010F0ACFA0028F2D1204670BDA00A002070B50C4694
:20570000897A82B009B902B070BD054604F10B00FFF7DCFF064628B36379DBB1F56A002D7C
:20572000F1D0A379413B3E2B1AD8E37C5B060BD501A9204601F0AAFA019B326B9A42E2D0A9
:20574000F56A3363012200E0022221463046A84702B070BD228929460220FFF79BFFDDE7F2
:205760000322F2E7228929460320FFF793FFCAE700B583B001460190044802F0A1FF01997D
:20578000034803B05DF804EB02F070BE84000020500B002070B50D4B1C68A4B105460026C1
:2057A00001E024686CB1294604F1180000F0EAFC0028F6D02046FFF7DBFF24680136002CFA
:2057C000F1D1304670BD2646304670BD500B00202DE9F041164B1C682CB305460F461646D3
:2057E0004FF0000801E02468D4B1294604F1180000F0C8FC0028F6D094F82C30B342F2D1B2
:205800003246394604F12D0010F01EFA0028EAD12046FFF7ADFF246808F10108002CE4D1FD
:205820004046BDE8F081A0464046BDE8F08100BF500B00202DE9F041144B1C680CB30646DB
:205840000F464FF00008251D314604F1180016B100F098FC78B1BD42284607D010F077FABD
:2058600039460246284610F0EFF920B92046FFF77FFF08F101082468002CE4D14046BDE8BE
:20588000F081A0464046BDE8F08100BF500B0020F8B50E4B1C68ACB105460E4600272946BF
:2058A00004F1180000F06EFC10B1E38EB34204D02468002CF3D13846F8BD2046FFF758FF24
:2058C0000137F5E727463846F8BD00BF500B00202DE9F04F2DED028B8046E1B00C4600280D
:2058E00000F0C88041680291084610F030FA05AE054602993046132210F043FA122D40F2CA
:20590000918000240DF1280A23465046452201210DF1D40BF47400F009FE2346012221466B
:20592000584600F003FE3146584601F09BF9304610F00DFA98F80830C3F300130546029350
:20594000604B1C68002C68D008EE106A09E005DD029B1BB163191B792F2B08D02468002C16
:205960005BD0271D384610F0F2F9A842EFD118EE100A39462A4610F0F2F981460028EDD1FE
:2059800000F0CCFD04F1180100F00AFB07460028E4D0A26B4C4B4D4903FB02124C4BB3EBA1
:2059A000B20F28BF8AF805908088E08604AB009307F184024FF0000CAAF80800402351460B
:2059C00058460392CDF810C0FFF7CEFB58B9B8F1000F73D004AB0093039AD8F810604023B2
:2059E00051465846B0479AF90630002B24DA94F82C2004F12D01504601F016F9049A32BB6D
:205A000007F14601504600F09FFDA7F84400384600F0E0FA2468002CA3D161B0BDEC028B87
:205A2000BDE8F08F002C3FF46CAF2146C5F11302701910F0A6F964E7A16B4B1CA363504614
:205A400001F02EF9A36B23F07F43A363CFE7013218BF012240230021504601F041F9BAF86B
:205A6000A420DAF8A810402A28BF4022504601F061F9C5E70029D0D005AE132230460DF173
:205A8000280A10F07EF90DF1D40B504643464522012186F8138000F049FD43460122584647
:205AA000414600F043FD3146584601F0DBF8304610F04DF901230546029341E780238AF849
:205AC000063094E7500B0020CDCCCCCC98999919CCCCCC0C0021FFF7FBBE00BF8B79012B57
:205AE00000D070472DE9F04792F90630002B82B0154650DBCB7C5B060C464CD5D1F8A0703A
:205B0000002F48D04B6E4BB1012B44D18A7A38460B3102B0BDE8F047FFF75ABE096E0191E5
:205B2000384694F80AA0D4F85C80FFF783FE204802F0AAFD064688B3B8F1120FC146C4BFB6
:205B40004FF01308C146B144424601994FF00008043010F087F8394606F1180089F8048040
:205B600000F000FB524604F10B0186F82CA006F12D0010F077F80F48A6F83680314602F0B0
:205B800029FCB16B4B1CB363284601F089F8B36B23F07F43B36302B0BDE8F0870649A3237B
:205BA00028461022AB7102B0BDE8F04701F0C2B884000020500B0020006401002DE9F04F57
:205BC0002DED028B83B008EE101ADDF8389001929846FFF755FD002800F0B6800025D9F831
:205BE00000B006462C46A34508D8454512D2019B4FF03C025A55D9F800B00135631C5B4563
:205C000008D3454506D2019B4FF02F025A55D9F800B00135D6F804A0504610F098F8023407
:205C200027185F4558D801D145456DD3D6F80CB07C1CBBF1000F17D09BF80030A3B1D9F809
:205C400000A0A24509D8454507D2019A3B235355D6F80CB0D9F800A00135584610F077F89A
:205C600002373C18544512D8454504D9D9F80030621B9A4271D83046FFF708FD0646002825
:205C800047D0DCB9D9F800B0A345B7D8ADE70198384AAAEB070308F10101002BACBF5B44E2
:205CA0000BF10003491B28440AF036FD0544454553D83046FFF7EAFC0646B8B3D9F800B060
:205CC000A34507D8454505D2019A2C235355D9F800B00135013486E70198264AABEB040B03
:205CE00008F10101BBF1000FACBF0AEB0B030AF10003491B28440AF00FFD0544454508D2FF
:205D0000D9F800309F4291D3019A3E23535501358CE715BB5CB9BEB1D9F800304344C9F853
:205D2000003003B0BDEC028BBDE8F08FADB9822118EE100A00F072FF18EE100A0E490F22F4
:205D400000F0F8FF002EE7D14FF0FF33C9F8003003B0BDEC028BBDE8F08F019918EE100A4D
:205D60002A4600F0E7FF18EE100A282100F068FFD1E700BF14640100BC630100014806F0CE
:205D800051BC00BFB40000202DE93048FFF726F90E4B1A68821A04D10D4BD3E90001BDE8BA
:205DA00030880B4C18604FF47A71A2FB01BCD4E900254FEADB1040EA4C6080184FEADC113A
:205DC00045EB0101C4E90001BDE83088580B0020C80400200148002106F06CBBB4000020BC
:205DE000074B0848084A1B6810B4002101240470116013B15DF8044B18475DF8044B70471B
:205E000034640100252A00206C0B00202DE9F0471E4B1B7882B0054643B3DFF874A02946CD
:205E20005046DAF8007002F021FBDAF8001019B3D5E90489002603E00C680E46F4B12146A6
:205E4000D1E90423994508BF9045F5D22A461048314602F02FFBDAF80050AF4209D00D4B81
:205E60009B68019302B0BDE8F0471847FFF7B8FFD3E702B0BDE8F087002DEED02A460448C2
:205E800002F018FBDAF80050E7E700BF252A00206C0B002034640100064B10B55B6804468C
:205EA0009847C4E9040121460348BDE8104002F0DDBA00BF346401006C0B0020084970B5BC
:205EC000496805461E4614468847241846EB0101C5E904412846BDE87040FFF797BF00BF09
:205EE0003464010038B50B4B1C687CB10A4B5B689847D4E90445A94208BFA04202D300208F
:205F0000014638BD201A65EB010138BD4EF66020002138BD6C0B002034640100F8B5134FAB
:205F2000134E7C68A04735683DB102460B46D5E904018B4208BF824201D20020F8BD2946DF
:205F4000304602F093FA6B680BB128469847BB6898473368002BF0D0D3E90467A047B942DF
:205F600008BFB0422CBF01200020F8BD346401006C0B002000B583B0014608300191FFF768
:205F80008BFF0199044802F071FA0199034803B05DF804EB02F094BB700B0020C400002098
:205FA00070B5064609480D4602F06EFB044658B10023868080F824302946263000F0D2F8AA
:205FC0000348214602F006FA204670BDC4000020700B00202DE9F04190F8463013F0300F84
:205FE0000446C3F3011526D190F82430042B13D8B0F8442000F14601263000F06BF994F824
:20600000243023B3226A5200226204F108000023BDE8F041FFF752BFD0E90F672630FFF77C
:20602000B9FB2046FFF7A6FF46B3294638463346BDE8F0411847B0F8442000F1460126307D
:2060400000F048F92046BDE8F041FFF793BF0C4BC4E9033406F06EFB0A4BA3FB00239B0A36
:2060600040F2DD5202FB130202F6B832226204F108000023BDE8F041FFF720BFBDE8F08166
:2060800089600000B76FA5AE806830B190F82430013380F82430FFF79DBF704708B1FFF741
:2060A00069BF7047044B02E09A88824202D01B68002BF9D118467047700B0020F8B50288B9
:2060C000044662B140F2B9139A4217D11D4B1B788B4217D040F2B91323800120F8BD114624
:2060E00010460BF035FA184B186038B343F21633038240F2B91323800120EFE70023038019
:206100000320F8BD114B1B789B07E3D5104E114F114DB7F800C0114F96E80F00203685E823
:206120000F003CF806C00E4E3A883168A5F810C000232846AB74FFF741F8CBE720800220DF
:20614000F8BD00BF3F3500208C0B002020340020282F00201A2A0020780B0020102F00202F
:20616000283400208B684A6830B40C68CD68C5600460426083600B8A03828B7C837430BC5F
:20618000704700BF38B5102205460C460FF05CFD58B92A8A238A9A4200D038BDA87CA37C1F
:2061A000C01AB0FA80F0400938BD002038BD00BF2DE9F0470C1E8AB08046174636DD0346A9
:2061C000002502E00135AC4230D0994613F8012B5B2AF7D1AC4229DD08EB05032E46B246D6
:2061E0000136B44222D013F8012F5D2AF7D13149062240460FF0B3FDB0FA80F04009AE42CC
:20620000B8741CDD484639460DF070F9B8B10AF1020A08EB0A0018F80A303A2B2CD0BB7C97
:206220001BB343F216433B8201200BE02149062240460FF094FDB0FA80F35B09BB74272C8E
:2062400003D900200AB0BDE8F0874146224668460FF008FD0AAB1C4468460023394604F86A
:20626000283C0DF043F90028ECD043F2163301203B820AB0BDE8F087023CA61BCFD00022AB
:20628000114604E001318E4203EB4C0209D010F8013F303BDDB2092D02EB820CF2D90029C5
:2062A000BDD0054BC2F3072103EA02230B433B820120C7E74064010000FFFF00014B1868C9
:2062C000704700BF283400200148002106F0F2B8D000002070B582B0B8B11446028848F2F4
:2062E000FE039A420E46054603D00A4B5B6A984758B1094A2B8A10680093314622462B46EA
:206300000CF0CEFB204602B070BD4FF0FF34204602B070BD286901008C0B00200C2830B45B
:2063200040D9B0F5867F94BF6FF02F046FF01F040C2935D9B1F5867F94BF0D230E2323432B
:20634000B0F5867F137016D96FF4867543191B0A0D385370907002230320B1F5867F15D959
:206360006FF486740C19D518240A0D391454A970D81C30BC70470C280FD90D38B1F5867F16
:2063800050704FF001034FF00200E9D80C29F0D90D39115430BC0130704701200023DCE774
:2063A0004BB2CCE703015CB2C2E700BF2DE9F0411E0C13F07F474FEA06461C4615460B46E6
:2063C00014BF01210021CEB1013124F0FF080231C01A2A46FFF7A2FFCFB1230E2B54421C39
:2063E0001EB3230CAB540230B8F1000F02D0230A2B5401302C540130BDE8F08134F0FF0813
:20640000E5D14CB9BDE8F041C01AFFF787BF6EB1230C2B540130EAE70131C01AFFF77EFF87
:20642000002FDAD1002CE7D0E4E71046B8F1000FDDD1002CE0D0DDE7F8B50E689DF8187038
:206440000C461D4616B902602360F8BD03689F550B6801330B600068114618442A460FF023
:206460000FFC23682B442360F8BD00BFF8B5069D401A29461F46FFF751FF3946044610186B
:206480002A460FF0EFFB2819F8BD00BF2DE9F04F83B092460C9A9DF83440019401320024F3
:2064A0009846834699460092274625468E4604E0009B01349C42274623D818F807C0019BAB
:2064C00008EB0706A6EB09069C450AEB0502ABEB0E00314602D00C9BBB42E9D1FFF71EFFE1
:2064E000054449460AEB050032460FF0BBFB0134009B08EB040901349C423544DE462746B0
:20650000DBD9284603B0BDE8F08F00BF08B506F011F9014B188008BD0C2A0020024B18881A
:20652000013080B2188070470C2A0020F8B504460F4616461D46AC2200210FF0BBFB6771CC
:20654000A6712581F8BD00BFF0B501220023016002710B7002680F461378017943EA81134B
:2065600013700268437911781B0103F030030B4313700268837A117803F00F030B43137010
:20658000036882795A70038902681B0A937003680289DA70837983B00446002B00F0408118
:2065A0000368827A1D1D62B16FF00301C91A00F10B0313F8012B05F8012BA67A6A18964208
:2065C000F7D8E37C9807C3F340010CD594F86A3000932A4604F16B0300210120FFF746FF0D
:2065E000E37C054401211A0709D5236C0093636C2A460320FFF73AFFE37C05440321DE066F
:206600000BD594F8243000932A4604F125030420FFF72CFFE37C05440421980607D50023EB
:206620002A460520FFF7C2FEE37C054405215A0607D5636E2A460620FFF7B8FEE37C05444A
:206640000621DB0907D02A46B4F850300720FFF7ADFE07210544237DDE070BD5A36C2F22BE
:20666000CDE900320820E36C2A46FFF70FFF237D0544082118070BD5E36D2F22CDE90032AD
:206680000B20236E2A46FFF701FF237D05440B21DA0607D5A38B2A460C20FFF787FE237D22
:2066A00005440C215E0607D5236A2A460E20FFF77DFE237D05440E21DB090CD0D4F8943020
:2066C0002622CDE900320F202A46D4F89830FFF7DDFE0F210544637D980708D5B4F868306D
:2066E0002A461120FFF762FE637D05441121DA060BD5636D2622CDE900321420A36D2A46D4
:20670000FFF7C4FE637D05441421DB091AD0636F94F878201B01002A40F08580B4F87A20DE
:2067200000201209461C52088446B0B2FAD118B10CF00F0C43EA0C032A461720FFF736FE7E
:2067400017210544A37D1E071BD5D4F8803094F884201B01002A69D1B4F8862000201209CA
:20676000461C52088446B0B2FAD118B10CF00F0C43EA0C032A461B20FFF718FEA37D05442A
:206780001B21D80607D52A46D4F88C301C20FFF70DFE1C210544E37D1A0709D5236B0093C8
:2067A000636B2A462320FFF761FEE37D05442321DB0908D0A36B00932A46E36B2720FFF7BE
:2067C00055FE27210544A37EDB0611D42368EB1A3E2B18DCB4F8A420E2B9D4F8A810284604
:2067E0000FF04EFAB4F8A400ED1B284403B0F0BDD4F890302A463C20FFF7D8FD2368054437
:20680000EB1A3E2BE6DD0B4B0B4A002020601A6003B0F0BDFF2305F8013BB4F8A420DCE794
:20682000042003B0F0BD43F0080377E743F0080392E700BFE000002054640100032A40F2AA
:20684000CC802DE9F04704460D4682B0002191460430A8220FF02EFA256095F800804FEAE8
:20686000981884F804802B78C3F3011363712A7802F00F02A2726B78A371A978EB78B8F14A
:20688000010F43EA012323817CD1082A00F2AC80291D8E1805EB090A564576D804F10B007E
:2068A0000FF0E0F900275645C4F81370C4F8177080F0A580337803F0F002F02A00F0878185
:2068C000711C8A454FEA131003F00F035DD90D285FD00E2868D00D2B62D00E2B70D0CE182A
:2068E000B24552D307443C2F4FD804EBD70C07F007029CF8130008FA02F20243781E8CF8D1
:20690000132002463B2A74D8DFE812F07B0073008600890094009700A400B300730073001D
:20692000BD00C7007300D500E2007300EC0073007300FB0073007300050173007300730024
:20694000240145017300730073007300730073006900730073007300690073007300730096
:206960007300730073007300730073007300730073007300730073007300730073007300E7
:2069800073005301A04BA14A1A60802002B0BDE8F0877078B11C0D308A45F6D90D2B9CD13D
:2069A00011F8013B0D339AE77078B21C92454FEA0020EAD9B27802F20D121044F11CEBE7B8
:2069C0000E4616F8013BB2454FEA0323DDD94A7802F20D121344023181E7802070478A4B1A
:2069E0008B4A1A60A520D1E7874B8A4A1A608020CCE7FB0700F10281B2453FF65BAF00208C
:206A0000C4E7082B28BF08231A4684F86A3004F16B000FF027F9EFE7C4E91031ECE7082BC7
:206A200028BF08231A4684F8243004F125000FF019F9E1E784F89C80DEE74BB1013BC818AC
:206A40000139002311F8012F884242EA0323F9D16366D1E753B1013BC8180139002311F8B3
:206A6000012F884242EA0323F9D19BB2A4F85030C2E72F200A46009004F1480104F14C0040
:206A8000FFF7DAFCB8E72F200A46009004F15C0104F16000FFF7D0FCAEE753B1013BC8183E
:206AA0000139002311F8012F884242EA0323F9D19BB2A383A0E74BB1013BC81801390023EB
:206AC00011F8012F884242EA0323F9D1236293E726200A46009004F1940104F19800FFF765
:206AE000ABFC89E753B1013BC8180139002311F8012F884242EA0323F9D19BB2A4F8683062
:206B00007AE726200A46009004F1540104F15800FFF792FC70E7002B6CD0013B0B4400206A
:206B2000013911F8012F8B4242EA0020F9D100F00703102120F00F02994089B202FA03F3AD
:206B4000C0F3C002000984F87820A4F87A10E367606751E7002B49D0013B0B44002001390B
:206B600011F8012F8B4242EA0020F9D100F00703102120F00F02994089B202FA03F3C0F3F4
:206B8000C002000984F88420A4F88610C4F88830C4F8800030E74BB1013BC818013900239C
:206BA00011F8012F884242EA0323F9D1C4F88C3022E74BB1013BC8180139002311F8012F87
:206BC000884242EA0323F9D1C4F8903014E70136751BA9EB0505ADB2402D88BF402500205B
:206BE000C4F8A860A4F8A4507055CFE6184610211A46C7E7184610211A46A4E7024B064A13
:206C00001A608220C2E600BFE000002084640100C46401009C640100EC640100FF299ABF0C
:206C2000817101200020704710B5082A28BF0822144682720B300FF015F8204610BD00BFDB
:206C4000037D818343F0100303750120704700BF037DC3F3C0021B0702D5036E0B60C26D5F
:206C6000104670470B782F2B10B5044603D111F8013F2F2BFBD0216608460FF068F8237D05
:206C8000E06543F00803237510BD00BFC27C0346C2F38010520644BF5B6E0B60704700BF7C
:206CA000C37C416643F04003C3740120704700BF30B40446407DC0110FD009B1656F0D6014
:206CC00012B194F87810117013B1B4F87A201A80029B13B1029AE36F136030BC704700BF94
:206CE00010B4A3F11004B4F5FE6F02D8B1F5801F03D300205DF8044B7047447D4167003AFF
:206D000064F07F0118BF012280F87820A0F87A3041755DF8044B0120704700BF11B1D0F8D8
:206D2000A8300B60D0F8A83013B1B0F8A4007047184670470346402A28BF40221046A3F8A7
:206D4000A420C3F8A81070472DE9F04105F0C2FAFEF70CF907F074FF05F0D4FB0021664856
:206D6000664FDFF8EC81664D664C674E05F0A2FB00F0B4FB0CF0D4FD09F010FD05F0B2FA5B
:206D800005F06EFC614B1B6898477B689847D8F804309847A979EB79226803EB0123022A93
:206DA000338025DC5A4B29686A6819605A605948002105F07FFB4FF0FF300AF0FDFF2368C4
:206DC000022B054600F3818005F0AEFAFEF738FC5148FDF77FFA0CF0CDFD05F099FB0446E2
:206DE0000CF0D0FD14F0FF0FF7D105F0A3FAF4E74A4A4B494B4805F0B9FA4B4805F022FC7A
:206E00002368022BCEDD454A4549464805F0AEFA464B4748196805F0A9FA2368022BC1DD38
:206E20003E4A3F493F4805F0A1FAD8F80010414805F09CFA2368022BB4DD384A384939486A
:206E400005F094FA39683C4805F090FA2368022BA8DD324A3249334805F088FA37484AF626
:206E6000CD3105F083FA2368022B9BDD2B4A2C492C4805F07BFA32481A2105F077FA236804
:206E8000022B8FDD254A2649264805F06FFA31882C4805F06BFA2368022B83DD1F4A20493E
:206EA000204805F063FA284805F060FA2368022B7FF778AF284601F043FB2368022B7FF739
:206EC00071AF0A2005F0BCFB6CE7144A1449154805F04CFA1D4805F049FA2368022B7FF74B
:206EE00073AF284601F01CFB2368022B7FF76CAF0A2005F0A5FB67E71801002018660100EC
:206F0000742A0020380100200E2A0020E0660100182F0020B00200206C6B0100086501003C
:206F20001065010018650100286501002869010060650100706501007C65010088650100D1
:206F4000A4650100C4650100D4650100EC650100A06B010030B590F82D50012D83B00446D0
:206F600011D91F2505F0E6FB094BB0FBF5F11B68009301FB1501074A234604F10C0000F055
:206F8000BBFA03B030BDE91C01258D40013DE9E7842B0020197000002DE9F0470D468B68AB
:206FA00092F82C708146506BD3E90068144601F05DFA686805F090FBA968134801F080FB3B
:206FC0001248294601F07CFB636B1B6873B10023A3852046FFF7BEFF36B13A46494640462B
:206FE0003346BDE8F0471847BDE8F08704F10C0000F0CAFA2146064801F038FA2146054880
:2070000001F05EFBE8E700BFE4000020FC000020F80B0020F0000020F8B12DE9F047436BA1
:207020001D6882B00446ADB1686805F06BFB63490C2005F037F90121072005F027F900F07B
:2070400059F900280ADAAB6823B1052022462946FFF7A2FF02B0BDE8F087704705F070F876
:20706000DFF85C8190F80290D8F8047005F068F8064605F06FF801463046B84705F022F935
:20708000D8F818600746B04770BB002F50D1D8F81CA0D04740BBD8F8087005F05BF8B847BC
:2070A00000285CD002281FD0AB68002BD2D00420CCE707F0F9FD6FF028031E1A03E007F023
:2070C000F3FDC64202D5D0470028F8D0D04700285DD0D8F81030032101A89847032803D1B3
:2070E0009DF806304B452AD0AA68002AB2D094F82D300133DBB2052B84F82D3094F82C30E2
:2071000006D90133DBB2002184F82C3084F82D10127A9A4205D8224629460120FFF73CFFAF
:2071200098E72046FFF716FF686805F0CFFA91E7D8F8086005F00EF8B0470028B2D1AB6871
:20714000002B87D094F82C3000200133294684F82C3084F82D002246FFF71EFF7AE707F0AE
:20716000A3FD6FF018073F1A03E007F09DFDC74202D5D0470028F8D0B047002899D1D0479D
:20718000002896D1D8F814309847002891D0A96800293FF45FAF94F82C300133DBB200229E
:2071A00084F82C3084F82D200A7A9A42B9D8224629460220FFF7F0FE4CE700BF742A0020B0
:2071C000E06601002DE9F04105460D200F4605F071F8064601F0E4F901210B2005F056F84C
:2071E000374B1C6814B914E0246894B13146201D01F0E8F80028F7D0606B01F051F907284E
:207200001EDDDDB138462B460122BDE8F041062118472C4801F038FA04460028F1D0314636
:20722000201D01F0C9F8002304F13002C4E90C322348A385214601F0CDF8DDE7BDE8F081A0
:20724000214801F021FA064660B3204801F01CFAB06018B305F018FA7060D8B10520D6F8BD
:20726000088005F019F8C8E9005710F0FF0006BF082388F8083088F80800606B314601F016
:20728000A9F8636B1B689E42D8D12046BDE8F041FFF760BEB1680D4801F012FA0A483146EF
:2072A00001F00EFA606B01F0FBF80028A9D12146034801F0DBF82146024801F001FAA0E7EA
:2072C000F80B0020F0000020FC000020E400002008B5054801F0C6F9044801F0C3F9BDE803
:2072E0000840034801F0BEB9FC000020E4000020F000002010B501210B2004F0C7FF024B4A
:20730000BDE810405B68184750660100014B9B68184700BF50660100014B1B6A184700BF8C
:20732000E0660100014B5B6A184700BFE066010010B50D4B82B01B6898470C4B04469B6A39
:2073400001A91920984701280BD0002C0198B8BF15248028D4BFC4EB0000C4F1800002B021
:2073600010BD002002B010BD50660100E0660100FFF728BF00B583B004F0E6FE032802D108
:2073800003B05DF804FBFFF7C1FF0028F8DB0D2004F090FF1F4901F015F8E8B10C2004F066
:2073A00089FF1C4901F00EF80028E9D101F002F9B8B1072004F070FF0028E1D00223ADF885
:2073C000043004F0BDFE144B8278DB688DF80620032101A89847D3E704F074FF0028DDD1E0
:2073E000CEE701F00DF9072004F056FF18B90B4B9B689847C4E70223ADF8043004F0A0FE2D
:20740000054B8278DB688DF80620032101A89847EDE700BF742A0020E0660100A06B0100E4
:2074200030B50D4C83B0A56A69461920A84748B901A90420A84738B101F0AAF8FFF748FF7E
:20744000236A984703B030BD0199E36A21F00201019104209847EFE7E0660100F8B503883B
:2074600005462BB14A2B14D1882916D00120F8BD174B1C6834B1A168201D00F097F9246801
:20748000002CF8D1134B01221A704A232B800120F8BD002303800320F8BD0D4B1C68002C78
:2074A000F3D0231D9A4205D02468231D002CECD09A42F9D10648084E214600F0D7FFD4E930
:2074C0000523376832600BB1E06998473760DCE7D80C0020272A0020842B0020034A044B35
:2074E000044800211170196004F0E4BF272A0020D80C00200801002070B50E4C049E257832
:207500004661C0E90623044635B9A1600A482146BDE8704000F05EBF084D094B2E682B60D4
:20752000043000F043F92E6021460348BDE8704000F050BF272A0020D80C0020842B002013
:207540000801002070B50C4B1B7804462BB921460A48BDE8704000F03DBF094D094B2E688B
:207560002B60043000F02CF92E6021460348BDE8704000F02FBF00BF272A0020D80C002090
:20758000842B00200801002010B50A4B1B7804463BB9C0E9033321460748BDE8104000F08E
:2075A00065BF043000F01EF921460348BDE8104000F05CBF272A0020D80C0020094B1A785F
:2075C00042B9094B01E0984209D01B68002BFAD1012070470069B0FA80F0400970470020D4
:2075E000704700BF272A0020D80C002010B50446C0B20CF061F90A2C01D0204610BD0CF093
:207600002BF9204610BD00BFF8B588B10F46461E002500E0013516F8014F20464CB1AF42C8
:2076200007D00CF049F90A2CF4D10CF015F9F1E705460CF011F92846F8BD00BF10B5FDF76C
:20764000CDFC0B4B1A68D2E9003192680B44191A52B1D2E9003423441B1A9268994228BFD7
:207660001946002AF5D14318024A136010BD00BFE00C0020DC0C00202DE9F84303880546DA
:207680005BB3592B2CD187292FD0822920D12C4FDFF8B4803C684FF00009CCB1002603E018
:2076A000A3682646A3B11C4620460AF033F90028F6D0E0682246882104F086FF0346404682
:2076C000002B2AD004F0AEFFA3682646002BEAD159232B800120BDE8F883194A1360F7E76B
:2076E000002303800320BDE8F883154F3968002019B9EDE789680120D9B1CB689342F9D069
:2077000000B139608B68002BE2D0D868904207BF9B688B6019469B68F5E7E360A3686EB1DE
:20772000B3603B68C4F808902BB1FFF787FF3C68B3E73960CCE7034A1360C9E73B60F1E77A
:20774000E00C0020DC0C00201801002010B50446104804F067FF1049E3680A684BB142B116
:2077600094420FD0134601E09C420BD09B68002BFAD10A4BA2601B68E3600C60BDE81040EA
:20778000FFF75CBF054B1B68E360BDE81040FFF755BF00BF18010020E00C0020842B0020F0
:2077A000014804F03FBF00BF1801002010B504460AF09AF82046BDE81040FFF7C7BF00BF65
:2077C00010B504460AF098F82046BDE81040FFF7BDBF00BF024B1868003818BF01207047D0
:2077E000E00C002010B5124B19688142044614D00B462BB19A68A24206D01346002BF9D1B2
:207800000023C4E9023310BDA2689A6049B1FFF715FF0023C4E9023310BD82681A60002A2E
:20782000F5D1044B00221A600023C4E9023310BDE00C0020DC0C0020014B1888704700BF4F
:207840009C03002000283ED0037A022B30B410D00378022B15D00379B3B10024C37913F0F5
:20786000030318BF012301B10C6002B1136030BC7047C579447A037965B90CB9012BF2D0D7
:20788000DBB100231C46EEE7447A14F0030418BF0124E3E7C4B1032D37D1032C2ED0022C6B
:2078A00024D143BB022D2DD00123032D24D1A4F10204B4FA84F46409D5E7023C012C8CBFC0
:2078C00000240124CFE770474BB9022D08BF0123EAD1A4F10304B4FA84F46409C3E7032D10
:2078E00001D0022D02D123461C46BCE7002BC8D1022DDAD1EDE701230024B4E7002BC0D136
:207900000123D4E701231C46ADE7022DC7D1002BF1D1022C4FF00103DBD11C46A3E700BFF2
