:020000040000FA
:20100000000004200D8800003588000037880000398800003B8800003D8800000000000052
:201020000000000000000000000000003F8800004188000000000000438800004588000088
:2010400079A70000799D0000A91F010047880000478800004788000015A40000478800009C
:20106000F9F50000478800004788000089A800004788000089A70000478800004788000016
:2010800095C80000478800004788000047880000478800004788000047880000478800004A
:2010A000478800004788000047880000478800004788000047880000000000000000000056
:2010C0004788000047880000478800004788000047880000478800004788000079C000002E
:2010E0004788000047880000478800000000000000000000478800000000000047880000E5
:201100000000000000000000000000000000000000000000000000000000000000000000CF
:201120000000000000000000000000000000000000000000000000000000000000000000AF
:2011400000000000000000000000000000000000000000000000000000000000000000008F
:2011600000000000000000000000000000000000000000000000000000000000000000006F
:2011800000000000000000000000000000000000000000000000000000000000000000004F
:2011A00000000000000000000000000000000000000000000000000000000000000000002F
:2011C00000000000000000000000000000000000000000000000000000000000000000000F
:2011E0000000000000000000000000000000000000000000000000000000000000000000EF
:2012000001F0FF01102A2BDB10F0070F08D010F8013B013A8B422DD010F0070F42B3F6D194
:20122000F0B441EA012141EA014122F007047FF000070023F0E80256083C85EA010586EA41
:20124000010685FA47F5A3FA87F586FA47F6A5FA87F68EB9EED1F0BC01F0FF0102F007023C
:2012600032B110F8013B013A83EA010313B1F8D10020704701387047002D06BF354603389F
:20128000073815F0010F07D1013015F4807F02BF013015F4C03F0130F0BC0138704700BF63
:2012A000002956D02DE9F047D1F8008092B00C46B8F1000F30D0D1E90196331D4B45054681
:2012C0002ED808EB0607A6493846042215F003FC002840D0731D994505D3A2490522384663
:2012E00015F0F9FB38B3A0493846042215F0F3FB38B34E4510D218F80630222B00F0F9802E
:201300002D2B31D0A3F13002092A2DD95B2B00F004817B2B00F08280002012B0BDE8F087E4
:20132000731D9945E5D38F49052208EB060015F0D2FB0028DDD10120E860A3680533A36038
:20134000EBE702230120EB606861A3680433A360E3E7002070470423EB60A36801200433A6
:20136000A36012B0BDE8F087731E002102AFA9EB06069844019138464FF02E0C18F8012FE4
:20138000452A15D82A2A15D9A2F12B031A2B11D8DFE803F04210423810424242424242425C
:2013A00042424210101010101010101010104200652A31D012AB0B44002601A9384603F890
:2013C000406C13F0D5F9DDF804A0BA4559EC108BA2D085ED060B60A3D3E9002310EE100A49
:2013E000494615F035F8002800F08B806FF000436B610823EB60A368AAEB07071F44A7600D
:2014000001208AE780F800C001313F2900F10100D0D0B142B2D1CDE70270F5E7E368B3F56B
:201420007A7FBFF479AF0133E36018F806307B2B7FF472AF0136A660204604F051F8D4E944
:201440000123934280F0BD802268D25C7D2A00F0DE800026013BA3603746B0463EE01860CB
:201460004360D4E901230133934280F0B080A360204604F035F8224606F1100106F10C0042
:2014800004F090F8002800F0A280204604F028F833693362C6F81080D4E90123934280F077
:2014A00096802268D25C3A2A40F091800133A360204604F015F821463046FFF7F1FE002831
:2014C00000F08580204604F00BF8D4E9012393427DD22268D35C2C2B40F09180206904F0E7
:2014E0006FF93346064600286ED0002FB7D10746B7E7224605F1100105F10C0004F052F808
:201500000BE71A4B00224046494614F097FF002851D04FF000436B616BE7E368B3F57A7FCE
:20152000BFF4FAAE0133E36018F806305B2B7FF4F3AE0136A660204603F0D2FFD4E90123B1
:2015400093423ED22268D25C5D2A53D0013B0026A360374625E000BF0000C0FFFFFFDF41C1
:20156000547601005C760100647601000000E0C118604360A3680133A360204603F0B0FFEC
:2015800021463046FFF78CFE03462046FBB103F0A7FFD4E90123934219D22268D35C2C2B49
:2015A0001AD1206904F00CF93346064660B1002FDED10746DEE74046494614F05DFF6861BA
:2015C00017E7013BA360A7E6002F3FF4A5AE384604F00AF90020A0E65D2BF8D1E368013B99
:2015E000E3607E602023C5E90273A3680133A360012092E6E368013BE3600027F2E77D2B17
:20160000E5D1E368013BE3607E604023EBE7E368013BE3600027F8E7D0B5038804463BB121
:201620005C2B0DD188290FD082290DD00120D0BD80211D4806F0A2FD5C2323800120D0BD14
:20164000002303800320D0BD05F050F9E8B905F031F902460B4652EA030116D010A7D7E900
:201660000067D90141EA5261D0018F4208BF86420FD3002908BFB0F57A7F0DD34FF47A729B
:20168000002314F041FF0146D3E708480BF078FCD2E74FF4F051CCE70121CAE7AFF300803E
:2016A000E733750000000000C00E0020D00000202DE9F04FA3B01F4600231E93A44B199242
:2016C0001B68079304461846884615F0FCF94FF0000A05464FF0000BCDF874801D9B1A789C
:2016E0002B2A4CD039D80D2A32D8082A32D8002A3CD000230E931D9E3378302B40F0B480CC
:20170000737803F0DF03582B6CD10E9B01931EAB029700938F4A1FAB1DA9204613F04AFB00
:2017200010F00707054605D0062F2AD1013600231D960E93199B002B40F096850E9BDBB13E
:2017400052460BF1004343EC102B23B0BDE8F08F202ACED101331D93C0E72D2AC9D10122C9
:201760000E925A1C1D925B78002BC4D1199BCDF87480002B40F0768552465B46E3E7002229
:20178000EEE71E9A3AB1352120A815F01BFC1E99204613F0F3FD013F052F07D8DFE807F076
:2017A0000E0B181D0E034FF0000BDA462807C1D54BF0004BBEE7DDE920ABF7E7DDE920A378
:2017C0001F9A23F4801302F2334243EA025BEDE7DFF884B14FF0000AE8E76FF0004B4FF0D2
:2017E000FF3AE3E71D9B5A1C1D925B78302BF9D0002B9FD001234FF0000904931D9B0A9320
:20180000CDF824904F460A221D980678A6F13003D9B209292AD907992A4615F05CF998B31C
:20182000002033463D4607900246652B01D0452B18D11DB9049B034398D00025DDF87480E2
:2018400008F101031D9398F801302B2B75D02D2B7BD04FF0000CA3F13001092940F2828066
:20186000CDF8748000269DE00023C4E7082FD8BF099900F10100DABF02FB0133099302FB79
:20188000093901371D90BFE71D9B5A191D925B5D002F37D007903D46A3F13002092A12D9B5
:2018A0000122C2E71D9B5A1C1D925B780130302BF8D0A3F13102082A00F2DB841D9A0790C0
:2018C00000200A920546303B00F1010214D00799114407912A4600EB050E0A21724513D1FD
:2018E0002A18082A05F1010505441CDC09990A2202FB0133099300221D9B591C1D915B78CC
:201900001046C9E73846D2E7082A04DC099E4E4309960132E2E702F1010CBCF1100FD8BF42
:2019200001FB09F9F5E7102DDCBF0A2202FB0939E1E70023079301227CE74FF0000C08F13B
:2019400002031D9398F8023085E74FF0010CF6E7AC7E0100247E01000000F07F1D9B591C11
:201960001D915B78302BF9D0A3F1310108293FF679AFA3F1300E1D9B08931D9B591C1D916E
:201980005B78A3F13006092E37D9089E891B082944F61F6602DC7645A8BF7646BCF1000FB1
:2019A00000D07642002D4FD1049901437FF4C2AE002A7FF4DBAE692B27D024DC492B24D075
:2019C0004E2B7FF4D3AE9E491DA815F073F900283FF4CCAE1D9B1B78282B2DD1994920AA60
:2019E0001DA815F07BF9052826D1219BDDF880A043F0FF4B4BF4E00B9CE60A2101FB0E3E38
:201A0000AEF1300EB9E76E2BDBE78F491DA815F051F900283FF4AAAE1D9B8C49013B1DA8C1
:201A20001D9315F047F910B91D9B01331D93DFF82CB24FF0000A7DE6854800F045FC8DED73
:201A4000040BDDE904AB75E6079B0998F31A002F08BF2F46102D0893A846A8BF4FF0100868
:201A600014F0F6F9092D82468B4613DD794B03EBC80353E9122314F065FA824648468B463C
:201A800014F0E6F902460B465046594614F0A4F882468B460F2D38DC089B002B3FF44AAE13
:201AA00024DD162B0BDC6B4D05EBC305D5E9000152465B4614F046FA82468B463AE6089AF6
:201AC000C5F12503934220DB624CC5F10F0504EBC50152465B46D1E9000114F033FA089B63
:201AE0005D1B04EBC504D4E90023E3E7089B16330BDB079B574A9E1B02EBC606D6E90023A3
:201B00005046594614F048FBD6E7089BA5EB08089844B8F1000F71DD18F00F030AD04D49DD
:201B200001EBC30152465B46D1E9000114F00AFA82468B4638F00F084DD0B8F59A7F22DD3F
:201B400000252E46099507952223DFF810B123604FF0000A099B002B3FF4ECAD1E99204651
:201B600013F00CFC0799204613F008FC3146204613F004FC0999204613F000FC2946204691
:201B800013F0FCFBD6E500234FEA2818504659469946B8F1010F21DC0BB182468B462E4B5C
:201BA000ABF1547B03EBC90952465B46D9E9000114F0C8F9294B0A460B4029498B42824623
:201BC000BED8A1F580118B4286BFDFF898B04FF0FF3A02F1547B0023049381E018F0010FAA
:201BE00007D01D4B03EBC903D3E9002314F0AAF9012309F101094FEA6808CAE7EBD0C8F170
:201C0000000818F00F020AD0124B03EBC20350465946D3E9002314F0BFFA82468B465FEA06
:201C20002818D8D0B8F11F0F1EDD00252E460995079522234FF0000A4FF0000B236089E74C
:201C400094800100387E01008B8001008E800100D2800100B0710100887101000000F07FBF
:201C60000000A07CFFFFEF7F18F0100318BF6A23DFF8B493049350465946002318F0010F38
:201C800004D0D9E9002314F05DF901235FEA680809F10809F2D10BB182468B46049BBBB126
:201CA000CBF30A53C3F16B03002B594610DD1F2B40F32881342BDEBF203B4FF0FF3202FA47
:201CC00003F34FF0000ACCBF4FF05C7B03EA010B002200235046594614F09CFB0028A4D179
:201CE000099B00930A992B463A46204613F0B2FB099000283FF424AF079B9E1B089B002B13
:201D0000B4BF334600231093089B002523EAE37318932E46099B2046596813F0EFFA079079
:201D200000283FF411AF099B1A69023203F10C0192000C3014F0ACFD4BEC10AB20AA1FA92D
:201D40002046CDE90AAB13F055FE1E9000283FF4FBAE0121204613F0C7FB064600283FF4B6
:201D6000F3AE1F9B0499002BABBF109A189A189FDDF84090ACBF03EB0209D71A209AA3EB81
:201D800001089044A34B08F1FF389845C2F1360280F2CC80A3EB08031F2BA2EB03024FF00E
:201DA000010100F3B68001FA03F3119300230C9309EB0208049BC14517441F444B46A8BF48
:201DC0004346BB42A8BF3B46002BC2BFA8EB0308FF1AA9EB0309109B002B17DD31461A46F1
:201DE000204613F03DFC064600283FF4ADAE01461E9A204613F08EFB0F9000283FF4A4AE02
:201E00001E99204613F0BAFA0F9B1E93B8F1000F00F39180089B002B08DD189A079920466C
:201E200013F01EFC079000283FF48EAE002F08DD07993A46204613F06DFC079000283FF45F
:201E400083AEB9F1000F08DD31464A46204613F061FC064600283FF477AE079A1E9920465C
:201E600013F0C4FC054600283FF46EAEC3680F930023C360314615F056F8002865DA0F9BEF
:201E800053EA0A0340F08780CBF31303002B40F082802BF000431B0D1B05B3F1D66F7AD9AE
:201EA0006B6913B92B69012B75DD29460122204613F030FC3146054615F035F800286ADDE6
:201EC0000499554A5B46002900F0858002EA0B01B1F1D66F7FDCB1F15C7F7FF7AAAE4F4AE9
:201EE0000023CDE916325046DDE91623594614F029F80B46034308BF222382468B4608BF65
:201F000023602BE64FF0FF3202FA03F303EA0A0ADEE6C8F17F4808F57F0808F57B4808F149
:201F2000E20801FA08F30C93119141E700230C93012311933CE71E994246204613F0EAFB1E
:201F40001E9000287FF466AFFEE55F466ED10F9ACBF3130342B3324A934228D1049B50466B
:201F6000EBB12D4A3A40B2F1D46F4FF0FF3119D8120DC2F16B0301FA03F3984217D1294B27
:201F80009F4202D101303FF4DFAD234B3B4003F5801B4FF0000A049B002BA0D1DEE54FF09B
:201FA000FF33EAE70B46E8E753EA0A0388D00C9BDBB13B42EFD00F9B049A50465946C3B1FC
:201FC00014F0AEFD02460B46DDE90A0113F004FE82468B46DFE71340A3F580136FEA135B3F
:201FE0006FEA0B5B4FF0FF3AD5E7119B13EA0A0FE0E714F095FD02460B46DDE90A0113F062
:20200000E9FD0022002382468B4614F003FA0028C1D00EE602FCFFFF0000F07F000050395A
:20202000FFFF0F00FFFFEF7F607101003146284614F095FF59EC108B10EE100A00224FF07F
:202040008043494614F0FAF900287CD00F9B002B4CD0954B0022CDE90C23DFF84C924FF0F7
:202060000008924B3B401193119A914B9A4240F0B280DDE90A23DDE90C01A7F1547B4BEC33
:2020800010ABCDE91623CDE90C0113F037FCDDE90C0153EC102B13F055FF52465B4613F0BD
:2020A0009BFD0B468149834A1940914282465ED90B9B02F15472934203D10A9B01333FF461
:2020C00043ADDFF8FCB14FF0FF3A1E99204613F055F90799204613F051F93146204613F073
:2020E0004DF92946204613F049F913E6BAF1000F1BD1CBF31303F3B96B4B00224046494674
:2021000014F092F9D0B9404649466B4B002213F019FF8046894609F10043CDF868801B9372
:20212000DDE91A23CDE90C239BE7BAF1010F02D1002F3FF47EAD614B00228CE7DFF87891F9
:202140004FF00008E7E75C4B40464946002213F0F9FE0F9B8046894633B901F10043129090
:202160001393DDE91223DDE7CDE91289F9E703F1547B049B002BA8D12BF00043119A1B0D92
:202180001B059A42A1D14046494614F0D5F913F0ABFE02460B464046494613F01BFD0F9ACC
:2021A000CBF3130343EA0A0313438046894653D035A3D3E9002314F037F900287FF4CEAC03
:2021C00033A3D3E900234046494614F04BF900283FF47BAFC2E4049B33B3119BB3F1D46FAA
:2021E00022D82DA3D3E900234046494614F026F9A0B14946404614F067F9012838BF0120F3
:2022000013F026FE0F9B8046894613BB01F1004314901593DDE91423CDE90C230D9B119AD4
:2022200003F1D6639B1A0D93DDE90C019DED0A0BCDE90C0113F062FBDDE90C0153EC102B3A
:2022400013F080FEDDE90A2313F0C6FC82468B468FE7CDE91489DDE711A3D3E9002314F088
:20226000E3F8B4E700230E93199A1D9B1360FFF765BA652B3FF45DAB452B3FF45AAB01229B
:20228000FFF792BBAFF300809535A094FFFFDF3F35E5AF350000E03F0000C0FFFFFFDF41C5
:2022A0009535A094FFFFCF3F0000F03F0000F07F0000E07FFFFF9F7C0000E03F0000F0BF30
:2022C000FFFFEF7F000000009FED010B704700BF000000000000F87F10B5054C237833B970
:2022E000044B13B10448AFF300800123237010BD2009002000000000F081010008B5034B13
:202300001BB103490348AFF3008008BD0000000024090020F0810100A3F5803A704700BFEC
:20232000174B002B08BF134B9D46FFF7F5FF00218B460F461348144A121A14F0D1FA0E4BCA
:20234000002B00D098470D4B002B00D098470020002104000D000D48002802D00C48AFF3DA
:20236000008011F04BFE2000290005F0D5F911F01FFE00BF000008000000000000000000A2
:2023800000000420D8040020003600200000000000000000F0B50388812B9DB004460D4601
:2023A00000F0968011D9862B00F0AD80992B1DD15E4B1B68013366D05D4B1B68012B62D08E
:2023C0009923012023801DB0F0BD002B00F0A380752B0BD1574B1B788B420CD001201DB07D
:2023E000F0BDC6B9544805210AF06EFC0023032023801DB0F0BD022006F0ECFA4F4A5048F9
:20240000152104F0BDFB4F4B1E684F4B1B68042BE7DC002E46D04D4B93E8070003AB03C3D9
:2024200000211A700DF115005B2214F059FA03AD474905A814F03FFB284614F044FB454B9E
:20244000454A9F889E790146186868506B1828469F809E71063104F093FB29463F480AF068
:2024600033FC3F4A3F493C48002303F01BFF3E4B3E4902463E481A6003F0D0FD3D493E4844
:2024800003F0CCFD9CE73D480AF08AFD364B186808B103F02BFE3A480AF0DCFC0023238007
:2024A00002209CE7334602223648314604F026FD3549344805F0BEF808223449314805F014
:2024C00021F933480AF06CFD324A812396842380314B0093194A2B4B2E48294603F0B4FAB9
:2024E000012820D9174B1E68002E8ED1164A2B4813684FF4A0610133136005F03FFE862331
:20250000238001206BE7254BDB68002B7FF466AF0C4B1E6879E7022006F030FA7523012007
:2025200023801DB0F0BD002059E700BF68090020900A0020EE35002048730100680A002083
:2025400078720100A4090020A8090020807401006C090020D47201007C0A0020DC7201002C
:202560001527000000730100A009002008730100C801002014730100A4010020207301009C
:2025800008000020BC09002090720100A8720100B47201003C090020A1250000AC090020E9
:2025A000F0B583B06D4600AF002839D0391D05F09DF800F1080323F00703ADEB030D0446C5
:2025C00022467968684614F098FA00230DF8043069461D480AF078FB684603F0C7F90446E6
:2025E00028B31A4903F0C6F9064603F0C7F948B917480AF0D5FC204603F0F6F80C37AD4644
:20260000BD46F0BD3369134A134832210EF028FC114912480AF058FB114B01221A60EAE776
:2026200010480AF0BDFCAD460C37BD46F0BD03F0D3F802460028F6D00B4B0C491B68D86847
:2026400011F0CAFCAD46EFE788730100047C0100E4730100BC7301006C090020C07301001C
:20266000A409002070730100F8020020A473010030B3F0B583B000AF391D05F037F800F1A2
:20268000080323F0070304466D46ADEB030D224679686846002614F0FBF80DF80460684642
:2026A00014F0E4F80446014619480AF00DFB012C21D0022C12D024B10C37AD46BD46F0BD5D
:2026C0007047204606F086F9022006F083F9042006F054F90C37AD46BD46F0BD042006F06D
:2026E00079F9304606F076F9204606F047F90C37AD46BD46F0BD042006F06CF9022006F074
:2027000069F9304606F03AF90C37AD46BD46F0BD1074010061B110B507480C460AF040FC9F
:202720002046FFF7A5FFBDE8104004480AF028BC03480AF035BC00BF2C74010008000020BC
:202740004C74010000B585B00346002101AA44F20100CDE90111039300F004F805B05DF82E
:2027600004FB00BF72B6094B1B68DB0700D500BEBFF34F8F0649074BCA6802F4E062134336
:20278000CB60BFF34F8F00BFFDE700BFF0ED00E000ED00E00400FA050378052B02D0094BBE
:2027A0001B681847084BD3F88424D3F8803413F0FF0FF4D1054BD2B2052A08BF1846014BA8
:2027C0001B681847940A00200070024004750100014B02481B681847940A00200875010079
:2027E000012803D0022809D020B17047054B06481B681847034B05481B681847014B0448BD
:202800001B681847940A0020FC740100F8740100007501002DE9F04F87B0002504460F4674
:2028200090469946029500E001356268012356682146002202A8B0470028F5D18DF80600E7
:20284000049065B3824683460AE09DF806306668023B7668B0479DF806309B445D451ED963
:2028600062680123566821460DF1060204A8B04762680123566821460DF1070204A8B047DF
:202880009DF80730BB424FF00002214604A8DCD1D04508D00AF1010A5FFA8AFAD5E70520BD
:2028A00007B0BDE8F08F109A9DF80630136089F8003089F801706168023B4D6809F10202F9
:2028C0002146A847002007B0BDE8F08FF0B5054683B03B4808F0FCFE044610B1204603B0EB
:2028E000F0BD384A3849394B14700C604822214637481C6013F0F4FF36482146482213F0A0
:20290000EFFF002D54D095E80700334B83E80700002847D0002007F029FB08B1852844D10F
:202920002E4D2B7A002B49D0013BDBB205F10C024FF0030E6E68274FDFF894C01EFB032E55
:2029400005F109046378EBB1A278611C1144013B51FA83F1224408E003F00F0307EBC3030B
:2029600091421D60306858600CD012F8013B1806F2D503F00F030CEBC30391421D60306806
:202980005860F2D103347445DCD10B238DF804301248336801A99847044600289ED008F0E2
:2029A000D9FE9BE70E4A1A60B4E7FFF7CBFEB7E7094B0B4A5D601D721A60ABE76E68E4E752
:2029C000992700006D2B0020300B0020340B0020A00A0020E80A0020940A00203475010081
:2029E000A92D000010B508F0CFFF68B108F0D4FF044648B9064807F0CDFA034628B1FFF723
:202A0000A1FE2346184610BD0823184610BD00BFF474010008F0A8BE09F0A6BD4FF0804349
:202A200003E0D3F83824D10707D5D3F838249207F7D5024B02481B6818477047940A00205E
:202A40000C75010000B5054B83B082221B688DF8042001A8984703B05DF804FB940A00209F
:202A60002DE9F043057A83B0002D5ED005F1FF3E5FFA8EF300F10C024FF0030E00F10901A9
:202A8000334FDFF8D4C01EFB032E0C4666780022964204EB020319D094F8028013F9089046
:202AA00013F80830B9F1000F0BDB03F00F0307EBC3031B680132002BEAD0112003B0BDE853
:202AC000F08303F00F030CEBC303F2E70334A645DCD100261E4FDFF880C0324602EB4202C6
:202AE0000A445378EBB1002423460CE003F00F0307EBC303186045682D685D605578013472
:202B0000E3B29D420CD99578134413F905E05B5DBEF1000FEADA03F00F030CEBC303E9E73B
:202B2000057A0136F2B29542D8D80A4A13681BB11A681368002BFBD1106043680B228DF858
:202B400004201B6801A9984703B0BDE8F08300BFE80A0020300B0020A00A0020024B1878A7
:202B6000003818BF012070476C2B0020030710B5044604D52046BDE8104009F08DBB09F030
:202B8000A5F8204609F0E0FB2046BDE8104009F083BB00BF09F0C6BD014B1868704700BF4F
:202BA000300B0020F0B40E4B1F688FB13E7A96B100231C463A4602E0DCB2A6420BD9557AE7
:202BC000854203F1010302F10302F5D101B10C703846F0BC70473B681F68002FE6D1F7E77B
:202BE000300B0020436811461B68184700F00F03082B0AD802064CBF054A064A02EBC3031A
:202C0000186810B143681B6818471020704700BFA00A0020E80A002038B5094B1C6864B18A
:202C2000054602E023681C683CB1636829461B68204698470628F5D038BD062038BD00BFA7
:202C4000300B002038B50D46044608F011FF18B1054B1B78022B01D0082038BD29462046EB
:202C6000BDE8384008F014BF6D2B002038B50D46044608F0FDFE18B1054B1B78022B01D08D
:202C8000082038BD29462046BDE8384008F092BF6D2B0020F8B543689B6805460C461646D0
:202CA0001BB19847062800D0F8BDEEB92B7AA3421CD9093504EB44042C44677897B133460B
:202CC0003A469A420BD9A378A2190136D05CFFF74DFFF3B2BB4205D262789A42F3D800231C
:202CE0001B78FFDE0020F8BD0720F8BD7378FFDE70B54368DB6805460C4603B198472B7A03
:202D0000A3421AD9093504EB44042C4466789EB100252B46324693420BD2A378621901353D
:202D2000D05C09F0FFFCEBB29E4205D962789342F3D300231B78FFDE70BD00235B78FFDE10
:202D400043681B6903B118471846704770B50A4B1D687DB12E7A4EB1002421460134002266
:202D60002846FFF797FFE1B2B142F7D32B681D68002DEFD170BD00BF300B002070B5094B44
:202D80001D6875B12E7A46B10024214601342846FFF7AEFFE1B2B142F8D32B681D68002D82
:202DA000F0D170BD300B002070B503780446852B00F2BF80DFE813F00002B201BE003A0286
:202DC0006602E300EA00BD00040117012A01BD00BD00BD00BD003D01BD00BD00BD00BD0093
:202DE000BD00BD00BD00BD00BD00BD00BD00BD00BD00BD00BD00BD00BD00BD00BD00BD0003
:202E0000BD00BD00BD00BD00BD00BD00BD00BD00BD00BD00BD00BD00BD00BD00BD00BD00E2
:202E2000BD00BD00BD00BD00BD00BD00BD00BD00BD00BD00BD00BD00BD00BD00BD00BD00C2
:202E4000BD00BD00BD00BD00BD00BD00BD00BD00BD00BD00BD00BD00BD00BD00BD00BD00A2
:202E6000BD00BD00BD00BD00BD00BD00BD00BD00BD00BD00BD00BD00BD00BD00BD00BD0082
:202E8000BD00BD00BD00BD00BD00BD00BD00BD00BD00BD00BD00BD00BD00BD00BD00BD0062
:202EA000BD00BD00BD00BD00BD00BD00BD00BD00BD00BD00BD00BD005101860060011C02DF
:202EC000E301E3008C4B8D49D3E9000290478C4B1C684CB1894D636820461B6829469847B9
:202EE00023681C68002CF6D1864C63680BB10D209847FFF743FF01F075FB834B1B68002B56
:202F000000F0FD810120814D08F00CFD2A78931EDBB2062B00F215827D49CB5C13B107F011
:202F20000BF82A78022A40F00C8208F077FD01232B7070BD754D2A78931EDBB2062B00F2E5
:202F4000CD817349CB5C13B106F0F6FF2A78022A40F0C48108F062FD6A4B5B6803222A70C0
:202F60000BB102209847664B1D6845B16B6828461B68214698472B681D68002DF6D15E4BA9
:202F80002146D3E90002BDE87040104790F902308278002BB4BF5F4B574B02F00F0203EBD0
:202FA000C203D3E90002214690470028C1D0A0780207BED00307BCD4BDE8704008F058BEEB
:202FC000504B5B680BB1082098474D4B1D68002DAFD06B6828461B68214698472B681D68E5
:202FE000002DF6D1A5E7474B5B680BB109209847434B1D68002D9CD06B6828461B68214661
:2030000098472B681D68002DF6D192E73D4B5B680BB10A2098473A4B1D68002D89D06B68D9
:2030200028461B68214698472B681D68002DF6D17FE7344B5B680BB10F209847304B1D68DB
:20304000002D3FF476AF6B6828461B68214698472B681D68002DF6D16BE72C4C2378062B3F
:2030600000F04F8103F0FD03052B7FF462AF08F0DFFC0223237070BD244DFFF77FFE09F054
:2030800067FA2A78931EDBB2062B31D82049CB5C13B106F051FF2A78022A29D108F0BEFCA1
:2030A000174B1C6800232B704CB11B4E636820461B683146984723681C68002CF6D10E4BA1
:2030C0001549D3E9000290470E4B5B680BB10E2098472B78023BDBB2062B3FF62AAF0C4A16
:2030E000D35C002B3FF425AFBDE8704006F024BF082AD5D1D2E700BFE80A00201075010059
:20310000300B0020940A0020340B00206D2B0020EC740100A00A0020147501009C4DFFF7EB
:203120002DFE01F055FA2A78931EDBB2062B00F2D9809849CB5C002B00F0D480022A03D052
:20314000082A01D008F074FC934B5B6802222A700BB101209847914B2146D3E90002904711
:203160008F4B1D68002D3FF4E4AE6B6828461B68214698472B681D68002DF6D170BD844DEA
:203180002B78032B00F0C68008F010FC00283FF4D0AE2A78931EDBB2062B40F2EB808148D4
:2031A00006F09CFE2A78022A01D0082A01D108F035FC06232B7070BD754B1B78032B00F051
:2031C000A580082B00F0A280734B5B680BB100209847754B1D68002D3FF4ABAE6B6828460A
:2031E0001B68214698472B685D68002DF6D170BD674D2B78032B7FF49CAE09F0E5F900284C
:203200003FF497AE2A78931EDBB2062B00F2BB806049CB5C13B106F08FFE2A78022A40F0E3
:20322000B28008F0FBFB04232B7070BD584D2A78082A5CD0931EDBB2062B00F286805549D5
:20324000CB5C002B00F08180022A00F0878005232B70514B5B680BB1032098474F4B214627
:20326000D3E9000290474E4B1D68002D3FF461AE6B6828461B68214698472B681D68002DDD
:20328000F6D170BD444B5B680BB103209847434B4649D3E900029047414B1C684CB1434DDB
:2032A000636820461B682946984723681C68002CF6D1374D2B78062B1ED0082B0BD09A1EFE
:2032C000D2B2062A4DD833498A5C002A49D0022B01D008F0ADFB02232B7070BD082A7FF440
:2032E0003BAE37E62F4806F0F9FD2A7826E702232B7008F0A7FBACE707232B7070BD207A3D
:2033000001E608F095FB0823237070BD2848FFF74BFD59E709F058F900283FF435AF2A783A
:20332000931EDBB2062B2BD81A49CB5C13B106F003FE2A78022A23D108F070FB04232B70EF
:2033400022E7082A7FF4F3ADEFE5164806F0C6FD2B78022B02D0082B7FF479AF08F05EFB73
:2033600075E7104806F0BAFD2B78022BB3D0082BB1D0AEE70749CB5C002B7FF414AF0EE783
:20338000082ADBD1D8E7082A7FF44DAF49E700BF6D2B0020EC740100940A0020E80A002017
:2033A000300B002018000020340B00201C750100187501004360CA699A4205D38A6902601C
:2033C0000B67CB610020704701F1280202608B6700207047F0B504680E7A002C00F0728486
:2033E000A4F212347C2C00F2C1827C2C00F2BE82DFE814F074020003DE02CF02C7022A034F
:2034000007032303BC02BC02BC02BC02BC02BC026702D702BC02BC02BC02BC02CC010F03EF
:20342000E602BC02BC02BC02F401EE038C03BC02BC02BC02BC02FF00CB034803BC02BC0269
:20344000BC02BC02BC02BC026402BC02BC02BC02BC0219019B039303AC035703BC02BC0243
:20346000C3038403B40339035F03BC02BC024103DB015003ED00BC02BC023203DB00F5034A
:20348000BD00BC03BC02BC02BC02BC02BC02BC02BC02BC02BC02BC02BC02BC02BC02BC024C
:2034A000BC02BC02BC02BC02BC02C900D303BC02BC02BC026703BC02BC02BC02BC02AC006F
:2034C000BC02BC02BC02BC02AC00BC02BC02BC02BC02BC02BC027D00C002BC02BC02BC025B
:2034E000BC02B800BC02BC02BC02BC02B80001240025002A00F0CD8307795755A3424FF0A2
:203500000005057140F27C83171901343D70B04D0F7D2D682D78AF4200F0B0838F7DAF4219
:2035200009D10025A342057140F24D85254601340AB107795755DFF8A0C2A64F9CF8005094
:203540003F780135EDB28CF800507BE1012500240AB1077917554024AB42047140F28983BA
:203560006C1CC6E701240025002AE2D1E3E701240025002A40F031848D7D0571A34240F235
:2035800062830134FFE001250024002A00F03D8307791755AB424FF00504047140F27E8345
:2035A000274602EB050C6C1CFDE201250024002A40F011840624AB42047140F23F8301354A
:2035C0000C7D0471AB4240F291836C1CD4E701250024002A40F003840524AB42047140F28F
:2035E00028836C1C2425A342057140F27583651CE0E701240025002A00F0FA830779575575
:203600004FF0000CA34280F804C040F29084651C0027AB4202F804C0077140F2F383541918
:2036200001352770F3E001250024002A00F0EF8307791755AB424FF02404047140F2C183E9
:20364000274605F1010C002463455755047140F2A98325460CF101071024BB4202F80C50B8
:20366000047140F29083254607F1010C01246345D555047140F2788325460CEB04070524F1
:20368000BB4202F80C50047140F25D83254607F1010C24246345D555047140F24A832546E7
:2036A0000CF101070124BB4202F80C50047140F23683254607EB040C03246345D555047152
:2036C00040F228830CF1010702F80C40BB4291F816C080F804C040F218837C1C0425A342B7
:2036E00002F807C0057140F20B8302EB040C2F4601342425A3428CF80070057140F2FB82E5
:203700002F46651C1755AB424FF00204047140F29F82274602EB050C6C1C0225A3428CF8CA
:203720000070057140F2DD822F46651C1755AB424FF00504047140F27C82274602EB050C6B
:203740006C1C2425A3428CF80070057140F2C4822F46651C1755AB424FF00604047140F292
:203760006D82571901353C700F7D0771AB4240F2BD826C1C5755A3428D7D057140F26382F6
:20378000171901343D70124D2D6851E001270024002A00F04082057915559F424FF00004BE
:2037A000047180F0F5827D1C39E101250024002A40F017830224AB42047140F249826C1CAF
:2037C0000225A342057140F28C82651C04E700BF380B00206E2B0020702B002001240025DB
:2037E000002A00F09883077957559C424FF00205057180F05883671C1555BB424C7E04715A
:2038000040F2E48202EB070C7D1C8CF800400024AB42047140F221826C1C0AB107795755E9
:20382000C64D91F814C02D682F78BC4500F01A82DFF810E3DFF810C36F788EF800700025D9
:203840008CF80050BD423FD3BD4F3D780135EDB23D70AE4240F2CA810925A342057140F218
:203860005583651C002A00F0128307791755AB424FF00404047140F2B682274602EB050CD6
:203880006C1C8CF800700F7AAD4D2D78AF4240F2AC8305EB450501F10907DFF8A0C217F8AE
:2038A00005E080F804E03D449C42CCF8005080F07E82671C002A7FF46EAFACE101240025D0
:2038C000ABE701250024CDE70725A342057140F29281651C002A7FF45BAE96E1002A00F0D4
:2038E000EB8204791470012B4FF00B04047140F2238302250127D455AB420F7D077140F2F8
:203900005B8205F1010C022463455755047140F2448225460CF101070224BB4202F80C50F7
:20392000047140F22B82254607F1010C02246345D555047140F213820CF1010702F80C4044
:20394000BB4291F819C080F804C040F2F7817C1C0025A34202F807C0057140F2E581171981
:2039600001343D70764F00253D7072E7002303601846F0BD002A00F0F28205791746012456
:20398000C4E5002A00F0F28205794FF0010C0027CCE7002A00F0EC82057901274FF0000CD3
:2039A000BAE7002A00F0FF8207799446012468E7002A00F0D78207794FF0010C0025A2E710
:2039C0005E4C002A00F0E68207792468944601258CF8007024780F7DA74200F0B9818F7D74
:2039E000A7427FF414AF0A249D42047180F0F5826C1C00E6002A00F0D28204790125002799
:203A000079E7002A00F0B08290F804C0012400279EE7002A00F0C182047901250027DFF8DF
:203A20001CC1D455DCF80040AB426778077140F2A08102EB050C0135CAE7002A00F0B182A3
:203A40000579174601248CE7002A00F08482047901274FF0000C71E7002A00F0A7820779C8
:203A6000944601246DE6002A00F08E82047901274FF0000C28E6002A00F0A1820779944635
:203A8000012436E6002A00F000821446077927700125BCE6002A00F08E8207799446012467
:203AA0003BE6002A00F07282057901274FF0000CE5E5002A00F0608290F804C00124002788
:203AC0000CE61E4C0125276800241AB190F804C002F804C03C780F7DA74200F0E9808F7D4E
:203AE000A7427FF438AD0224AB42047140F270822C460135002A7FF42CAD2CE5002A00F090
:203B00004782057901274FF0000CCBE5002A00F0BC8104799446012577E6002A00F0168258
:203B2000057901274FF0000C96E5002A00F0458207794FF0010C002585E500BF380B0020BB
:203B40006F2B00206E2B0020702B0020002A00F0308205794FF0010C002787E5002A00F0F4
:203B60000F8205794FF0010C0027A5E5002A00F0F48105791746012404E6002A00F0218203
:203B800005794FF0010C002783E5002A00F0F68190F804C0012500243AE5002A00F0EA8101
:203BA0000779944601248CF80070C14FC14D3F682D7897F801C0AC4540F2148297F802C0CE
:203BC0003D44A34215F80C5005716CD9651C7CE7002A00F0D7810579012700240CE6002A1F
:203BE00000F0B681047917460125BCE540F2993303600120F0BD40F26D3303600120F0BDCB
:203C00004FF4617303600120F0BD0524AB42047144D96C1CC9E79F42027180F0B9807D1CE6
:203C2000A34C2468AB426778077140F2A2800135D0E640F2553303600120F0BD40F25733DE
:203C400003600120F0BD40F2593303600120F0BD40F2513303600120F0BD4FF44F730360F5
:203C60000120F0BD0525A342057140F21781651CDBE440F2833303600120F0BD0D6AA34272
:203C80002D7805713FF652AC40F2893303600120F0BDA3420271B3D9013438E440F26E33AF
:203CA00003600120F0BD40F2723303600120F0BD0324AB4204713FF61BAF40F27733036004
:203CC0000120F0BD08240471002B7FF407AE40F2123303600120F0BD40F25633036001203B
:203CE000F0BD40F2523303600120F0BD4FF4567303600120F0BD4FF4547303600120F0BDB7
:203D000040F24F3303600120F0BD4FF4537303600120F0BD40F24B3303600120F0BD40F271
:203D20004A3303600120F0BD40F2193303600120F0BD40F2493303600120F0BD4FF446734B
:203D400003600120F0BD4FF4527303600120F0BD02249D42047180F0F4806C1C40E540F2BC
:203D6000173303600120F0BD40F2453303600120F0BD4FF44A7303600120F0BD40F2163341
:203D800003600120F0BD4FF4517303600120F0BD40F2273303600120F0BD40F21533036020
:203DA0000120F0BD40F2433303600120F0BD40F2263303600120F0BD4FF445730360012021
:203DC000F0BD40F2423303600120F0BD40F22E3303600120F0BD0779BCE40779CAE40779CC
:203DE000A4E407798EE440F2213303600120F0BDA342027140F29B80013400259C4205713F
:203E0000C0F0938040F2353303600120F0BD2424AB420471D5D96C1C00259C420571C1D228
:203E2000013410259C420571ADD2013401259C42057199D22C4405259C42057183D20134B3
:203E400024259C420571BFF474AF013401259C420571BFF464AF2C4403259C420571BFF4DB
:203E600059AF01348D7D05719C42BFF44EAF01340425A34205717FF643AF01342425A34274
:203E800005717FF638AF651C94E40125BFE40424AB420471A7D90F7A6C1CF5E440F24133F4
:203EA00003600120F0BD40F22D3303600120F0BD380B0020702B00200B24012B04713BD90C
:203EC00002240D7D05719C42BFF476AF01340225A34205717FF661AF013402259C4205711A
:203EE000BFF44CAF01340225A34205717FF637AF01344D7E05719C42BFF420AF01340025D2
:203F00009C420571BFF410AF01342BE54FF4487303600120F0BD02259C420571C3D2013422
:203F20004D7E05719C42BFF451AF651C6FE44FF44D7303600120F0BD40F2133303600120AB
:203F4000F0BD4FF44B7303600120F0BD012468E70125FFF735BB0124CBE7012413E40124EA
:203F6000FFF7D5BA0124B2E70124C8E70124BAE70124B2E7012418E6012479E701243CE7B6
:203F8000012469E70124CBE701246BE7012452E701245BE7246801251CE5012540E6012475
:203FA0008FE70124DEE4374601246DE40124FFF719BB01243AE7012402E401242CE7012414
:203FC0005CE701243CE740F28E3303600120F0BD4FF45F7303600120F0BD40F233330360F1
:203FE0000120F0BD00231B78FFDE024A002313601B78FFDE380B002070B90B681A7B202A30
:2040000001D0062070471A4652F80E1F9961918892799A7799837047032070474360CA6969
:204020009A4210D38A6910B40260C8690C6FC01A1C441A44C86100380C6718BF01205DF843
:20404000044B8A61704701F12802026000208B67704700BF2DE9F0470B7888B00D460646C2
:204060000E2B14D8DFE803F008180808130D281313181308080808000024204608B0BDE891
:20408000F0874B78DA0930D15B09012B4CD00624204608B0BDE8F0870368002403F1340239
:2040A0002046C3E91E44C3E920445A671C845C62DC6208B0BDE8F087027A8B78002A00F0B2
:2040C0006581817A0930002900F05E81F17A415C9942D1D01B061ED4EF7807F0FD03012BAD
:2040E000CAD0002F65D00324C7E713F0600FC3F3411200F09180012AC9D18B78212BC6D1C6
:20410000B1F80720072AC2D10168681C183100F073FA0446B1E7EC78002C00F09D80032CCA
:2041200014BF03240024A8E78B780768202B00F09B80222BABD1B1F80730002BA7D1B1F815
:20414000035097F820303D8405F0010203F001039342154690D0C3691BB1C2F10301C9B2C3
:204160009847002D88D1337A012B40F20B81737B06F10C04002B00F00381B37BE05C08F04D
:204180004DFA337A012B40F2FD80737B012B40F2F780B37B23442C46587808F03FFA07F18D
:2041A0003403C7E91E55C7E920557D62FD627B6763E73568012A05F10C0140F2DF80727BCD
:2041C000012A06F10C0340F2D7800691B27B704905911344AC6A93F80180002C60D1EA6FE3
:2041E000EB6AAC67C5E91F42002B00F0B480296B1846002205F1240383E803004046EA6288
:2042000005A9FEF733FD0446F369002B3FF435AF30460021984730E703F01F03012B7FF4A2
:2042200036AF8C78062C7FF432AF05A8039200F0D5FC03AA00920746EA78297930463B4685
:20424000FEF7E8FA05283FF418AF039A3946681C00F0D2F9044610E7F369002B3FF40CAF4F
:2042600030460121984708E7B1F80720072A7FF40EAF3B73B1F80730DBB27B7300200E3739
:20428000CDE90573079000F08BFF002005A9FEF7D9FC0446002867D0002000F089FFECE634
:2042A000D5F88490686A4C4528BF4C4605F1340A2246514612F0ECFAE86FEA6AEF67A9EB91
:2042C00004030AEB04010444C5E91D13C5F88040002A43D005F12C0797E8030005F1240434
:2042E000002284E80300EA62002B3BD091461BE0696F686A12F0CCFAD5E91D32A96AC5F88A
:2043000080100B44521AC5E91D32F36913B1002130469847EB6A13B397E8030084E80300B3
:20432000AB6FC5F82C90EBB1AA6A9342E0D2696F686A1A4612F0ACFAD5E90932A96FE967A0
:20434000521A0B44C5E9093253B1404605A9FEF78DFC044658E700236B6255E700236B625E
:20436000002451E76B6AEFE70A4B049603A9039300F020FC04468FE73B78FFDE7B78FFDED9
:204380002B78FFDE6B78FFDE0B78FFDE5378FFDE1D400000F93F000010B503681C8CE4077D
:2043A00084B015D50B46017A012916D9417B00F10C0481B1817B605C91060CBF01240024A8
:2043C00001A9CDE901320394FEF73CFC04B010BD082004B010BD0B78FFDE00235B78FFDE29
:2043E0000368D3F880007047F0B50468238CDB0783B022D50546002016460F4600F0D0FEAA
:20440000A26F42B9636AE3B11124002000F0D0FE204603B0F0BD964228BF1646616F3246F3
:20442000384612F035FAD4E91D239B1B3244C4E91D23C4F880600024E7E70824204603B0E4
:20444000F0BDC4E909762A7A012A12D9697B012905F10C020FD9AB7B0849009113440C3430
:20446000587801946946FEF701FC041E08BF9224CBE75B78FFDE1B78FFDE00BFB53300001E
:20448000002070472DE9F04F4B6885B0CDE900020C46002B71D007F0E7FBE568019B9D42F1
:2044A00028BF1D468146002D7CD04FF0000A5646D3464FF00108D4E90113AB421F4628BF22
:2044C0002F46E9B13A4609EB060012F0E1F9D4E90223D21BDB1BC4E90223C4F804B0ED1B68
:2044E0003E442AB3002B08BF4FF00008002DE2D1009BC3F800905E60404605B0BDE8F08F41
:20450000ABB120463B4650F8101B4A68D2F804A009EB0602D047D4E90223D21BDB1BC4E940
:204520000223ED1B3E445AB14FF0010ADAE7E368BAF1000F04D15BB99846002DBBD1D7E773
:2045400022681268126822604FF0010A002BF3D02168F1B1CDF808B003E0A36821680133D0
:20456000A3604B6800225F6802A80123B8470028F3D12061002D9ED1BAE70B681B681B68AC
:20458000002B88D18B68002B85D1036043609846B2E76160002EABD0019BB34288BF4FF025
:2045A0000008A5E72E464FF00108A1E7054B0528187004D0044A137823F00203137003488B
:2045C000FEF7F2BB712B0020722B00204475010008B50020FEF7CAFABDE808408020FEF7EE
:2045E000C5BA00BF08B50020FEF7D4FABDE808408020FEF7CFBA00BF70B5C38893421E466A
:2046000028BF1646934284B00D4612D8002400200394CDE9015600F0C3FD01A98020FEF73A
:2046200011FB044688B1002000F0C2FD204604B070BD8020144607F00BFAB4FBF0F202FB51
:204640001044B4FA84F46409E1E707F0E7FB80280BD1094A094B92E8030083E8030000209C
:2046600000F0A6FD204604B070BD002000F0A0FD1024204604B070BD7C750100600B0020BB
:204680002DE9F04F0B780E2B89B018D8F3B1013B0D2B1BD8DFE803F01F0E281A354C1A1AF7
:2046A0001A1A0E666F07B24B1B78012B02D00120FFF77CFF0024204609B0BDE8F08F852BA5
:2046C00004D1AB4B1B78032B00F040810624204609B0BDE8F08FA64B1B78032BF6D0032095
:2046E000FFF764FF0624E6E7A24805F07BFB0028E0D0A14B01221A60BFF36F8FBFF34F8F74
:20470000D8E705230DF115008DF8143007F0EEFA9DF81530994E002203F01F043260032C3D
:2047200000F2B980DFE814F0E800B90099008D00C87803280D46C9D0904E3368002B00F0D1
:2047400003810022716832609847044600287ED13368002B00F00581AB78002BAAD107F0AC
:20476000E7FAA8E7824B1B78002BA3D00020FFF71DFF00249FE74FF08043D3F8383413F0B3
:20478000010F7B4B1B7806D0022B93D00220FFF70DFF00248FE7012B89D18BE7BDF81B3094
:2047A000002B00F0D880092B28BF09239946FEF7F3F90546002800F0DB81BB464FF0090A6D
:2047C000CDF80CB04FF0000801E008F101086A68012357682946002203A8B8470028F4D151
:2047E0002A682B7A15681C44C244E4B2002DE7D1634D644928464A4612F04AF82C71A5F84B
:2048000002A0FEF7ABF918B1EB7943F02003EB71FEF7C2F95C4BBDF81B2018600020C3E9F3
:204820000159DA6000F0BCFC58498020FEF71EFA0446002800F09F81002000F0B9FC062C75
:2048400005D105A8FEF7E8F90446002C73D007F0DBFA204609B0BDE8F08F9DF81900020780
:2048600007D005A9FEF7C2F906280446EDD19DF8153013F0600F0ED19DF816303C4A9DF8AC
:2048800019401278012B00F0B980032B00F0A680002B00F0C6800624D9E79DF8190003A9F7
:2048A000FEF780F90546002859D09DF80C1005AAFEF798F906280446C7D19DF8152012F02C
:2048C000600FC4D12A4B9DF80C101B78D20940F014819DF816200B2AB9D1052B40F0B2805F
:2048E000BDF81730FF2B00F2FC809DF817202846FEF7D0F90446A8E713F0600FC3F34117D3
:204900009FD1DB0948D19DF81630032B00F09C80092B00F0A880012B93D1BDF81730012B11
:204920008FD1FEF71BF9002800F0D980184A137823F00203137033686BB107F06FFA0446B4
:2049400000287FF4B7AE0AE70E2480E70420FFF72DFE0624AFE607F04DFA0024ABE61024A2
:2049600075E70C4B1B68082B33D007F043FAA2E6712B0020680B00205C700240600B002027
:204980006C0B002048750100480B002084750100722B0020300100109DF81620062A00F06C
:2049A0008780082A73D0002A7FF44BAF7B497C4B09781A80890744BF02221A7078490DF13E
:2049C00015000222FFF718FE0446062C7FF43DAF37E7744B1B68002BC7D16BE625073FF5E3
:2049E0005AAFBDF81730002B7FF455AF052A01D0200727D1204607F03BF99CE721073FF581
:204A00004AAFBDF81730002B7FF445AF052A01D0230717D1204607F059F9204607F094FC61
:204A200089E7052A01D027070CD1204607F02CF95B49034602220DF115000B80FFF7DCFDFB
:204A4000044602E7082402E7BDF81730012B7FF4F8AEFEF783F8002841D0504A137843F0CC
:204A60000203137067E7504C2378043B012BE9D89DF81730BBB3012B33D1FEF767F9237893
:204A8000052B3FF458AF0520FFF790FD53E7464A1278052A47D0042A7FF4D3AE404B1F702E
:204AA0003F490DF115000122FFF7A6FD04468CE79DF81830022B3FF471AE032B36D0012B26
:204AC0007FF4BFAEBDF81B30002B3FF444AF37490DF115001222FFF78FFD044675E70F2483
:204AE000B5E60724B3E6FEF749F92378042B3FF422AF0420FFF75AFD1DE79DF816705FB3B0
:204B00000A2F7FF4A4AE052B9CD128460192FEF717F92349019A03460B700DF11500FFF720
:204B20006BFD044691E61E4A1370B9E7BDF81B30002B3FF410AFBDF819109DF8170000F02A
:204B40001DFB014600283FF47CAE0A780DF11500FFF752FD044638E7052B7FF473AF104910
:204B60000DF1150002220F80FFF746FD04466CE64FF0090A3CE607F051F9802808D10C4B0D
:204B800093E8030086E80300204600F011FBD2E6204600F00DFB102459E600BF722B0020BF
:204BA0006C0B002034010010712B0020687501007C75010038B505460C4607F02FF9A842FA
:204BC00007D194E80300044A82E803000023184638BD1023184638BD600B002008B1402320
:204BE00003600148704700BF6C0B0020F0B40D7A0DB101F109050468002C59D06FF4AB76CE
:204C00003444142C00F24A81142C00F24781DFE814F05400E700EE00F500FC000301090132
:204C200010011701450145011E0125012C0145013B0033012700390115003F010125002498
:204C4000002A40F0DB818A8AAB424FEA1222027140F2338140F26D1303600120F0BC70473E
:204C600001250024002A40F0CD814A8AAB424FEA1222027140F226816C1C8A8A0271A342D4
:204C800040F27B81651CDEE701250024002A40F0B7810A8AAB424FEA1222027140F2178199
:204CA0006C1C4A8A0271A34240F26C81651CDCE709240471002B00F0F680002A00F0A4816B
:204CC00004791470012B4FF00404047140F2F0800227012694559F422D78057180F089819A
:204CE0007E1C0024B342D555047140F27D812546771C0024BB429555047140F27081254626
:204D00007E1CFF24B342D555047140F263812546771C0124BB429555047140F25681254639
:204D20003E190124B342D555047140F249812546371900249F429555047180F03C812546B0
:204D40007E1C09249E42D555047180F02F812546771C21249F429555047180F022812646EB
:204D60007C1C09259C42D655057180F015811619013435700E7C0671A34240F20881651CBD
:204D800016550E8A9D424FEA1626067180F09F8057196C1C3E708E7C06719C4280F0F280CF
:204DA000651C16554E8A9D424FEA1626067180F0898057196C1C3E700E7D0671A34240F22C
:204DC000DC80651C1655898A9D424FEA1121017173D22A44117040F26D13036001203DE72E
:204DE000002A00F0B38004790127002672E7002A00F0A58005790126002772E7002A00F0C4
:204E0000978005790127002673E7002A00F0898005790126002774E7002A5DD0057901270E
:204E2000002676E7002A00F09E8005790126002777E7002A00F0958005790127002678E733
:204E4000002A00F08C8005790126002779E7002A00F083800579012700267AE7002A00F09C
:204E60008A800679012400277BE7002A00F081800579164601247CE7002A78D00679174630
:204E8000012487E7002A70D006791746012492E7002A3FF4DFAE017911709CE700230360AD
:204EA0001846F0BC704740F2571303600120F8E74FF4AC7303600120F3E740F26B1303605F
:204EC0000120EEE740F2691303600120E9E740F2671303600120E4E701240122A34202713F
:204EE00073D914440122A342027169D9144400229C4202715FD2013409229C42027155D27D
:204F0000013421229C4202714BD2013409229C42027141D201340A8A0271A34237D9651C35
:204F2000B7E60124FF229C42027153D20134D4E701240022A342027151D90134F2E701242C
:204F40000022A34202714FD90134F2E701242A780271A3424DD90134F2E70124D1E701244C
:204F6000CAE70124C3E70124BCE7012485E6012497E60124CFE70124C8E74FF4B57303603A
:204F800001208EE74FF4B4730360012089E74FF4B3730360012084E74FF4B27303600120D9
:204FA0007FE740F26313036001207AE74FF4B1730360012075E740F25F130360012070E738
:204FC0004FF4AF73036001206BE740F25D130360012066E74FF4AE730360012061E740F2C1
:204FE0005B13036001205CE74FF4AD730360012057E740F259130360012052E70679E1E6B6
:205000000679BDE60679CCE60422012B02717FF64FAF02249BE700BF0B780E2B0BD8DFE838
:2050200003F0080808080A0C080A0A0A0A08080808000020704706207047F0B54B78DA09F8
:2050400085B00C46064611D15B09012B02D0062005B0F0BD8C78002CF9D102681373036A5A
:20506000002B3AD0214698472046F1E713F0600FC3F3411215D0012AE9D18B78072B07D026
:20508000082BE4D1F268481CB169FFF7B5FADFE7B1F80720182ADAD1C169601CFFF7ACFAE6
:2050A000D6E703F01F03012BD1D18D78062DCED103A80292FFF792FD02AA00920746E278D0
:2050C000217930463B46FDF7A5FB0528BFD0029A3946601CFFF790FABAE71846B8E700BF7B
:2050E00070B54FF0805286B0D2F8A830D2F8A42000926FEA83436FEA93430B4A0B4E9BB239
:2051000002A80D210BF0ACFE02AD002404E015F8013B06F8013B013402A811F0D4FC844262
:20512000F5D306B070BD00BFA0750100982B002038B5114B53F8204023780BB9A01C38BD08
:205140000020FFF74BFD217891B12246C4F101055319DCB2234620F8141012F8011F002901
:20516000F6D101335B00DBB243F44073038038BD40F20233FAE700BF0876010040B1052846
:2051800008D8054A105C28B1044B53F820300BB1FFF7CEBF00207047207601000876010085
:2051A00072B6024A1368013313607047AC0B0020034A1368013B136003B962B6704700BF0A
:2051C000AC0B002010B50446006830B1002107F01FFE54F8040F0028F8D110BD2DE9F04305
:2051E000038883B0044643B1B3F5867F0CD1822910D0012003B0BDE8F0834FF48673012055
:20520000238003B0BDE8F08300230380032003B0BDE8F08303F0AAFBBFF35F8F19491A4B8D
:205220000E6800220A601F781A70FFB2BFF35F8F164D03F09FFB28680028DED0DFF85090ED
:20524000DFF8508003E055F8040F0028D5D090F84A3026FA03F3DA07F5D590F8493047FA92
:2052600003F3DB07EFD502F091FE0028EBD02B68D9F80020009218464246022102F024FEFB
:20528000E1E700BFC00B0020732B002070000020D82C00203553000010B50C4A90F84B3084
:2052A000126882B001330092044680F84B30084A03468021203002F007FE064B1978224672
:2052C000002002B0BDE8104007F02CBED82C002099520000ED35002010B4094A094C1368EE
:2052E0001943116021780346012202FA03F30B43DBB2237004485DF8044B07F041BE00BFD7
:20530000C00B0020732B00207800002010B5044690F84A1090F8490003F0EAFA10B994F85E
:20532000480010BD01280ABF94F84800002080F0010010BD70B582B0044602F027FE08B9BB
:2053400002B070BD04F12006304602F01FFE05462046FFF7DBFF01280FD00028F0D1002D2F
:20536000EED1304602F0F8FD0D4B22462846197802B0BDE8704007F0D5BD002DE0D0094B91
:20538000094A1B68009300253046234684F84B507E2102F099FD054B28462246E7E700BFAF
:2053A000EC350020D82C002099520000EE350020F8B507F025FD304B304C187007F020FD01
:2053C0002F4B304F187007F01BFD2F4922682F4B08700025FF2139727B60FD60002A42D0E5
:2053E0002B4E09E091F84A00F9683A72834054F8042F0B43FB60B2B392F84A3092F8491034
:20540000526C03F01F0343EA41131F2BC6BF03F01F0331464FF0A04103F5E07342F08C02B2
:2054200041F82350236893F84A1093F8490003F01DFA226892F84A3092F8490003F01F03FC
:2054400043EA4010012104F03FFF2168387A91F8492082424FF00103C4D0FF28C2D054F8AE
:20546000042F002AC8D10B48002107F0D1FCBDE8F840044803F050BAEE3500207000002005
:20548000EC350020B00B0020ED350020D9520000000300507800002070B4421EC11C002017
:2054A00012F8013FA3F13004E5B2092DA3F1410604D8204491420AD00001F1E7052EA3F1A5
:2054C0006104A3F1370504D891422844F4D170BC7047052C02D8573B1844EBE70020F6E70C
:2054E000D8B10268D2B110B4D0E90143A3420CD2591E0A4403E001339C42836008D012F833
:20550000011F2029F7D99C4202D05DF8044B7047013C84605DF8044B704770471046704707
:20552000F8B5002838D00E46002937D084682ABB14B3DFF86CC0226ADAB1B2421CD0013A3D
:20554000771E00E0C0B117F8010F1CF8003003F00303012B12F8013F1CF8035005F003052F
:205560000CBF00F120010146012D08BF20339942E8D02468002CDED12046F8BD002CFBD0B3
:20558000216A304629B111F08CFA0028F4D02468F4E70C462046F8BD0446EDE70C46EBE7A7
:2055A000C57E01002DE9F04F16689368F45C9046222C03F10102814683B006EB020506EB8B
:2055C00003001AD1D8F80470BA4216D28A462C46002203E00134A31BBB420ED22378222BB6
:2055E00015D05C2BF6D10134A31BBB4205D20134A31BBB4202F10102F0D325B1D8F8000062
:20560000281AC8F80800002003B0BDE8F08F231AC2F101001844D8F81030984707460028D8
:20562000EBD0A54280F09980DFF890B13A4605E002F8013B0135A54280F090802B785C2BC5
:20564000F6D1611B00291ADD6E78752E17D85B2E38D9A6F15C03192B11D8DFE803F03710B1
:20566000101010102D1010102710101010101010211010101B10150D052901922BDCD8F8C0
:20568000143038469847B9E7092302F8013B02231D44D0E70D2302F8013B02231D44CAE78D
:2056A0000A2302F8013B02231D44C4E70C2302F8013B02231D44BEE7082302F8013B022340
:2056C0001D44B8E7222E01D02F2ED8D1022302F8016B1D44AFE7A81CFFF7DEFEA0F55C4357
:2056E000B3F5806F0646CAD3A0F55843B3F5806F019A42D2AB1DE31A052BC0DDAB795C2B77
:20570000BDD1EB79752BBAD105F10800FFF7C4FEA0F55C43B3F5806FB1D20BEA8626C0F314
:2057200009003043019A00F580360C234FF0040E4FF0F00C0320104406F03F0161F07F016E
:2057400000F8011990424FEA9616F5D14CEA0606F6B216701D4472446DE73A46102300210B
:205760001170C9F80030CAF80070D8F80030E31A0133C8F80830012046E77F2804D8C6B213
:2057800006234FF0010EE4E7B0F5006F06D206234FF0020E4FF0C00C0120CCE7B0F5803F20
:2057A00006D206234FF0030E4FF0E00C0220C2E7B0F5881FBFF463AF0623B7E700FC0F00BF
:2057C00010B5034628209847044618B12822002111F086F8204610BD024BD3E900031844FC
:2057E000704700BFC40B002058B32DE9F041154F05464FF000082C462D68E268D105164679
:205800000ED4A06828B1FFF7EFFFE268D305164606D4206998B17B689847E668C4F810805B
:2058200016F4007604D1206A10B17B68984726627B6820469847002DDDD1BDE8F081164609
:20584000EEE77047880000202DE9F0433D4E002789B0CDE90377C6E90077054650B10C46EC
:20586000904661B9B8F1000F02D02B19C8F80030C6E900540024204609B0BDE8F08399463D
:20588000314B019093E8070008AB029403E90700FFF796FF0446002833D0019888B1039BCD
:2058A000002B47D1029B042B35D90378EF2B32D14378BB2B2FD18378BF2B2CD103230393F4
:2058C00001A8FFF70DFE01462046FBF7E9FCA8B1B9F1000F0BD1B8F1000FCCD0019B039A1F
:2058E00020461344C8F8003009B0BDE8F08301A8FFF7F6FDDDE90223934216D32046FFF793
:2059000073FFDDE902349C42ACD3ABB15C1EB8F1000FAAD1ACE701A8FFF7E2FD01462046F5
:20592000FBF7BEFC0028D3D1E8E7019AD35C002BD1D0E3E73846C4E71C46B8F1000F94D118
:2059400096E700BFC40B00208800002068B170B50D461646044611F0B6F833462A46411C48
:205960002046BDE87040FFF76FBF704700221146FFF7ECBF0122FFF7D3BD00BF28B1007BBB
:20598000A0F11000B0FA80F04009704730B5174B83B000221A6004F057FA00BB002004F022
:2059A0006FFA134B134A93E80300FF250090ADF80410062400231048ADF8005069468DF80A
:2059C00002408DF8043004F0F5FE58B901210A4804F044FF084804F035FF03B030BDFCF71E
:2059E000B1FEDBE7FCF7AEFEF0E700BFCC0B002084760100295A00008C760100014B1868BD
:205A0000704700BFCC0B002008B5064A13680133136002F0C7FB00B908BDBDE8084002F0D9
:205A2000A7BB00BFCC0B0020042800D07047FFF7EBBF00BF014B1868C0097047CC0B0020F9
:205A40004160806A07F09CBAF0B5858C83B0044617461E464DB36A2D22D182294AD145687D
:205A6000002D62D00023009304F1180204F11401284601F005FED4E90431227E101E18BFFF
:205A80000120994284F8200046D0637E0133DBB26376002A3AD0032B0ED9042384F82030A1
:205AA0000023A384032003B0F0BD244B4560C0E904551B680583836201F018FA39463081E0
:205AC00000F056FF2060F0B11D4BC36323681C64216991B921683046463101F01DFA2368EA
:205AE000A3F84400206800F05DFF6A230120A38403B0F0BD012003B0F0BD40230022304642
:205B000001F0D6FDE6E7A0840220CCE7032BC4D8022384F82030C3E7089B606898472169C2
:205B2000227E637E01312161B3E7032380F820302846089B9847A5840220B4E7D82C0020AE
:205B4000415A000010B5846882B01CB194F90830002B01DB02B010BD236A002BFAD01A68AB
:205B6000002AF7D00749097831B11B6A23B101909847236A01981A68002302B0BDE8104046
:205B800000F084BE742B00202DE9F047124C82B02468DDF828A08CB106460F46914698467B
:205BA000656843464A463946304625B1CDF800A0A847054638B92468002CF1D10025284697
:205BC00002B0BDE8F087B379012BF8D13A463146002000F06BFCF2E7D00B00202DE9F04F3F
:205BE0002DED028BA64CA74E8BB005462046029101F00CFBC4F8A0500346307008BBA2792D
:205C0000013A032A5AD9636823F07F4323F0FF03002B50D06379032B00F02D81208900F0A8
:205C200029FF48B1D0E90F8900F020FFB8F1000F02D093494846C0476379012B6FD93378ED
:205C40004BB34FF00008C22B2BD0DFF85492404600F00CFF3278C32A6ED0BF2A84BFA02216
:205C6000327002212389864801F048F9D9F800100391084610F027FF03990246804801F02D
:205C800041FD02997E4801F047F9029982B2284601F008F8337818460BB0BDEC028BBDE867
:205CA000F08F404600F0E2FE337818460BB0BDEC028BBDE8F08FC3233370AFE703902946D0
:205CC000208900F055FE8046002850D0039B62790893CDE906334023ADF81630002A3DD141
:205CE000238969484522022101F008F9A27A002A40F0BC8007AB009361480DF116030022F2
:205D000006A901F0BDFCF8B9089B002B37DADFF890915E4BC9F800308223337097E7E37CE3
:205D2000C3F380185B060BD55549284600F080FA3378002BAFD084E700223270032191E73E
:205D40003378002BA7D07EE7BDF81620079B0893402A28BF4022ADF81620D6E701F0C6F86F
:205D6000452203460121484801F0C8F8BEE7DFF83091474BC9F80030A323337067E7BDF8E4
:205D8000163041493E4808AF08F18402009708EE903A08EE102AFFF7F7FE034600284CD177
:205DA0003748099309A901F03BFC3A4BD3F800908246B9F1000F76D0099B9B462B464D46BE
:205DC00099460AE006DD2A7AD30603D51BF800202F2A08D02D68002D64D06F68384610F013
:205DE00072FE8245EED102465946384610F073FE0028EFD1A2794B46511EA946012A1D4657
:205E00004FF0010303FA01F300F0BE80990740F1A680D9F814A0BAF1000F00F0A08008AB27
:205E20001748009318EE102A18EE903A1649D04799F80830580600F1BD803378002B7FF44C
:205E400002AFA37D190756D5DFF83C9099F90630002B50DB99F816301A074CD4DFF84090A6
:205E60000D4BC9F80030A1233370F0E60B49064801F0C2FB3EE72189284600F0F7FACDE67B
:205E8000D80B0020772B0020840C002094760100B4760100D40B0020A4760100E30B00202F
:205EA000FC0000204D465948842101F09FFB5748842101F09BFB3378002B7FF4C4AE534841
:205EC00008F1460101F028F880B2A8F8440020B9C123DFF844913370B9E63378002B7FF467
:205EE000B2AE404600F05EFD337818460BB0BDEC028BBDE8F08F637D089AD91115D1002AD7
:205F0000DDD0DFF80891013218BF01224846402301F0CEFBB9F8A420D9F8A810402A28BF3D
:205F20004022484601F0EEFBC5E7079B9A4232D00132069944D0BDF81630DFF8D090012230
:205F4000324801F0B5FBBDF81620B9F8A4309342B1D9D9F8A8102D4801F0D4FBABE75A07A6
:205F600005D5D9F818A0BAF1000F7FF458AF1F0705D5D9F81CA0BAF1000F7FF450AF85212B
:205F8000224801F033FB92E7D9F810A0BAF1000F7FF445AF3AE7DFF87490B9F8A400824248
:205FA00019D382231A4989F8063048460F2201F0A9FB80E7154A1749484600F077FA3CE7AA
:205FC000DFF84890BDF81630B9F8A4209A4294BF00220122B4E7BDF816300699821A9A4281
:205FE00094BF00220122484601F062FB0798B9F8A430BDF81620D9F8A8101B1A9A4201443F
:2060000028BF1A46484601F07DFB54E7840C002094760100D80B0020FC00002010B504461E
:20602000416001460C4802F083FE94F90830002B00DB10BD206A0028FBD0036A002BF8D03C
:206040000268002AF5D0054BC0E903340830BDE81040002300F01ABCD40B0020455B000002
:2060600038B50A4A137803B138BD094C094D236009490A482B6001241470FFF7CFFF00F0F1
:206080000BFEBDE8384000F029BF00BF742B0020D00B0020D40B0020C4760100AC00002083
:2060A000014B1868704700BFD40B002000B10068704700BF70B50C4D064613460C46002279
:2060C0003146284600F01AFF00F0E0FD0146284600F022FF054600F0D9FDAAB20146204625
:2060E000BDE8704000F0DEBD080E002000B583B001460190044802F091FF0199034803B064
:206100005DF804EB02F060BE94000020300D002070B50B46C56A0446C1B18A79413A3E2AD3
:2061200012D8CA7C520605D595B12B460022BDE870401847022215B119462046A84720466C
:20614000BDE87040FFF7D2BF0322F4E70422F2E770BD00BF70B50A4B1C687CB106460D46AE
:2061600001E0246854B1237FAB42FAD12A46314604F11D0010F07EFB0028F2D1204670BD63
:20618000300D00202DE9F041134B1C68FCB106460F464FF000083146201D00F0DBFC80B138
:2061A000A569BD42284607D010F08DFC39460246284610F05FFB20B92046FFF797FF08F1B1
:2061C00001082468002CE6D14046BDE8F081A0464046BDE8F08100BF300D00202DE9F041C6
:2061E0000F4619461D4616468046FFF7CBFF0E4802F0F8FE044698B185614146043000F044
:2062000099FC39462677324604F11D0010F040FB069BE362079B0548A362214602F088FD50
:206220002046BDE8F08100BF94000020300D002070B50C46897A82B009B902B070BD05467A
:2062400004F10B00FFF786FF064628B36379DBB1F56A002DF1D0A379413B3E2B1AD8E37C95
:206260005B060BD501A9204601F0F8F9019B326B9A42E2D0F56A3363012200E002222146A1
:206280003046A84702B070BD228929460220FFF711FFDDE70322F2E7228929460320FFF783
:2062A00009FFCAE72DE9F047AEB00E4605469046994600F01BFE01220346002103A800F0F5
:2062C0001DFE204F314603A801F0B4F9002103A801F0CEF93C78BDF814000134E4B2294639
:2062E0004FF0010A3C708DF817408DF816A000F03FFB0446D0B12846CDE9008933465246DE
:206300003946FFF76BFF0546A8B10F4B2064E36304F1460103A800F0FFFDA4F844002046BD
:2063200000F040FB28462EB0BDE8F087054628462EB0BDE8F087204600F098FB28462EB0E2
:20634000BDE8F087752B00201161000000B583B001460190044802F061FE0199034803B0FA
:206360005DF804EB02F030BDA0000020B40E002070B50D4B1C68A4B10546002601E0246824
:206380006CB1294604F1180000F0E4FB0028F6D02046FFF7DBFF24680136002CF1D130464A
:2063A00070BD2646304670BDB40E00202DE9F041164B1C682CB305460F4616464FF0000871
:2063C00001E02468D4B1294604F1180000F0C2FB0028F6D094F82C30B342F2D1324639461D
:2063E00004F12D0010F046FA0028EAD12046FFF7ADFF246808F10108002CE4D14046BDE8B6
:20640000F081A0464046BDE8F08100BFB40E00202DE9F041144B1C680CB306460F464FF01F
:206420000008251D314604F1180016B100F092FB78B1BD42284607D010F045FB39460246D6
:20644000284610F017FA20B92046FFF77FFF08F101082468002CE4D14046BDE8F081A04619
:206460004046BDE8F08100BFB40E0020F8B50E4B1C68ACB105460E460027294604F11800B6
:2064800000F068FB10B1E38EB34204D02468002CF3D13846F8BD2046FFF758FF0137F5E738
:2064A00027463846F8BD00BFB40E00208B79012B00D070472DE9F04792F90630002B82B079
:2064C000154650DBCB7C5B060C464CD5D1F8A070002F48D04B6E4BB1012B44D18A7A384683
:2064E0000B3102B0BDE8F047FFF760BF096E0191384694F80AA0D4F85C80FFF789FF204872
:2065000002F070FD064688B3B8F1120FC146C4BF4FF01308C146B144424601994FF0000882
:20652000043010F0B5F9394606F1180089F8048000F000FB524604F10B0186F82CA006F121
:206540002D0010F0A5F90F48A6F83680314602F0EFFBB16B4B1CB363284601F089F8B36BDB
:2065600023F07F43B36302B0BDE8F0870649A32328461022AB7102B0BDE8F04701F0C2B898
:20658000A0000020B40E0020D87601002DE9F04F2DED028B83B008EE101ADDF8389001928B
:2065A0009846FFF77DFD002800F0B6800025D9F800B006462C46A34508D8454512D2019B09
:2065C0004FF03C025A55D9F800B00135631C5B4508D3454506D2019B4FF02F025A55D9F8F0
:2065E00000B00135D6F804A0504610F06CFA023427185F4558D801D145456DD3D6F80CB0D8
:206600007C1CBBF1000F17D09BF80030A3B1D9F800A0A24509D8454507D2019A3B235355EC
:20662000D6F80CB0D9F800A00135584610F04BFA02373C18544512D8454504D9D9F80030CE
:20664000621B9A4271D83046FFF730FD0646002847D0DCB9D9F800B0A345B7D8ADE70198BA
:20666000384AAAEB070308F10101002BACBF5B440BF10003491B28440AF0F2FB0544454540
:2066800053D83046FFF712FD0646B8B3D9F800B0A34507D8454505D2019A2C235355D9F891
:2066A00000B00135013486E70198264AABEB040B08F10101BBF1000FACBF0AEB0B030AF185
:2066C0000003491B28440AF0CBFB0544454508D2D9F800309F4291D3019A3E23535501355A
:2066E0008CE715BB5CB9BEB1D9F800304344C9F8003003B0BDEC028BBDE8F08FADB9822144
:2067000018EE100A00F072FF18EE100A0E490F2200F0F8FF002EE7D14FF0FF33C9F8003021
:2067200003B0BDEC028BBDE8F08F019918EE100A2A4600F0E7FF18EE100A282100F068FF8C
:20674000D1E700BFBC73010094760100014806F017BC00BFD00000202DE93048FFF74EF9FB
:206760000E4B1A68821A04D10D4BD3E90001BDE830880B4C18604FF47A71A2FB01BCD4E947
:2067800000254FEADB1040EA4C6080184FEADC1145EB0101C4E90001BDE83088BC0E0020F5
:2067A000F80500200148002106F032BBD0000020074B0848084A1B6810B40021012404708A
:2067C000116013B15DF8044B18475DF8044B704708770100762B0020D00E00202DE9F0479A
:2067E0001E4B1B7882B0054643B3DFF874A029465046DAF8007002F0E7FADAF8001019B377
:20680000D5E90489002603E00C680E46F4B12146D1E90423994508BF9045F5D22A46104866
:20682000314602F0F5FADAF80050AF4209D00D4B9B68019302B0BDE8F0471847FFF7B8FF8B
:20684000D3E702B0BDE8F087002DEED02A46044802F0DEFADAF80050E7E700BF762B0020CF
:20686000D00E002008770100064B10B55B6804469847C4E9040121460348BDE8104002F04D
:20688000A3BA00BF08770100D00E0020084970B5496805461E4614468847241846EB0101F0
:2068A000C5E904412846BDE87040FFF797BF00BF0877010038B50B4B1C687CB10A4B5B688B
:2068C0009847D4E90445A94208BFA04202D30020014638BD201A65EB010138BD4EF66020C9
:2068E000002138BDD00E002008770100F8B5134F134E7C68A04735683DB102460B46D5E9E7
:2069000004018B4208BF824201D20020F8BD2946304602F059FA6B680BB128469847BB6849
:2069200098473368002BF0D0D3E90467A047B94208BFB0422CBF01200020F8BD08770100CF
:20694000D00E002000B583B0014608300191FFF78BFF0199044802F037FA0199034803B01F
:206960005DF804EB02F05ABBD40E0020E000002070B5064609480D4602F034FB044658B141
:206980000023868080F824302946263000F0D2F80348214602F0CCF9204670BDE000002087
:2069A000D40E00202DE9F04190F8463013F0300F0446C3F3011526D190F82430042B13D84B
:2069C000B0F8442000F14601263000F06BF994F8243023B3226A5200226204F10800002391
:2069E000BDE8F041FFF752BFD0E90F672630FFF7BFFC2046FFF7A6FF46B329463846334624
:206A0000BDE8F0411847B0F8442000F14601263000F048F92046BDE8F041FFF793BF0C4B9B
:206A2000C4E9033406F034FB0A4BA3FB00239B0A40F2DD5202FB130202F6B832226204F1C4
:206A400008000023BDE8F041FFF720BFBDE8F081596A0000B76FA5AE806830B190F8243069
:206A6000013380F82430FFF79DBF704708B1FFF769BF7047044B02E09A88824202D01B6813
:206A8000002BF9D118467047D40E0020F8B50288044662B140F2B9139A4217D11D4B1B7899
:206AA0008B4217D040F2B91323800120F8BD114610460BF0CBF8184B186038B343F21633FC
:206AC000038240F2B91323800120EFE7002303800320F8BD114B1B789B07E3D5104E114F14
:206AE000114DB7F800C0114F96E80F00203685E80F003CF806C00E4E3A883168A5F810C0EC
:206B000000232846AB74FFF769F8CBE720800220F8BD00BFF3350020F00E0020D4340020F8
:206B2000DC2F00206A2B0020DC0E0020C42F0020DC3400208B684A6830B40C68CD68C560D1
:206B40000460426083600B8A03828B7C837430BC704700BF38B5102205460C460FF08AFE8F
:206B600058B92A8A238A9A4200D038BDA87CA37CC01AB0FA80F0400938BD002038BD00BFB9
:206B80002DE9F0470C1E8AB08046174636DD0346002502E00135AC4230D0994613F8012B84
:206BA0005B2AF7D1AC4229DD08EB05032E46B2460136B44222D013F8012F5D2AF7D131490A
:206BC000062240460FF087FFB0FA80F04009AE42B8741CDD484639460CF092FFB8B10AF10C
:206BE000020A08EB0A0018F80A303A2B2CD0BB7C1BB343F216433B8201200BE021490622F3
:206C000040460FF068FFB0FA80F35B09BB74272C03D900200AB0BDE8F08741462246684616
:206C20000FF036FE0AAB1C4468460023394604F8283C0CF065FF0028ECD043F21633012079
:206C40003B820AB0BDE8F087023CA61BCFD00022114604E001318E4203EB4C0209D010F887
:206C6000013F303BDDB2092D02EB820CF2D90029BDD0054BC2F3072103EA02230B433B825E
:206C80000120C7E71477010000FFFF00014B1868704700BFDC3400200148002106F0B8B859
:206CA000EC00002070B582B0B8B11446028848F2FE039A420E46054603D00A4B5B6A9847A2
:206CC00058B1094A2B8A10680093314622462B460CF0F0F9204602B070BD4FF0FF34204646
:206CE00002B070BD2C7C0100F00E00200C2830B440D9B0F5867F94BF6FF02F046FF01F04AC
:206D00000C2935D9B1F5867F94BF0D230E232343B0F5867F137016D96FF4867543191B0A70
:206D20000D385370907002230320B1F5867F15D96FF486740C19D518240A0D391454A97006
:206D4000D81C30BC70470C280FD90D38B1F5867F50704FF001034FF00200E9D80C29F0D98D
:206D60000D39115430BC0130704701200023DCE74BB2CCE703015CB2C2E700BF2DE9F0411C
:206D80001E0C13F07F474FEA06461C4615460B4614BF01210021CEB1013124F0FF08023158
:206DA000C01A2A46FFF7A2FFCFB1230E2B54421C1EB3230CAB540230B8F1000F02D0230A7C
:206DC0002B5401302C540130BDE8F08134F0FF08E5D14CB9BDE8F041C01AFFF787BF6EB14B
:206DE000230C2B540130EAE70131C01AFFF77EFF002FDAD1002CE7D0E4E71046B8F1000FCE
:206E0000DDD1002CE0D0DDE7F8B50E689DF818700C461D4616B902602360F8BD03689F5567
:206E20000B6801330B600068114618442A460FF03DFD23682B442360F8BD00BFF8B5069D3B
:206E4000401A29461F46FFF751FF3946044610182A460FF01DFD2819F8BD00BF2DE9F04F3A
:206E600083B092460C9A9DF834400194013200249846834699460092274625468E4604E0C4
:206E8000009B01349C42274623D818F807C0019B08EB0706A6EB09069C450AEB0502ABEB56
:206EA0000E00314602D00C9BBB42E9D1FFF71EFF054449460AEB050032460FF0E9FC0134A7
:206EC000009B08EB040901349C423544DE462746DBD9284603B0BDE8F08F00BF08B506F08F
:206EE000D7F8014B188008BD5C2B0020024B1888013080B2188070475C2B0020F8B5044636
:206F00000F4616461D46AC2200210FF0E9FC6771A6712581F8BD00BFF0B501220023016035
:206F200002710B7002680F461378017943EA811313700268437911781B0103F030030B431C
:206F400013700268837A117803F00F030B431370036882795A70038902681B0A937003682F
:206F60000289DA70837983B00446002B00F040810368827A1D1D62B16FF00301C91A00F1FC
:206F80000B0313F8012B05F8012BA67A6A189642F7D8E37C9807C3F340010CD594F86A303E
:206FA00000932A4604F16B0300210120FFF746FFE37C054401211A0709D5236C0093636C34
:206FC0002A460320FFF73AFFE37C05440321DE060BD594F8243000932A4604F1250304203B
:206FE000FFF72CFFE37C05440421980607D500232A460520FFF7C2FEE37C054405215A068D
:2070000007D5636E2A460620FFF7B8FEE37C05440621DB0907D02A46B4F850300720FFF73E
:20702000ADFE07210544237DDE070BD5A36C2F22CDE900320820E36C2A46FFF70FFF237DFC
:207040000544082118070BD5E36D2F22CDE900320B20236E2A46FFF701FF237D05440B21FF
:20706000DA0607D5A38B2A460C20FFF787FE237D05440C215E0607D5236A2A460E20FFF798
:207080007DFE237D05440E21DB090CD0D4F894302622CDE900320F202A46D4F89830FFF7B4
:2070A000DDFE0F210544637D980708D5B4F868302A461120FFF762FE637D05441121DA06AA
:2070C0000BD5636D2622CDE900321420A36D2A46FFF7C4FE637D05441421DB091AD0636F66
:2070E00094F878201B01002A40F08580B4F87A2000201209461C52088446B0B2FAD118B1F4
:207100000CF00F0C43EA0C032A461720FFF736FE17210544A37D1E071BD5D4F8803094F88D
:2071200084201B01002A69D1B4F8862000201209461C52088446B0B2FAD118B10CF00F0C0B
:2071400043EA0C032A461B20FFF718FEA37D05441B21D80607D52A46D4F88C301C20FFF7B3
:207160000DFE1C210544E37D1A0709D5236B0093636B2A462320FFF761FEE37D054423213B
:20718000DB0908D0A36B00932A46E36B2720FFF755FE27210544A37EDB0611D42368EB1A3C
:2071A0003E2B18DCB4F8A420E2B9D4F8A81028460FF07CFBB4F8A400ED1B284403B0F0BDDB
:2071C000D4F890302A463C20FFF7D8FD23680544EB1A3E2BE6DD0B4B0B4A002020601A60C2
:2071E00003B0F0BDFF2305F8013BB4F8A420DCE7042003B0F0BD43F0080377E743F0080343
:2072000092E700BFFC00002028770100032A40F2CC802DE9F04704460D4682B000219146BB
:207220000430A8220FF05CFB256095F800804FEA981884F804802B78C3F3011363712A789C
:2072400002F00F02A2726B78A371A978EB78B8F1010F43EA012323817CD1082A00F2AC8051
:20726000291D8E1805EB090A564576D804F10B000FF00EFB00275645C4F81370C4F81770EA
:2072800080F0A580337803F0F002F02A00F08781711C8A454FEA131003F00F035DD90D288F
:2072A0005FD00E2868D00D2B62D00E2B70D0CE18B24552D307443C2F4FD804EBD70C07F0A6
:2072C00007029CF8130008FA02F20243781E8CF8132002463B2A74D8DFE812F07B007300C6
:2072E0008600890094009700A400B30073007300BD00C7007300D500E2007300EC00730097
:207300007300FB00730073000501730073007300240145017300730073007300730073009D
:20732000690073007300730069007300730073007300730073007300730073007300730031
:207340007300730073007300730073007300730073005301A04BA14A1A60802002B0BDE887
:20736000F0877078B11C0D308A45F6D90D2B9CD111F8013B0D339AE77078B21C92454FEA95
:207380000020EAD9B27802F20D121044F11CEBE70E4616F8013BB2454FEA0323DDD94A782E
:2073A00002F20D121344023181E7802070478A4B8B4A1A60A520D1E7874B8A4A1A60802010
:2073C000CCE7FB0700F10281B2453FF65BAF0020C4E7082B28BF08231A4684F86A3004F1D3
:2073E0006B000FF055FAEFE7C4E91031ECE7082B28BF08231A4684F8243004F125000FF0AF
:2074000047FAE1E784F89C80DEE74BB1013BC8180139002311F8012F884242EA0323F9D172
:207420006366D1E753B1013BC8180139002311F8012F884242EA0323F9D19BB2A4F85030C6
:20744000C2E72F200A46009004F1480104F14C00FFF7DAFCB8E72F200A46009004F15C01E9
:2074600004F16000FFF7D0FCAEE753B1013BC8180139002311F8012F884242EA0323F9D1C4
:207480009BB2A383A0E74BB1013BC8180139002311F8012F884242EA0323F9D1236293E75F
:2074A00026200A46009004F1940104F19800FFF7ABFC89E753B1013BC8180139002311F8FC
:2074C000012F884242EA0323F9D19BB2A4F868307AE726200A46009004F1540104F15800F7
:2074E000FFF792FC70E7002B6CD0013B0B440020013911F8012F8B4242EA0020F9D100F059
:207500000703102120F00F02994089B202FA03F3C0F3C002000984F87820A4F87A10E36707
:20752000606751E7002B49D0013B0B440020013911F8012F8B4242EA0020F9D100F007030D
:20754000102120F00F02994089B202FA03F3C0F3C002000984F88420A4F88610C4F888308F
:20756000C4F8800030E74BB1013BC8180139002311F8012F884242EA0323F9D1C4F88C30AC
:2075800022E74BB1013BC8180139002311F8012F884242EA0323F9D1C4F8903014E70136A0
:2075A000751BA9EB0505ADB2402D88BF40250020C4F8A860A4F8A4507055CFE618461021A8
:2075C0001A46C7E7184610211A46A4E7024B064A1A608220C2E600BFFC0000205877010017
:2075E0009877010070770100C0770100FF299ABF817101200020704710B5082A28BF0822E8
:20760000144682720B300FF043F9204610BD00BF037D818343F0100303750120704700BFDB
:20762000037DC3F3C0021B0702D5036E0B60C26D104670470B782F2B10B5044603D111F878
:20764000013F2F2BFBD0216608460FF03CFA237DE06543F00803237510BD00BFC27C0346ED
:20766000C2F38010520644BF5B6E0B60704700BFC37C416643F04003C3740120704700BF96
:2076800030B40446407DC0110FD009B1656F0D6012B194F87810117013B1B4F87A201A8058
:2076A000029B13B1029AE36F136030BC704700BF10B4A3F11004B4F5FE6F02D8B1F5801F05
:2076C00003D300205DF8044B7047447D4167003A64F07F0118BF012280F87820A0F87A3096
:2076E00041755DF8044B0120704700BF11B1D0F8A8300B60D0F8A83013B1B0F8A400704765
:20770000184670470346402A28BF40221046A3F8A420C3F8A81070472DE9F04105F088FABB
:20772000FEF734F907F028FF05F09AFB00216648664FDFF8EC81664D664C674E05F068FB45
:2077400000F0B4FB0CF0F6FB09F0A6FB05F078FA05F034FC614B1B6898477B689847D8F8D7
:2077600004309847A979EB79226803EB0123022A338025DC5A4B29686A6819605A60594818
:20778000002105F045FB4FF0FF300AF01FFE2368022B054600F3818005F074FAFEF760FC63
:2077A0005148FDF70FFD0CF0EFFB05F05FFB04460CF0F2FB14F0FF0FF7D105F069FAF4E7BB
:2077C0004A4A4B494B4805F07FFA4B4805F0E8FB2368022BCEDD454A4549464805F074FAA4
:2077E000464B4748196805F06FFA2368022BC1DD3E4A3F493F4805F067FAD8F800104148DE
:2078000005F062FA2368022BB4DD384A3849394805F05AFA39683C4805F056FA2368022BDF
:20782000A8DD324A3249334805F04EFA37484AF6CD3105F049FA2368022B9BDD2B4A2C4905
:207840002C4805F041FA32481A2105F03DFA2368022B8FDD254A2649264805F035FA318856
:207860002C4805F031FA2368022B83DD1F4A2049204805F029FA284805F026FA2368022BCD
:207880007FF778AF284601F009FB2368022B7FF771AF0A2005F082FB6CE7144A1449154893
:2078A00005F012FA1D4805F00FFA2368022B7FF773AF284601F0E2FA2368022B7FF76CAF90
:2078C0000A2005F06BFB67E734010020EC780100C82B0020540100205E2B0020B4790100BC
:2078E000CC2F00208C020020E4740100DC770100E4770100EC770100FC7701002C7C010035
:207900003478010044780100507801005C7801007878010098780100A8780100C078010003
